{"contracts/SCKDynamicNFT.sol":{"SCKDynamicNFT":{"abi":[{"inputs":[{"internalType":"string","name":"name","type":"string"},{"internalType":"string","name":"symbol","type":"string"},{"internalType":"string","name":"baseURI","type":"string"},{"internalType":"string","name":"contractMetadataURI","type":"string"}],"stateMutability":"nonpayable","type":"constructor"},{"inputs":[],"name":"AccessControlBadConfirmation","type":"error"},{"inputs":[{"internalType":"address","name":"account","type":"address"},{"internalType":"bytes32","name":"neededRole","type":"bytes32"}],"name":"AccessControlUnauthorizedAccount","type":"error"},{"inputs":[{"internalType":"address","name":"sender","type":"address"},{"internalType":"uint256","name":"tokenId","type":"uint256"},{"internalType":"address","name":"owner","type":"address"}],"name":"ERC721IncorrectOwner","type":"error"},{"inputs":[{"internalType":"address","name":"operator","type":"address"},{"internalType":"uint256","name":"tokenId","type":"uint256"}],"name":"ERC721InsufficientApproval","type":"error"},{"inputs":[{"internalType":"address","name":"approver","type":"address"}],"name":"ERC721InvalidApprover","type":"error"},{"inputs":[{"internalType":"address","name":"operator","type":"address"}],"name":"ERC721InvalidOperator","type":"error"},{"inputs":[{"internalType":"address","name":"owner","type":"address"}],"name":"ERC721InvalidOwner","type":"error"},{"inputs":[{"internalType":"address","name":"receiver","type":"address"}],"name":"ERC721InvalidReceiver","type":"error"},{"inputs":[{"internalType":"address","name":"sender","type":"address"}],"name":"ERC721InvalidSender","type":"error"},{"inputs":[{"internalType":"uint256","name":"tokenId","type":"uint256"}],"name":"ERC721NonexistentToken","type":"error"},{"inputs":[{"internalType":"address","name":"owner","type":"address"}],"name":"OwnableInvalidOwner","type":"error"},{"inputs":[{"internalType":"address","name":"account","type":"address"}],"name":"OwnableUnauthorizedAccount","type":"error"},{"anonymous":false,"inputs":[{"indexed":true,"internalType":"uint256","name":"tokenId","type":"uint256"},{"indexed":false,"internalType":"string","name":"achievementType","type":"string"},{"indexed":false,"internalType":"string","name":"title","type":"string"},{"indexed":false,"internalType":"uint256","name":"trustScoreAtEarning","type":"uint256"},{"indexed":false,"internalType":"bool","name":"isSoulbound","type":"bool"}],"name":"AchievementEarned","type":"event"},{"anonymous":false,"inputs":[{"indexed":true,"internalType":"address","name":"owner","type":"address"},{"indexed":true,"internalType":"address","name":"approved","type":"address"},{"indexed":true,"internalType":"uint256","name":"tokenId","type":"uint256"}],"name":"Approval","type":"event"},{"anonymous":false,"inputs":[{"indexed":true,"internalType":"address","name":"owner","type":"address"},{"indexed":true,"internalType":"address","name":"operator","type":"address"},{"indexed":false,"internalType":"bool","name":"approved","type":"bool"}],"name":"ApprovalForAll","type":"event"},{"anonymous":false,"inputs":[{"indexed":true,"internalType":"uint256","name":"tokenId","type":"uint256"},{"indexed":false,"internalType":"bool","name":"wasEligible","type":"bool"},{"indexed":false,"internalType":"bool","name":"isEligible","type":"bool"},{"indexed":false,"internalType":"uint256","name":"trustScore","type":"uint256"}],"name":"EligibilityChanged","type":"event"},{"anonymous":false,"inputs":[{"indexed":true,"internalType":"uint256","name":"tokenId","type":"uint256"},{"indexed":false,"internalType":"string","name":"newMetadata","type":"string"}],"name":"MetadataUpdated","type":"event"},{"anonymous":false,"inputs":[{"indexed":true,"internalType":"address","name":"previousOwner","type":"address"},{"indexed":true,"internalType":"address","name":"newOwner","type":"address"}],"name":"OwnershipTransferred","type":"event"},{"anonymous":false,"inputs":[{"indexed":true,"internalType":"bytes32","name":"role","type":"bytes32"},{"indexed":true,"internalType":"bytes32","name":"previousAdminRole","type":"bytes32"},{"indexed":true,"internalType":"bytes32","name":"newAdminRole","type":"bytes32"}],"name":"RoleAdminChanged","type":"event"},{"anonymous":false,"inputs":[{"indexed":true,"internalType":"uint256","name":"tokenId","type":"uint256"},{"indexed":true,"internalType":"string","name":"did","type":"string"},{"indexed":false,"internalType":"string","name":"name","type":"string"},{"indexed":false,"internalType":"string","name":"role","type":"string"},{"indexed":false,"internalType":"string","name":"organization","type":"string"},{"indexed":true,"internalType":"address","name":"owner","type":"address"}],"name":"RoleAgentMinted","type":"event"},{"anonymous":false,"inputs":[{"indexed":true,"internalType":"bytes32","name":"role","type":"bytes32"},{"indexed":true,"internalType":"address","name":"account","type":"address"},{"indexed":true,"internalType":"address","name":"sender","type":"address"}],"name":"RoleGranted","type":"event"},{"anonymous":false,"inputs":[{"indexed":true,"internalType":"bytes32","name":"role","type":"bytes32"},{"indexed":true,"internalType":"address","name":"account","type":"address"},{"indexed":true,"internalType":"address","name":"sender","type":"address"}],"name":"RoleRevoked","type":"event"},{"anonymous":false,"inputs":[{"indexed":true,"internalType":"address","name":"from","type":"address"},{"indexed":true,"internalType":"address","name":"to","type":"address"},{"indexed":true,"internalType":"uint256","name":"tokenId","type":"uint256"}],"name":"Transfer","type":"event"},{"anonymous":false,"inputs":[{"indexed":true,"internalType":"uint256","name":"tokenId","type":"uint256"},{"indexed":false,"internalType":"uint256","name":"oldScore","type":"uint256"},{"indexed":false,"internalType":"uint256","name":"newScore","type":"uint256"},{"indexed":false,"internalType":"enum SCKDynamicNFT.TrustLevel","name":"oldLevel","type":"uint8"},{"indexed":false,"internalType":"enum SCKDynamicNFT.TrustLevel","name":"newLevel","type":"uint8"},{"indexed":false,"internalType":"enum SCKDynamicNFT.SignalType","name":"signalType","type":"uint8"}],"name":"TrustScoreUpdated","type":"event"},{"anonymous":false,"inputs":[{"indexed":true,"internalType":"uint256","name":"tokenId","type":"uint256"},{"indexed":true,"internalType":"enum SCKDynamicNFT.SignalType","name":"signalType","type":"uint8"},{"indexed":false,"internalType":"int256","name":"scoreImpact","type":"int256"},{"indexed":false,"internalType":"string","name":"source","type":"string"},{"indexed":true,"internalType":"address","name":"reporter","type":"address"}],"name":"TrustSignalProcessed","type":"event"},{"inputs":[],"name":"ACHIEVEMENT_MINTER_ROLE","outputs":[{"internalType":"bytes32","name":"","type":"bytes32"}],"stateMutability":"view","type":"function"},{"inputs":[],"name":"DEFAULT_ADMIN_ROLE","outputs":[{"internalType":"bytes32","name":"","type":"bytes32"}],"stateMutability":"view","type":"function"},{"inputs":[],"name":"MAX_TRUST_SCORE","outputs":[{"internalType":"uint256","name":"","type":"uint256"}],"stateMutability":"view","type":"function"},{"inputs":[],"name":"MIN_TRUST_SCORE","outputs":[{"internalType":"uint256","name":"","type":"uint256"}],"stateMutability":"view","type":"function"},{"inputs":[],"name":"NFT_ELIGIBILITY_THRESHOLD","outputs":[{"internalType":"uint256","name":"","type":"uint256"}],"stateMutability":"view","type":"function"},{"inputs":[],"name":"SIGNAL_UPDATER_ROLE","outputs":[{"internalType":"bytes32","name":"","type":"bytes32"}],"stateMutability":"view","type":"function"},{"inputs":[{"internalType":"uint256","name":"","type":"uint256"},{"internalType":"uint256","name":"","type":"uint256"}],"name":"achievements","outputs":[{"internalType":"string","name":"achievementType","type":"string"},{"internalType":"string","name":"title","type":"string"},{"internalType":"string","name":"description","type":"string"},{"internalType":"string","name":"metadata","type":"string"},{"internalType":"uint256","name":"trustScoreAtEarning","type":"uint256"},{"internalType":"uint256","name":"earnedAt","type":"uint256"},{"internalType":"bool","name":"isSoulbound","type":"bool"},{"internalType":"string","name":"imageURI","type":"string"}],"stateMutability":"view","type":"function"},{"inputs":[{"internalType":"enum SCKDynamicNFT.TrustLevel","name":"","type":"uint8"}],"name":"agentsByTrustLevel","outputs":[{"internalType":"uint256","name":"","type":"uint256"}],"stateMutability":"view","type":"function"},{"inputs":[{"internalType":"address","name":"to","type":"address"},{"internalType":"uint256","name":"tokenId","type":"uint256"}],"name":"approve","outputs":[],"stateMutability":"nonpayable","type":"function"},{"inputs":[{"internalType":"address","name":"owner","type":"address"}],"name":"balanceOf","outputs":[{"internalType":"uint256","name":"","type":"uint256"}],"stateMutability":"view","type":"function"},{"inputs":[{"internalType":"uint256[]","name":"tokenIds","type":"uint256[]"},{"internalType":"enum SCKDynamicNFT.SignalType[]","name":"signalTypes","type":"uint8[]"},{"internalType":"int256[]","name":"scoreImpacts","type":"int256[]"},{"internalType":"string[]","name":"sources","type":"string[]"},{"internalType":"string[]","name":"metadataArray","type":"string[]"}],"name":"batchProcessTrustSignals","outputs":[],"stateMutability":"nonpayable","type":"function"},{"inputs":[],"name":"contractURI","outputs":[{"internalType":"string","name":"","type":"string"}],"stateMutability":"view","type":"function"},{"inputs":[{"internalType":"uint256","name":"tokenId","type":"uint256"}],"name":"deactivateRoleAgent","outputs":[],"stateMutability":"nonpayable","type":"function"},{"inputs":[{"internalType":"string","name":"","type":"string"}],"name":"didToTokenId","outputs":[{"internalType":"uint256","name":"","type":"uint256"}],"stateMutability":"view","type":"function"},{"inputs":[{"internalType":"uint256","name":"tokenId","type":"uint256"}],"name":"getAchievements","outputs":[{"components":[{"internalType":"string","name":"achievementType","type":"string"},{"internalType":"string","name":"title","type":"string"},{"internalType":"string","name":"description","type":"string"},{"internalType":"string","name":"metadata","type":"string"},{"internalType":"uint256","name":"trustScoreAtEarning","type":"uint256"},{"internalType":"uint256","name":"earnedAt","type":"uint256"},{"internalType":"bool","name":"isSoulbound","type":"bool"},{"internalType":"string","name":"imageURI","type":"string"}],"internalType":"struct SCKDynamicNFT.Achievement[]","name":"","type":"tuple[]"}],"stateMutability":"view","type":"function"},{"inputs":[{"internalType":"uint256","name":"tokenId","type":"uint256"}],"name":"getApproved","outputs":[{"internalType":"address","name":"","type":"address"}],"stateMutability":"view","type":"function"},{"inputs":[],"name":"getPlatformStats","outputs":[{"internalType":"uint256","name":"totalAgents","type":"uint256"},{"internalType":"uint256","name":"totalSignalsProcessed","type":"uint256"},{"internalType":"uint256","name":"totalAchievementsEarned","type":"uint256"},{"internalType":"uint256","name":"eligibleAgents","type":"uint256"},{"internalType":"uint256","name":"unverifiedAgents","type":"uint256"},{"internalType":"uint256","name":"basicAgents","type":"uint256"},{"internalType":"uint256","name":"trustedAgents","type":"uint256"},{"internalType":"uint256","name":"highlyTrustedAgents","type":"uint256"},{"internalType":"uint256","name":"eliteAgents","type":"uint256"}],"stateMutability":"view","type":"function"},{"inputs":[{"internalType":"uint256","name":"tokenId","type":"uint256"},{"internalType":"uint256","name":"count","type":"uint256"}],"name":"getRecentTrustSignals","outputs":[{"components":[{"internalType":"enum SCKDynamicNFT.SignalType","name":"signalType","type":"uint8"},{"internalType":"int256","name":"scoreImpact","type":"int256"},{"internalType":"string","name":"source","type":"string"},{"internalType":"string","name":"metadata","type":"string"},{"internalType":"uint256","name":"timestamp","type":"uint256"},{"internalType":"address","name":"reporter","type":"address"},{"internalType":"bool","name":"isVerified","type":"bool"}],"internalType":"struct SCKDynamicNFT.TrustSignal[]","name":"","type":"tuple[]"}],"stateMutability":"view","type":"function"},{"inputs":[{"internalType":"bytes32","name":"role","type":"bytes32"}],"name":"getRoleAdmin","outputs":[{"internalType":"bytes32","name":"","type":"bytes32"}],"stateMutability":"view","type":"function"},{"inputs":[{"internalType":"uint256","name":"tokenId","type":"uint256"}],"name":"getRoleAgentData","outputs":[{"components":[{"internalType":"string","name":"did","type":"string"},{"internalType":"string","name":"name","type":"string"},{"internalType":"string","name":"role","type":"string"},{"internalType":"string","name":"organization","type":"string"},{"internalType":"uint256","name":"trustScore","type":"uint256"},{"internalType":"enum SCKDynamicNFT.TrustLevel","name":"trustLevel","type":"uint8"},{"internalType":"uint256","name":"createdAt","type":"uint256"},{"internalType":"uint256","name":"lastUpdated","type":"uint256"},{"internalType":"bool","name":"isActive","type":"bool"},{"internalType":"bool","name":"isEligibleForAchievements","type":"bool"},{"internalType":"uint256","name":"totalSignals","type":"uint256"},{"internalType":"uint256","name":"achievementCount","type":"uint256"}],"internalType":"struct SCKDynamicNFT.RoleAgent","name":"","type":"tuple"}],"stateMutability":"view","type":"function"},{"inputs":[{"internalType":"string","name":"did","type":"string"}],"name":"getTokenIdByDID","outputs":[{"internalType":"uint256","name":"","type":"uint256"}],"stateMutability":"view","type":"function"},{"inputs":[{"internalType":"uint256","name":"tokenId","type":"uint256"}],"name":"getTrustSignals","outputs":[{"components":[{"internalType":"enum SCKDynamicNFT.SignalType","name":"signalType","type":"uint8"},{"internalType":"int256","name":"scoreImpact","type":"int256"},{"internalType":"string","name":"source","type":"string"},{"internalType":"string","name":"metadata","type":"string"},{"internalType":"uint256","name":"timestamp","type":"uint256"},{"internalType":"address","name":"reporter","type":"address"},{"internalType":"bool","name":"isVerified","type":"bool"}],"internalType":"struct SCKDynamicNFT.TrustSignal[]","name":"","type":"tuple[]"}],"stateMutability":"view","type":"function"},{"inputs":[{"internalType":"bytes32","name":"role","type":"bytes32"},{"internalType":"address","name":"account","type":"address"}],"name":"grantRole","outputs":[],"stateMutability":"nonpayable","type":"function"},{"inputs":[{"internalType":"bytes32","name":"role","type":"bytes32"},{"internalType":"address","name":"account","type":"address"}],"name":"hasRole","outputs":[{"internalType":"bool","name":"","type":"bool"}],"stateMutability":"view","type":"function"},{"inputs":[{"internalType":"address","name":"owner","type":"address"},{"internalType":"address","name":"operator","type":"address"}],"name":"isApprovedForAll","outputs":[{"internalType":"bool","name":"","type":"bool"}],"stateMutability":"view","type":"function"},{"inputs":[{"internalType":"uint256","name":"tokenId","type":"uint256"}],"name":"isSoulbound","outputs":[{"internalType":"bool","name":"","type":"bool"}],"stateMutability":"view","type":"function"},{"inputs":[{"internalType":"uint256","name":"tokenId","type":"uint256"},{"internalType":"string","name":"achievementType","type":"string"},{"internalType":"string","name":"title","type":"string"},{"internalType":"string","name":"description","type":"string"},{"internalType":"string","name":"metadata","type":"string"},{"internalType":"bool","name":"_isSoulbound","type":"bool"},{"internalType":"string","name":"imageURI","type":"string"}],"name":"mintAchievement","outputs":[],"stateMutability":"nonpayable","type":"function"},{"inputs":[{"internalType":"address","name":"to","type":"address"},{"internalType":"string","name":"did","type":"string"},{"internalType":"string","name":"name","type":"string"},{"internalType":"string","name":"role","type":"string"},{"internalType":"string","name":"organization","type":"string"},{"internalType":"uint256","name":"initialTrustScore","type":"uint256"}],"name":"mintRoleAgent","outputs":[{"internalType":"uint256","name":"","type":"uint256"}],"stateMutability":"nonpayable","type":"function"},{"inputs":[{"internalType":"address","name":"to","type":"address"},{"internalType":"string","name":"did","type":"string"},{"internalType":"string","name":"name","type":"string"},{"internalType":"string","name":"role","type":"string"},{"internalType":"string","name":"organization","type":"string"},{"internalType":"uint256","name":"initialTrustScore","type":"uint256"}],"name":"mintRoleAgentPublic","outputs":[{"internalType":"uint256","name":"","type":"uint256"}],"stateMutability":"nonpayable","type":"function"},{"inputs":[],"name":"name","outputs":[{"internalType":"string","name":"","type":"string"}],"stateMutability":"view","type":"function"},{"inputs":[],"name":"owner","outputs":[{"internalType":"address","name":"","type":"address"}],"stateMutability":"view","type":"function"},{"inputs":[{"internalType":"uint256","name":"tokenId","type":"uint256"}],"name":"ownerOf","outputs":[{"internalType":"address","name":"","type":"address"}],"stateMutability":"view","type":"function"},{"inputs":[{"internalType":"uint256","name":"tokenId","type":"uint256"},{"internalType":"enum SCKDynamicNFT.SignalType","name":"signalType","type":"uint8"},{"internalType":"int256","name":"scoreImpact","type":"int256"},{"internalType":"string","name":"source","type":"string"},{"internalType":"string","name":"metadata","type":"string"}],"name":"processTrustSignal","outputs":[],"stateMutability":"nonpayable","type":"function"},{"inputs":[{"internalType":"uint256","name":"tokenId","type":"uint256"}],"name":"reactivateRoleAgent","outputs":[],"stateMutability":"nonpayable","type":"function"},{"inputs":[],"name":"renounceOwnership","outputs":[],"stateMutability":"nonpayable","type":"function"},{"inputs":[{"internalType":"bytes32","name":"role","type":"bytes32"},{"internalType":"address","name":"callerConfirmation","type":"address"}],"name":"renounceRole","outputs":[],"stateMutability":"nonpayable","type":"function"},{"inputs":[{"internalType":"bytes32","name":"role","type":"bytes32"},{"internalType":"address","name":"account","type":"address"}],"name":"revokeRole","outputs":[],"stateMutability":"nonpayable","type":"function"},{"inputs":[{"internalType":"uint256","name":"","type":"uint256"}],"name":"roleAgents","outputs":[{"internalType":"string","name":"did","type":"string"},{"internalType":"string","name":"name","type":"string"},{"internalType":"string","name":"role","type":"string"},{"internalType":"string","name":"organization","type":"string"},{"internalType":"uint256","name":"trustScore","type":"uint256"},{"internalType":"enum SCKDynamicNFT.TrustLevel","name":"trustLevel","type":"uint8"},{"internalType":"uint256","name":"createdAt","type":"uint256"},{"internalType":"uint256","name":"lastUpdated","type":"uint256"},{"internalType":"bool","name":"isActive","type":"bool"},{"internalType":"bool","name":"isEligibleForAchievements","type":"bool"},{"internalType":"uint256","name":"totalSignals","type":"uint256"},{"internalType":"uint256","name":"achievementCount","type":"uint256"}],"stateMutability":"view","type":"function"},{"inputs":[{"internalType":"address","name":"from","type":"address"},{"internalType":"address","name":"to","type":"address"},{"internalType":"uint256","name":"tokenId","type":"uint256"}],"name":"safeTransferFrom","outputs":[],"stateMutability":"nonpayable","type":"function"},{"inputs":[{"internalType":"address","name":"from","type":"address"},{"internalType":"address","name":"to","type":"address"},{"internalType":"uint256","name":"tokenId","type":"uint256"},{"internalType":"bytes","name":"data","type":"bytes"}],"name":"safeTransferFrom","outputs":[],"stateMutability":"nonpayable","type":"function"},{"inputs":[{"internalType":"address","name":"operator","type":"address"},{"internalType":"bool","name":"approved","type":"bool"}],"name":"setApprovalForAll","outputs":[],"stateMutability":"nonpayable","type":"function"},{"inputs":[{"internalType":"string","name":"baseURI","type":"string"}],"name":"setBaseURI","outputs":[],"stateMutability":"nonpayable","type":"function"},{"inputs":[{"internalType":"string","name":"contractMetadataURI","type":"string"}],"name":"setContractURI","outputs":[],"stateMutability":"nonpayable","type":"function"},{"inputs":[{"internalType":"uint256","name":"","type":"uint256"}],"name":"soulboundTokens","outputs":[{"internalType":"bool","name":"","type":"bool"}],"stateMutability":"view","type":"function"},{"inputs":[{"internalType":"bytes4","name":"interfaceId","type":"bytes4"}],"name":"supportsInterface","outputs":[{"internalType":"bool","name":"","type":"bool"}],"stateMutability":"view","type":"function"},{"inputs":[],"name":"symbol","outputs":[{"internalType":"string","name":"","type":"string"}],"stateMutability":"view","type":"function"},{"inputs":[{"internalType":"uint256","name":"tokenId","type":"uint256"}],"name":"tokenURI","outputs":[{"internalType":"string","name":"","type":"string"}],"stateMutability":"view","type":"function"},{"inputs":[],"name":"totalAchievements","outputs":[{"internalType":"uint256","name":"","type":"uint256"}],"stateMutability":"view","type":"function"},{"inputs":[],"name":"totalTrustSignals","outputs":[{"internalType":"uint256","name":"","type":"uint256"}],"stateMutability":"view","type":"function"},{"inputs":[{"internalType":"address","name":"from","type":"address"},{"internalType":"address","name":"to","type":"address"},{"internalType":"uint256","name":"tokenId","type":"uint256"}],"name":"transferFrom","outputs":[],"stateMutability":"nonpayable","type":"function"},{"inputs":[{"internalType":"address","name":"newOwner","type":"address"}],"name":"transferOwnership","outputs":[],"stateMutability":"nonpayable","type":"function"},{"inputs":[{"internalType":"uint256","name":"","type":"uint256"}],"name":"trustScoreHistory","outputs":[{"internalType":"uint256","name":"","type":"uint256"}],"stateMutability":"view","type":"function"},{"inputs":[{"internalType":"uint256","name":"","type":"uint256"},{"internalType":"uint256","name":"","type":"uint256"}],"name":"trustSignals","outputs":[{"internalType":"enum SCKDynamicNFT.SignalType","name":"signalType","type":"uint8"},{"internalType":"int256","name":"scoreImpact","type":"int256"},{"internalType":"string","name":"source","type":"string"},{"internalType":"string","name":"metadata","type":"string"},{"internalType":"uint256","name":"timestamp","type":"uint256"},{"internalType":"address","name":"reporter","type":"address"},{"internalType":"bool","name":"isVerified","type":"bool"}],"stateMutability":"view","type":"function"},{"inputs":[{"internalType":"address","name":"","type":"address"}],"name":"userToTokenId","outputs":[{"internalType":"uint256","name":"","type":"uint256"}],"stateMutability":"view","type":"function"}],"evm":{"bytecode":{"linkReferences":{},"object":"608060405234620006735762005c5b803803806200001d8162000678565b9283398101608082820312620006735781516001600160401b0391908281116200067357816200004f9185016200069e565b90602093848101518481116200067357826200006d9183016200069e565b906040810151858111620006735783620000899183016200069e565b9260608201518681116200067357620000a392016200069e565b908351928584116200065d576000918254946001968787811c9716801562000652575b8a8810146200055b578190601f97888111620005ff575b508a908883116001146200059a5786926200058e575b5050600019600383901b1c191690871b1783555b8051908782116200057a5786548781811c911680156200056f575b8a8210146200055b5790818784931162000508575b508990878311600114620004a457859262000498575b5050600019600383901b1c191690861b1785555b33156200047f5760068054336001600160a01b0319821681179092556001600160a01b03167f8be0079c531659141344cd1fd0a4f28419497f9722a3daafe3b4186f6b6457e08480a38051908682116200046b576009548681811c9116801562000460575b898210146200044c57908186849311620003f8575b5088908683116001146200039257849262000386575b5050600019600383901b1c191690851b176009555b81519485116200037257600a548481811c9116801562000367575b8782101462000353578381116200030a575b5085928511600114620002a157939450849291908362000295575b50501b916000199060031b1c191617600a555b6200026c3362000710565b50620002783362000791565b50620002843362000834565b506040516153689081620008d38239f35b0151925038806200024e565b600a815285812093958591601f198316915b88838310620002ef5750505010620002d5575b505050811b01600a5562000261565b015160001960f88460031b161c19169055388080620002c6565b858701518855909601959485019487935090810190620002b3565b600a82528682208480880160051c82019289891062000349575b0160051c019085905b8281106200033d57505062000233565b8381550185906200032d565b9250819262000324565b634e487b7160e01b82526022600452602482fd5b90607f169062000221565b634e487b7160e01b81526041600452602490fd5b015190503880620001f1565b600985528985208894509190601f198416865b8c828210620003e15750508411620003c7575b505050811b0160095562000206565b015160001960f88460031b161c19169055388080620003b8565b8385015186558b97909501949384019301620003a5565b909150600984528884208680850160051c8201928b861062000442575b918991869594930160051c01915b82811062000433575050620001db565b86815585945089910162000423565b9250819262000415565b634e487b7160e01b84526022600452602484fd5b90607f1690620001c6565b634e487b7160e01b83526041600452602483fd5b604051631e4fbdf760e01b815260048101839052602490fd5b0151905038806200014d565b8886528a86208994509190601f198416875b8d828210620004f15750508411620004d7575b505050811b01855562000161565b015160001960f88460031b161c19169055388080620004c9565b8385015186558c97909501949384019301620004b6565b9091508785528985208780850160051c8201928c861062000551575b918a91869594930160051c01915b8281106200054257505062000137565b8781558594508a910162000532565b9250819262000524565b634e487b7160e01b85526022600452602485fd5b90607f169062000122565b634e487b7160e01b84526041600452602484fd5b015190503880620000f3565b8680528b87208a94509190601f198416888e5b828210620005e75750508411620005cd575b505050811b01835562000107565b015160001960f88460031b161c19169055388080620005bf565b8385015186558d979095019493840193018e620005ad565b9091508580528a86208880850160051c8201928d861062000648575b918b91869594930160051c01915b82811062000639575050620000dd565b8881558594508b910162000629565b925081926200061b565b96607f1696620000c6565b634e487b7160e01b600052604160045260246000fd5b600080fd5b6040519190601f01601f191682016001600160401b038111838210176200065d57604052565b919080601f84011215620006735782516001600160401b0381116200065d57602090620006d4601f8201601f1916830162000678565b92818452828287010111620006735760005b818110620006fc57508260009394955001015290565b8581018301518482018401528201620006e6565b6001600160a01b031660008181527f6d5257204ebe7d88fd91ae87941cb2dd9d8062b64ae5a2bd2d28ec40b9fbf6df602052604081205490919060ff166200078d5781805260076020526040822081835260205260408220600160ff19825416179055339160008051602062005c3b8339815191528180a4600190565b5090565b6001600160a01b031660008181527f62300fa0d10e1485f04eaf244f7dfe6cceae92c0c8f7c6ac4e3941192164c95560205260408120549091907f4a3f8703c45f1a8b52b849456ebd7814f31f6cdedef35ba4eff995e62e5c76239060ff166200082f5780835260076020526040832082845260205260408320600160ff1982541617905560008051602062005c3b833981519152339380a4600190565b505090565b6001600160a01b031660008181527fadf80b37e8c1562bfdc011cf13673c8b9de9d2597c3dc32cb9b626fdcb0acee260205260408120549091907f8524da473fc5e5a86a958a576dd0a57ffa409ebfb83259b3dba9d5b494a021729060ff166200082f5780835260076020526040832082845260205260408320600160ff1982541617905560008051602062005c3b833981519152339380a460019056fe60a080604052600436101561001357600080fd5b60003560e01c90816301ffc9a7146134f3575080630200924c146132d6578063057e709c1461101957806306fdde0314613233578063081812fc146131f5578063095ea7b31461310e5780631285a327146110f2578063136d888314612fa0578063186c211d14612f0257806318895a5814612d1b5780631d81764514612cef57806323b872dd14612cd8578063248a9ca314612ca95780632f2ff15d14612c6a578063323602fa14612c4b57806333eaa7a014612c2e57806336568abe14612be75780633bcce0ed14612b8a5780633f82e5e114612b5b57806342842e0e14612b33578063469386541461255657806353c2de231461244b57806355f804b3146122d2578063592066061461196257806359ef88dd146118745780635f107779146118395780636352211e1461180957806363eb1de6146117eb57806364721755146113b757806370a0823114611792578063715018a61461173557806374c8d3771461171857806389d85503146114115780638da5cb5b146113e8578063911ec470146113b757806391d148541461136a578063938e3d7b146111f157806395d89b411461114e5780639691019a146110f25780639a5cdf2914611035578063a217fddf14611019578063a22cb46514610f6b578063a61f983714610f4d578063af24b07b14610f13578063b88d4fde14610eb4578063c3a5e3c914610e5a578063c87b56dd14610513578063c9a3c9b6146104e2578063d547741f146104a1578063e8a3d485146103bf578063e985e9c514610369578063f09aa9971461032e578063f106a40e146103045763f2fde38b1461027157600080fd5b346102ff5760203660031901126102ff5761028a6135cd565b610292613c15565b6001600160a01b039081169081156102e657600654826bffffffffffffffffffffffff60a01b821617600655167f8be0079c531659141344cd1fd0a4f28419497f9722a3daafe3b4186f6b6457e0600080a3005b604051631e4fbdf760e01b815260006004820152602490fd5b600080fd5b346102ff5761032a61031e61031836613a1f565b90614e6a565b60405191829182613720565b0390f35b346102ff5760003660031901126102ff5760206040517f8524da473fc5e5a86a958a576dd0a57ffa409ebfb83259b3dba9d5b494a021728152f35b346102ff5760403660031901126102ff576103826135cd565b61038a6135e3565b9060018060a01b03809116600052600560205260406000209116600052602052602060ff604060002054166040519015158152f35b346102ff5760003660031901126102ff576040516000600a546103e18161393f565b8084529060019081811690811561047a575060011461041f575b61032a8461040b81860382613682565b60405191829160208352602083019061359b565b600a600090815292507fc65a7bb8d6351c1cf70c95a316cc6a92839c986682d98bc35f958f4883f9d2a85b82841061046257505050810160200161040b826103fb565b8054602085870181019190915290930192810161044a565b60ff191660208087019190915292151560051b8501909201925061040b91508390506103fb565b346102ff5760403660031901126102ff576104e06004356104c06135e3565b908060005260076020526104db600160406000200154613af8565b613b9e565b005b346102ff5760203660031901126102ff5760043560058110156102ff5761050a602091613a83565b54604051908152f35b346102ff5760203660031901126102ff5760043560009081526002602052604090205461054a906001600160a01b03161515614db1565b600435600052600b6020526040600020600a60405191610569836135f9565b61057281613979565b835261058060018201613979565b602084015261059160028201613979565b60408401526105a260038201613979565b6060840152600481015460808401526105c560ff60058301541660a0850161404f565b600681015460c0840152600781015460e084015260ff6008820154818116151561010086015260081c16151561012084015260098101546101408401520154610160820152600435600052600d60205260406000208054906020610628836138a8565b6106356040519182613682565b838152019060005260206000206000915b838310610dc9578460a08101516005811015610db35761066590615252565b61012082015115610d82576109f561017c60405161068281613667565b6008815267456c696769626c6560c01b6020820152925b6106a660808601516150cd565b60408601516060870151906106bf6101408901516150cd565b936106ce6101608a01516150cd565b6101008a015190919015610d5b576040516106e881613667565b600681526541637469766560d01b6020820152955b8a51946040519a8b97605b60f81b60208a01527f7b2274726169745f74797065223a2254727573742053636f7265222c2276616c60218a0152633ab2911d60e11b60418a015261075781518092602060458d019101613578565b880191611f4b60f21b9483866045819601527f7b2274726169745f74797065223a225472757374204c6576656c222c2276616c6047820152643ab2911d1160d91b60678201526107b1825180936020606c85019101613578565b019662089f4b60ea1b9788606c8201527f7b2274726169745f74797065223a22526f6c65222c2276616c7565223a220000606f8201526107fb825180936020608d85019101613578565b0187608d8201527f7b2274726169745f74797065223a224f7267616e697a6174696f6e222c227661609082015265363ab2911d1160d11b60b082015261084b82518093602060b685019101613578565b018660b68201527f7b2274726169745f74797065223a224e465420456c69676962696c697479222c60b982015268113b30b63ab2911d1160b91b60d982015261089e82518093602060e285019101613578565b018560e28201527f7b2274726169745f74797065223a22546f74616c205369676e616c73222c227660e58201526530b63ab2911d60d11b6101058201528251906108f28261010b9560208785019101613578565b01918201527f7b2274726169745f74797065223a22416368696576656d656e7420436f756e7461010d820152691116113b30b63ab2911d60b11b61012d820152825190610949826101379560208785019101613578565b01918201527f7b2274726169745f74797065223a22537461747573222c2276616c7565223a2261013982015284519061098c826101599760208985019101613578565b019384015261015c927f7b2274726169745f74797065223a22444944222c2276616c7565223a22000000848201528151906109d1826101799460208685019101613578565b61227d60f01b910191820152605d60f81b61017b8201520390810184520182613682565b6020820151610a0c608060408501519401516150cd565b610a176004356150cd565b90610a236004356150cd565b91604051958694607b60f81b602087015267113730b6b2911d1160c11b6021870152610a5981518092602060298a019101613578565b850161088b60f21b60298201527f226465736372697074696f6e223a2253434b20526f6c65204167656e743a2000602b820152610aa0825180936020604a85019101613578565b01710103bb4ba34103a393ab9ba1039b1b7b932960751b604a820152610ad0835180946020605c85019101613578565b660bcc4c0c0c088b60ca1b605c8483010152681134b6b0b3b2911d1160b91b6063848301015260009260095491610b068361393f565b9260018116908115610d345750600114610ccf575b50505091602082610b3985610bec9895604a98975194859201613578565b01650b9c1b99c88b60d21b81527f2265787465726e616c5f75726c223a2268747470733a2f2f736563757265636f60068201527364656b6e696768742e636f6d2f6167656e74732f60601b6026820152610b9d825180936020603a85019101613578565b0161088b60f21b603a8201526c1130ba3a3934b13aba32b9911d60991b603c820152610bd3825180936020604985019101613578565b01607d60f81b604982015203602a810184520182613682565b60405160608101908082106001600160401b03831117610cb95761032a92610c6692604052604082527f4142434445464748494a4b4c4d4e4f505152535455565758595a61626364656660208301527f6768696a6b6c6d6e6f707172737475767778797a303132333435363738392b2f6040830152614fd5565b61040b603d60405180937f646174613a6170706c69636174696f6e2f6a736f6e3b6261736536342c0000006020830152610ca98151809260208686019101613578565b810103601d810184520182613682565b634e487b7160e01b600052604160045260246000fd5b909192935060096000527f6e1540171b6c0c960b71a7020d9f60077f6af931a8bbf590da0223dacf75c7af6000905b848210610d185750500101606c0190602081610b39610b1b565b8054606c84860184010152899750602090910190600101610cfe565b60ff1916606c92909301828101939093525082151590920201019150602081610b39610b1b565b604051610d6781613667565b6008815267496e61637469766560c01b6020820152956106fd565b6109f561017c604051610d9481613667565b600c81526b4e6f7420456c696769626c6560a01b602082015292610699565b634e487b7160e01b600052602160045260246000fd5b60086020600192604051610ddc81613615565b610de586613979565b8152610df2858701613979565b83820152610e0260028701613979565b6040820152610e1360038701613979565b606082015260048601546080820152600586015460a082015260ff600687015416151560c0820152610e4760078701613979565b60e0820152815201920192019190610646565b346102ff5760203660031901126102ff57600435610e76613c15565b600081815260026020526040902054610e99906001600160a01b03161515614db1565b6000908152600b60205260409020600801805460ff19169055005b346102ff5760803660031901126102ff57610ecd6135cd565b610ed56135e3565b606435916001600160401b0383116102ff57366023840112156102ff57610f096104e09336906024816004013591016136be565b9160443591613e9a565b346102ff5760203660031901126102ff576001600160a01b03610f346135cd565b1660005260116020526020604060002054604051908152f35b346102ff5760003660031901126102ff576020601354604051908152f35b346102ff5760403660031901126102ff57610f846135cd565b60243590811515908183036102ff576001600160a01b031691821561100057610fd29033600052600560205260406000208460005260205260406000209060ff801983541691151516179055565b6040519081527f17307eab39ab6107e8899845ad3d59bd9653f200f220920489ca2b5937696c3160203392a3005b604051630b61174360e31b815260048101849052602490fd5b346102ff5760003660031901126102ff57602060405160008152f35b346102ff5761104336613a1f565b90600052600c602052604060002080548210156102ff576110ab9161106791613a67565b5060ff8154169060ff60018201546110cf61108460028501613979565b6110c161109360038701613979565b916005600488015497015494604051998a809a613713565b602089015260e0604089015260e088019061359b565b90868203606088015261359b565b92608085015260018060a01b03811660a085015260a01c16151560c08301520390f35b346102ff5760203660031901126102ff576004356001600160401b0381116102ff5761113b6020611128819336906004016136f5565b8160405193828580945193849201613578565b8101600e81520301902054604051908152f35b346102ff5760003660031901126102ff57604051600060018054906111728261393f565b8085529181811690811561047a57506001146111985761032a8461040b81860382613682565b600081815292507fb10e2d527612073b26eecdfd717e6a320cf44b4afac2b0732d9fcbe2b7fa0cf65b8284106111d957505050810160200161040b826103fb565b805460208587018101919091529093019281016111c1565b346102ff576020806003193601126102ff576001600160401b036004358181116102ff576112239036906004016136f5565b9161122c613c15565b8251918211610cb957611240600a5461393f565b601f8111611306575b5080601f83116001146112855750819260009261127a575b5050600019600383901b1c191660019190911b17600a55005b015190508280611261565b90601f19831693600a6000527fc65a7bb8d6351c1cf70c95a316cc6a92839c986682d98bc35f958f4883f9d2a8926000905b8682106112ee57505083600195106112d5575b505050811b01600a55005b015160001960f88460031b161c191690558280806112ca565b806001859682949686015181550195019301906112b7565b600a6000527fc65a7bb8d6351c1cf70c95a316cc6a92839c986682d98bc35f958f4883f9d2a8601f840160051c810191838510611360575b601f0160051c01905b8181106113545750611249565b60008155600101611347565b909150819061133e565b346102ff5760403660031901126102ff576113836135e3565b600435600052600760205260406000209060018060a01b0316600052602052602060ff604060002054166040519015158152f35b346102ff5760203660031901126102ff57600435600052600f602052602060ff604060002054166040519015158152f35b346102ff5760003660031901126102ff576006546040516001600160a01b039091168152602090f35b346102ff5760a03660031901126102ff5760043560243560078110156102ff57604435906001600160401b03906064358281116102ff576114569036906004016136f5565b916084359081116102ff5761146f9036906004016136f5565b611477613a9c565b8460005260206002815261149960018060a01b03604060002054161515614979565b6063198512158061170d575b6114ae906149c5565b85600052600b815260ff936114cc8560086040600020015416614a11565b86600052600b82526040600020936004850196875491600587019660088989541691600085126000146116e15761150285614a6a565b808711156116d9576115149087614a7b565b809c5b5561152a6115248d615210565b8b61405b565b4260078201556009810161153e815461402a565b905501805461ff001981166102ee8d1015600881811b61ff001692909217909355919a911c81169881815416966005881015610db3576005841015610db357848e7f8e9a18b1685bd471c7a695ea15ece8a889f9ffeeef186d2e0e16e4b610e0dead8f9a9860407f4276ec6986b6418c7135532d86db38a4a2a5c66440d2339b644d580ac60e39e59d849f611621906116599d8c036116a7575b86600052600c8352836000208451916115f083613631565b6115fa8a84614a95565b86858401528a8684015260608301524260808301523360a0830152600160c0830152614aae565b61162c60125461402a565b6012558151928352820152806116473396604083019061359b565b0390a454169060405195869586614d64565b0390a2818115150361166757005b6040805191151582529115156020820152908101919091527f4ff2af13b9d139714356e2c7b84b2c4fc0825779b3380bea5cca4ebed9193f9390606090a2005b6116b08c613a83565b6116ba8154614a88565b90556116c88b8b5416613a83565b6116d2815461402a565b90556115d8565b506000611514565b6103e8806116ef8789614a5d565b11156116fd575b809c611517565b506117088587614a5d565b6116f6565b5060648513156114a5565b346102ff5760003660031901126102ff5760206040516103e88152f35b346102ff5760003660031901126102ff5761174e613c15565b600680546001600160a01b031981169091556000906001600160a01b03167f8be0079c531659141344cd1fd0a4f28419497f9722a3daafe3b4186f6b6457e08280a3005b346102ff5760203660031901126102ff576001600160a01b036117b36135cd565b1680156117d25760005260036020526020604060002054604051908152f35b6040516322718ad960e21b815260006004820152602490fd5b346102ff5760003660031901126102ff576020601254604051908152f35b346102ff5760203660031901126102ff576020611827600435613fef565b6040516001600160a01b039091168152f35b346102ff5760003660031901126102ff5760206040517f4a3f8703c45f1a8b52b849456ebd7814f31f6cdedef35ba4eff995e62e5c76238152f35b346102ff5761188236613a1f565b90600052600d602052604060002080548210156102ff57611919916118a691613a35565b5061032a6118b382613979565b916118c060018201613979565b6118cc60028301613979565b916118d960038201613979565b92611943600483015494611935600585015493611927611903600760ff60068a0154169801613979565b976040519c8d9c8d61010090818152019061359b565b8c810360208e01529061359b565b908a820360408c015261359b565b9088820360608a015261359b565b93608087015260a0860152151560c085015283820360e085015261359b565b346102ff5760e03660031901126102ff576024356001600160401b0381116102ff576119929036906004016136f5565b6044356001600160401b0381116102ff576119b19036906004016136f5565b906064356001600160401b0381116102ff576119d19036906004016136f5565b6084356001600160401b0381116102ff576119f09036906004016136f5565b9060a435151560a435036102ff5760c4356001600160401b0381116102ff57611a1d9036906004016136f5565b3360009081527fadf80b37e8c1562bfdc011cf13673c8b9de9d2597c3dc32cb9b626fdcb0acee260205260409020547f8524da473fc5e5a86a958a576dd0a57ffa409ebfb83259b3dba9d5b494a021729060ff16156122b45750600435600090815260026020526040902054611a9d906001600160a01b03161515614979565b600435600052600b60205260ff60086040600020015460081c16156122635783511561221f57600435600052600b60205260406000209260048401549060405193611ae785613615565b8685528760208601526040850152606084015260808301524260a083015260a435151560c083015260e0820152600435600052600d60205260406000208054600160401b811015610cb957611b4191600182018155613a35565b9190916122095780518051906001600160401b038211610cb9578190611b67855461393f565b601f81116121b9575b50602090601f831160011461214d57600092612142575b50508160011b916000199060031b1c19161782555b60208101518051906001600160401b038211610cb9578190611bc1600186015461393f565b601f81116120ef575b50602090601f831160011461207d57600092612072575b50508160011b916000199060031b1c19161760018301555b60408101518051906001600160401b038211610cb9578190611c1e600286015461393f565b601f811161201f575b50602090601f8311600114611fad57600092611fa2575b50508160011b916000199060031b1c19161760028301555b60608101518051906001600160401b038211610cb957611c79600385015461393f565b601f8111611f5b575b50602090601f8311600114611ee85760e093929160009183611edd575b50508160011b916000199060031b1c19161760038401555b6080810151600484015560a08101516005840155611cea60c08201511515600685019060ff801983541691151516179055565b01518051906001600160401b038211610cb957611d0a600784015461393f565b601f8111611e96575b50602090601f8311600114611dff57926007836004947f5a534a2621ee7f49e6923f6132ac13ae9d00c9dfbd00587fa36de0253d4d6982989794611dbb97600092611df4575b50508160011b916000199060031b1c1916179101555b600a8101611d7d815461402a565b9055611d8a60135461402a565b60135560a435611dd5575b015493611dad6040519360808552608085019061359b565b90838203602085015261359b565b92604082015260a4351515606082015280600435930390a2005b8135600052600f6020526040600020600160ff19825416179055611d95565b015190508a80611d59565b90601f198316916007850160005260206000209260005b818110611e7e5750847f5a534a2621ee7f49e6923f6132ac13ae9d00c9dfbd00587fa36de0253d4d6982989794611dbb979460079460049860019510611e65575b505050811b01910155611d6f565b015160001960f88460031b161c191690558a8080611e57565b92936020600181928786015181550195019301611e16565b600784016000526020600020601f840160051c810160208510611ed6575b601f830160051c82018110611eca575050611d13565b60008155600101611eb4565b5080611eb4565b015190508880611c9f565b906003850160005260206000209160005b601f1985168110611f43575091839160019360e09695601f19811610611f2a575b505050811b016003840155611cb7565b015160001960f88460031b161c19169055888080611f1a565b91926020600181928685015181550194019201611ef9565b600385016000526020600020601f840160051c810160208510611f9b575b601f830160051c82018110611f8f575050611c82565b60008155600101611f79565b5080611f79565b015190508780611c3e565b9250600285016000526020600020906000935b601f1984168510612004576001945083601f19811610611feb575b505050811b016002830155611c56565b015160001960f88460031b161c19169055878080611fdb565b81810151835560209485019460019093019290910190611fc0565b909150600285016000526020600020601f840160051c81016020851061206b575b90849392915b601f830160051c8201811061205c575050611c27565b60008155859450600101612046565b5080612040565b015190508780611be1565b9250600185016000526020600020906000935b601f19841685106120d4576001945083601f198116106120bb575b505050811b016001830155611bf9565b015160001960f88460031b161c191690558780806120ab565b81810151835560209485019460019093019290910190612090565b909150600185016000526020600020601f840160051c81016020851061213b575b90849392915b601f830160051c8201811061212c575050611bca565b60008155859450600101612116565b5080612110565b015190508780611b87565b9250846000526020600020906000935b601f198416851061219e576001945083601f19811610612185575b505050811b018255611b9c565b015160001960f88460031b161c19169055878080612178565b8181015183556020948501946001909301929091019061215d565b909150846000526020600020601f840160051c810160208510612202575b90849392915b601f830160051c820181106121f3575050611b70565b600081558594506001016121dd565b50806121d7565b634e487b7160e01b600052600060045260246000fd5b606460405162461bcd60e51b815260206004820152602060248201527f416368696576656d656e7420747970652063616e6e6f7420626520656d7074796044820152fd5b60405162461bcd60e51b815260206004820152602360248201527f4167656e74206e6f7420656c696769626c6520666f7220616368696576656d656044820152626e747360e81b6064820152608490fd5b6044906040519063e2517d3f60e01b82523360048301526024820152fd5b346102ff576020806003193601126102ff576001600160401b036004358181116102ff576123049036906004016136f5565b9161230d613c15565b8251918211610cb95761232160095461393f565b601f81116123e7575b5080601f83116001146123665750819260009261235b575b5050600019600383901b1c191660019190911b17600955005b015190508280612342565b90601f1983169360096000527f6e1540171b6c0c960b71a7020d9f60077f6af931a8bbf590da0223dacf75c7af926000905b8682106123cf57505083600195106123b6575b505050811b01600955005b015160001960f88460031b161c191690558280806123ab565b80600185968294968601518155019501930190612398565b60096000527f6e1540171b6c0c960b71a7020d9f60077f6af931a8bbf590da0223dacf75c7af601f840160051c810191838510612441575b601f0160051c01905b818110612435575061232a565b60008155600101612428565b909150819061241f565b346102ff5760203660031901126102ff57600435600052600b602052604060002061247581613979565b61248160018301613979565b9161248e60028201613979565b61249a60038301613979565b91600481015492600582015460ff166006830154600784015491600885015493600986015495600a0154966040519a8b9a610180808d528c016124dc9161359b565b8b810360208d01526124ed9161359b565b8a810360408c01526124fe9161359b565b89810360608b015261250f9161359b565b96608089015260a08801612522916135c0565b60c087015260e086015260ff8116151561010086015260081c60ff1615156101208501526101408401526101608301520390f35b346102ff5760a03660031901126102ff576001600160401b036004358181116102ff57366023820112156102ff578060040135612592816138a8565b916125a06040519384613682565b818352602083016024809360051b830101913683116102ff578301905b828210612b235750505080358381116102ff57366023820112156102ff578060040135906125f96125ed836138a8565b60405180608052613682565b8160805152826020608051019260051b820101903682116102ff578301915b818310612b0a57505050604435908382116102ff57366023830112156102ff57816004013591612647836138a8565b926126556040519485613682565b80845282602085019160051b830101913683116102ff578301905b828210612afa5750505060649182358581116102ff576126949036906004016138bf565b946084359081116102ff576126ad9036906004016138bf565b6126b5613a9c565b84516080515181149081612aef575b81612ae4575b81612ad9575b5015612a965760005b85518110156104e0576126ec8187614d9d565b51600081815260026020526040902054612710906001600160a01b03161515614979565b60631961271d8386614d9d565b51121580612a7d575b61272f906149c5565b80600052600b8060205260089061274f60ff836040600020015416614a11565b826000526020526040600020600481019081549060ff600582015416906000612778888b614d9d565b511215612a445761279261278c888b614d9d565b51614a6a565b80841115612a3c576127a49084614a7b565b80945b556127bd6127b485615210565b6005830161405b565b426007820155600981016127d1815461402a565b9055808501805461ff001981166102ee87101560081b61ff00161790915590941c60ff169360ff6005820154166005811015612a27576005831015612a2757898e6128a09285036129f1575b88600052600c6020526040600020908b6128618c61285a816128538161284d61284882608051614d9d565b614aa1565b99614d9d565b5195614d9d565b5192614d9d565b51916128796040519561287387613631565b86614a95565b6020850152604084015260608301524260808301523360a0830152600160c0830152614aae565b60126128ac815461402a565b90558c896128d4896128cd816128c761284882608051614d9d565b94614d9d565b5193614d9d565b519160078210156129dc5788979695919460ff60057f4276ec6986b6418c7135532d86db38a4a2a5c66440d2339b644d580ac60e39e59689968c996129929f9e7f8e9a18b1685bd471c7a695ea15ece8a889f9ffeeef186d2e0e16e4b610e0dead6129789860405190815260406020820152806129563396604083019061359b565b0390a401541661296b6128488c608051614d9d565b9160405195869586614d64565b0390a26102ee81101582151503612997575b50505061402a565b6126d9565b6040805192151583526102ee82101560208401528201527f4ff2af13b9d139714356e2c7b84b2c4fc0825779b3380bea5cca4ebed9193f9390606090a288808061298a565b8c634e487b7160e01b60005260216004526000fd5b6129fa85613a83565b612a048154614a88565b9055612a1660ff600586015416613a83565b612a20815461402a565b905561281d565b8a634e487b7160e01b60005260216004526000fd5b5060006127a4565b612a4e878a614d9d565b516103e89081612a5e8287614a5d565b1115612a6d57505b80946127a7565b612a78915084614a5d565b612a66565b5061272f86612a8c8487614d9d565b5113159050612726565b505060186040519162461bcd60e51b8352602060048401528201527f4172726179206c656e67746873206d757374206d6174636800000000000000006044820152fd5b9050815114876126d0565b8751811491506126ca565b8351811491506126c4565b8135815260209182019101612670565b823560078110156102ff57815260209283019201612618565b81358152602091820191016125bd565b346102ff576104e0612b44366137e4565b9060405192612b528461364c565b60008452613e9a565b346102ff576020612b82612b6e36613819565b94612b7d949194939293613c15565b614073565b604051908152f35b346102ff5760203660031901126102ff57600435612ba6613c15565b600081815260026020526040902054612bc9906001600160a01b03161515614db1565b6000908152600b60205260409020600801805460ff19166001179055005b346102ff5760403660031901126102ff57612c006135e3565b336001600160a01b03821603612c1c576104e090600435613b9e565b60405163334bd91960e11b8152600490fd5b346102ff5760003660031901126102ff5760206040516102ee8152f35b346102ff576020612b82612c5e36613819565b94939093929192614073565b346102ff5760403660031901126102ff576104e0600435612c896135e3565b90806000526007602052612ca4600160406000200154613af8565b613b1e565b346102ff5760203660031901126102ff5760043560005260076020526020600160406000200154604051908152f35b346102ff576104e0612ce9366137e4565b91613c41565b346102ff5760203660031901126102ff5760043560005260106020526020604060002054604051908152f35b346102ff576020806003193601126102ff576004359081600052600291828252612d5360018060a01b03604060002054161515614db1565b600052600d815260406000208054612d6a816138a8565b93612d786040519586613682565b81855260009283528383208486019391845b848410612e6d57604080518881528951818a01819052600092600582901b83018101918a918c9085015b828710612dc15785850386f35b909192938280612e5d600193603f198a820301865288519060e0612e2c612e19612e07612df7865161010080885287019061359b565b888701518682038a88015261359b565b6040860151858203604087015261359b565b606080860151908583039086015261359b565b926080808201519084015260a0808201519084015260c08082015115159084015201519060e081840391015261359b565b9601920196019592919092612db4565b60088760019260409a999a51612e8281613615565b612e8b87613979565b8152612e98858801613979565b83820152612ea7868801613979565b6040820152612eb860038801613979565b606082015260048701546080820152600587015460a082015260ff600688015416151560c0820152612eec60078801613979565b60e0820152815201930193019291969596612d8a565b346102ff576020806003193601126102ff576004356000818152600283526040902054612f39906001600160a01b03161515614db1565b600052600c815260406000208054612f50816138a8565b91612f5e6040519384613682565b8183526000908152838120938084015b838310612f83576040518061032a8782613720565b600682600192612f9289614df4565b815201960192019194612f6e565b346102ff5760003660031901126102ff5760085460125460135460146020527f63d87a887046e0430be80fdeb014107d7198c879cbf2cddf39a6df195c86cb385460046000527f52102136546d97ed3f65ec1070a32935d3048ea12f310d29c378dc9d6555c0d654610120949392916130199190614a5d565b601460209081527f4f26c3876aa9f4b92579780beea1161a61f87ebf1ec6ee865b299e447ecba99c547fb6c61a840592cc84133e4b25bd509abf4659307c57b160799b38490a5aa48f2c547fa1930aa930426c54c34daad2b9ada7c5d0ef0c96078a3c5bb79f6fa6602c4a7a547f63d87a887046e0430be80fdeb014107d7198c879cbf2cddf39a6df195c86cb385460046000527f52102136546d97ed3f65ec1070a32935d3048ea12f310d29c378dc9d6555c0d654604080519a8b52958a0198909852938801959095526060870193909352608086015260a085019190915260c084019190915260e0830152610100820152f35b346102ff5760403660031901126102ff576131276135cd565b60243561313381613fef565b331515806131e2575b806131b5575b61319d576001600160a01b039283169282918491167f8c5be1e5ebec7d5bd14f71427d1e84f3dd0314c0f7b2291e5b200ac8c7c3b925600080a4600090815260046020526040902080546001600160a01b0319169091179055005b60405163a9fbf51f60e01b8152336004820152602490fd5b5060018060a01b038116600052600560205260406000203360005260205260ff6040600020541615613142565b506001600160a01b03811633141561313c565b346102ff5760203660031901126102ff5760043561321281613fef565b506000526004602052602060018060a01b0360406000205416604051908152f35b346102ff5760003660031901126102ff57604051600080546132548161393f565b8084529060019081811690811561047a575060011461327d5761032a8461040b81860382613682565b600080805292507f290decd9548b62a8d60345a988386fc84ba6bc95484008f6362f93160ef3e5635b8284106132be57505050810160200161040b826103fb565b805460208587018101919091529093019281016132a6565b346102ff5760203660031901126102ff5760043560006101606040516132fb816135f9565b6060815260606020820152606060408201526060808201528260808201528260a08201528260c08201528260e0820152826101008201528261012082015282610140820152015280600052600260205261336360018060a01b03604060002054161515614db1565b600052600b6020526040600020600a6040519161337f836135f9565b61338881613979565b835261339660018201613979565b60208401526133a760028201613979565b60408401526133b860038201613979565b6060840152600481015460808401526133db60ff60058301541660a0850161404f565b600681015460c0840152600781015460e084015260ff6008820154818116151561010086015260081c1615156101208401526009810154610140840152015461016082015260405180916020825261016061348f613447835161018060208701526101a086019061359b565b61347a613466602086015192601f1993848983030160408a015261359b565b60408601518388830301606089015261359b565b9060608501519086830301608087015261359b565b91608081015160a08501526134ac60a082015160c08601906135c0565b60c081015160e085015260e0810151610100850152610100810151151561012085015261012081015115156101408501526101408101518285015201516101808301520390f35b346102ff5760203660031901126102ff576004359063ffffffff60e01b82168092036102ff57602091637965db0b60e01b8114908115613535575b5015158152f35b6380ac58cd60e01b811491508115613567575b8115613556575b508361352e565b6301ffc9a760e01b1490508361354f565b635b5e139f60e01b81149150613548565b60005b83811061358b5750506000910152565b818101518382015260200161357b565b906020916135b481518092818552858086019101613578565b601f01601f1916010190565b906005821015610db35752565b600435906001600160a01b03821682036102ff57565b602435906001600160a01b03821682036102ff57565b61018081019081106001600160401b03821117610cb957604052565b61010081019081106001600160401b03821117610cb957604052565b60e081019081106001600160401b03821117610cb957604052565b602081019081106001600160401b03821117610cb957604052565b604081019081106001600160401b03821117610cb957604052565b90601f801991011681019081106001600160401b03821117610cb957604052565b6001600160401b038111610cb957601f01601f191660200190565b9291926136ca826136a3565b916136d86040519384613682565b8294818452818301116102ff578281602093846000960137010152565b9080601f830112156102ff57816020613710933591016136be565b90565b906007821015610db35752565b602080820190808352835180925260409283810182858560051b8401019601946000925b858410613755575050505050505090565b909192939495968580600192603f198582030187528a5190613778818351613713565b82820151838201526137ac6137998884015160e0808b86015284019061359b565b606080850151908483039085015261359b565b916080808201519083015260a0868060a01b0381830151169083015260c0809101511515910152990194019401929594939190613744565b60609060031901126102ff576001600160a01b039060043582811681036102ff579160243590811681036102ff579060443590565b9060c06003198301126102ff576004356001600160a01b03811681036102ff57916001600160401b03906024358281116102ff578161385a916004016136f5565b926044358381116102ff5782613872916004016136f5565b926064358181116102ff578361388a916004016136f5565b926084359182116102ff576138a1916004016136f5565b9060a43590565b6001600160401b038111610cb95760051b60200190565b9080601f830112156102ff578135906138d7826138a8565b926138e56040519485613682565b828452602092838086019160051b830101928084116102ff57848301915b8483106139135750505050505090565b82356001600160401b0381116102ff578691613934848480948901016136f5565b815201920191613903565b90600182811c9216801561396f575b602083101461395957565b634e487b7160e01b600052602260045260246000fd5b91607f169161394e565b906040519182600082549261398d8461393f565b9081845260019485811690816000146139fc57506001146139b9575b50506139b792500383613682565b565b9093915060005260209081600020936000915b8183106139e45750506139b7935082010138806139a9565b855488840185015294850194879450918301916139cc565b9150506139b794506020925060ff191682840152151560051b82010138806139a9565b60409060031901126102ff576004359060243590565b8054821015613a515760005260206000209060031b0190600090565b634e487b7160e01b600052603260045260246000fd5b8054821015613a51576000526006602060002091020190600090565b6005811015610db3576000526014602052604060002090565b3360009081527f62300fa0d10e1485f04eaf244f7dfe6cceae92c0c8f7c6ac4e3941192164c95560205260409020547f4a3f8703c45f1a8b52b849456ebd7814f31f6cdedef35ba4eff995e62e5c76239060ff16156122b45750565b80600052600760205260406000203360005260205260ff60406000205416156122b45750565b906000918083526007602052604083209160018060a01b03169182845260205260ff60408420541615600014613b995780835260076020526040832082845260205260408320600160ff198254161790557f2f8788117e7eff1d82e926ec794901d17c78024a50270940304540a733656f0d339380a4600190565b505090565b906000918083526007602052604083209160018060a01b03169182845260205260ff604084205416600014613b99578083526007602052604083208284526020526040832060ff1981541690557ff6391f5c32d9c69d2a47ea670b442974b53935d1edc7fd64eb21e047a839171b339380a4600190565b6006546001600160a01b03163303613c2957565b60405163118cdaa760e01b8152336004820152602490fd5b6001600160a01b039182169290918315613e8157600092828452826020956002875260409684888820541680151580613e0a575b80613e02575b613de9575b508287526002815284888820541696879133151580613d53575b509060027fddf252ad1be2c89b69c2b068fc378daa952ba7f163c4a11628f55a4df523b3ef9284613d20575b858352600381528b8320805460010190558683525289812080546001600160a01b0319168517905580a41692838303613cff5750505050565b6064945051926364283d7b60e01b8452600484015260248301526044820152fd5b600087815260046020526040902080546001600160a01b0319169055848352600381528b83208054600019019055613cc6565b91939450915080613da8575b15613d6f57859291879138613c9a565b878688613d8c576024915190637e27328960e01b82526004820152fd5b604491519063177e802f60e01b82523360048301526024820152fd5b503387148015613dcd575b80613d5f5750858252600481523385898420541614613d5f565b5086825260058152878220338352815260ff8883205416613db3565b8752601181528688812055818752828888205538613c80565b506001613c7b565b9091929350600f835260ff8989205416613e28579086939291613c75565b885162461bcd60e51b815260048101849052602c60248201527f546f6b656e20697320736f756c626f756e6420616e642063616e6e6f7420626560448201526b081d1c985b9cd9995c9c995960a21b6064820152608490fd5b604051633250574960e11b815260006004820152602490fd5b929092613ea8838583613c41565b833b613eb5575b50505050565b604051630a85bd0160e11b8082523360048301526001600160a01b0392831660248301526044820194909452608060648201529493169260209290918590613f0190608483019061359b565b039483816000978189895af1869181613fab575b50613f76575050503d600014613f6d573d613f2f816136a3565b90613f3d6040519283613682565b81528093823d92013e5b82519283613f6857604051633250574960e11b815260048101849052602490fd5b019050fd5b60609250613f47565b919450915063ffffffff60e01b1603613f93575038808080613eaf565b60249060405190633250574960e11b82526004820152fd5b9091508481813d8311613fe8575b613fc38183613682565b81010312613fe457516001600160e01b031981168103613fe4579038613f15565b8680fd5b503d613fb9565b6000818152600260205260409020546001600160a01b0316908115614012575090565b60249060405190637e27328960e01b82526004820152fd5b60001981146140395760010190565b634e487b7160e01b600052601160045260246000fd5b6005821015610db35752565b906005811015610db35760ff80198354169116179055565b949381511561493e5760405160208184516140918183858901613578565b8101600e81520301902054614904576103e885116148c857600854956140b68761402a565b6008556140c286615210565b956102ee604051916140d3836135f9565b8583528660208401528760408401528460608401528060808401526140fb8960a0850161404f565b4260c08401524260e0840152600161010084015210156101208201526000610140820152600061016082015287600052600b60205260406000209080518051906001600160401b038211610cb9578190614155855461393f565b601f8111614878575b50602090601f831160011461480c57600092614801575b50508160011b916000199060031b1c19161782555b60208101518051906001600160401b038211610cb95781906141af600186015461393f565b601f81116147ae575b50602090601f831160011461473c57600092614731575b50508160011b916000199060031b1c19161760018301555b60408101518051906001600160401b038211610cb957819061420c600286015461393f565b601f81116146de575b50602090601f831160011461466c57600092614661575b50508160011b916000199060031b1c19161760028301555b60608101518051906001600160401b038211610cb9578190614269600386015461393f565b601f811161460e575b50602090601f831160011461459c57600092614591575b50508160011b916000199060031b1c19161760038301555b6080810151600483015560a08101516005811015610db357600a916142cc610160926005860161405b565b60c0810151600685015560e08101516007850155614320600885016143046101008401511515829060ff801983541691151516179055565b610120830151815461ff00191690151560081b61ff0016179055565b610140810151600985015501519101558660405160208186516143468183858b01613578565b8101600e8152030190205561437460018060a01b038092169687600052601160205288604060002055613a83565b61437e815461402a565b90558515613e8157866000526002602052806040600020541680151580614524575b8061451c575b6144fc575b5086600052600260205260406000205416868682151592836144c5575b8160005260036020526040600020600181540190558260005260026020526040600020826bffffffffffffffffffffffff60a01b8254161790557fddf252ad1be2c89b69c2b068fc378daa952ba7f163c4a11628f55a4df523b3ef600080a46144ac5785926144a661448a926144986144707f7fcfb895de6352154d8737ca08605e20cfd918445b75b92f0fb8d93aef25f94c96602060405192828480945193849201613578565b81010390209760405195869560608752606087019061359b565b90858203602087015261359b565b90838203604085015261359b565b0390a490565b6040516339e3563760e11b815260006004820152602490fd5b600083815260046020526040902080546001600160a01b0319169055806000526003602052604060002060001981540190556143c8565b6000526011602052600060408120558560005286604060002055386143ab565b5060016143a6565b600f60205260ff60406000205416156143a05760405162461bcd60e51b815260206004820152602c60248201527f546f6b656e20697320736f756c626f756e6420616e642063616e6e6f7420626560448201526b081d1c985b9cd9995c9c995960a21b6064820152608490fd5b015190503880614289565b9250600385016000526020600020906000935b601f19841685106145f3576001945083601f198116106145da575b505050811b0160038301556142a1565b015160001960f88460031b161c191690553880806145ca565b818101518355602094850194600190930192909101906145af565b909150600385016000526020600020601f840160051c81016020851061465a575b90849392915b601f830160051c8201811061464b575050614272565b60008155859450600101614635565b508061462f565b01519050388061422c565b9250600285016000526020600020906000935b601f19841685106146c3576001945083601f198116106146aa575b505050811b016002830155614244565b015160001960f88460031b161c1916905538808061469a565b8181015183556020948501946001909301929091019061467f565b909150600285016000526020600020601f840160051c81016020851061472a575b90849392915b601f830160051c8201811061471b575050614215565b60008155859450600101614705565b50806146ff565b0151905038806141cf565b9250600185016000526020600020906000935b601f1984168510614793576001945083601f1981161061477a575b505050811b0160018301556141e7565b015160001960f88460031b161c1916905538808061476a565b8181015183556020948501946001909301929091019061474f565b909150600185016000526020600020601f840160051c8101602085106147fa575b90849392915b601f830160051c820181106147eb5750506141b8565b600081558594506001016147d5565b50806147cf565b015190503880614175565b9250846000526020600020906000935b601f198416851061485d576001945083601f19811610614844575b505050811b01825561418a565b015160001960f88460031b161c19169055388080614837565b8181015183556020948501946001909301929091019061481c565b909150846000526020600020601f840160051c8101602085106148c1575b90849392915b601f830160051c820181106148b257505061415e565b6000815585945060010161489c565b5080614896565b60405162461bcd60e51b81526020600482015260146024820152730a8e4eae6e840e6c6dee4ca40e8dede40d0d2ced60631b6044820152606490fd5b60405162461bcd60e51b815260206004820152601260248201527144494420616c72656164792065786973747360701b6044820152606490fd5b60405162461bcd60e51b81526020600482015260136024820152724449442063616e6e6f7420626520656d70747960681b6044820152606490fd5b1561498057565b60405162461bcd60e51b815260206004820152601960248201527f526f6c65206167656e7420646f6573206e6f74206578697374000000000000006044820152606490fd5b156149cc57565b60405162461bcd60e51b815260206004820152601960248201527f53636f726520696d70616374206f7574206f662072616e6765000000000000006044820152606490fd5b15614a1857565b60405162461bcd60e51b815260206004820152601860248201527f526f6c65206167656e74206973206e6f742061637469766500000000000000006044820152606490fd5b9190820180921161403957565b600160ff1b81146140395760000390565b9190820391821161403957565b8015614039576000190190565b6007821015610db35752565b516007811015610db35790565b91908254600160401b811015610cb957614acf906001948582018155613a67565b6122095781516007811015610db35760ff8019835416911617815560208083015185830155600282019460408401518051966001600160401b0397888111610cb95780614b1c835461393f565b93601f94858111614d12575b508690858311600114614caf57600092614ca4575b5050600019600383901b1c191690841b1790555b60038401926060860151908151988911610cb957614b6f855461393f565b838111614c5e575b5080928911600114614bf6575096809281926005979899600094614beb575b50501b916000199060031b1c19161790555b60808301516004820155019060018060a01b0360a08201511682549160c060ff60a01b910151151560a01b16916affffffffffffffffffffff60a81b1617179055565b015192503880614b96565b909791601f198316988560005282600020926000905b8b8210614c4757505083600598999a10614c2e575b505050811b019055614ba8565b015160001960f88460031b161c19169055388080614c21565b808785968294968601518155019501930190614c0c565b856000528160002084808c0160051c820192848d10614c9b575b0160051c019085905b828110614c8f575050614b77565b60008155018590614c81565b92508192614c78565b015190503880614b3d565b90869350601f1983169185600052886000209260005b8a828210614cfc5750508411614ce3575b505050811b019055614b51565b015160001960f88460031b161c19169055388080614cd6565b8385015186558a97909501949384019301614cc5565b90915060008481528781208680860160051c8201938a8710614d5b575b91899187969594930160051c01925b838110614d4d57505050614b28565b828155869550899101614d3e565b93508193614d2f565b909594926139b794614d8c614d969260809560a086019a8652602086015260408501906135c0565b60608301906135c0565b0190613713565b8051821015613a515760209160051b010190565b15614db857565b60405162461bcd60e51b8152602060048201526014602482015273151bdad95b88191bd95cc81b9bdd08195e1a5cdd60621b6044820152606490fd5b90604051614e0181613631565b60c060ff60058395614e168382541686614a95565b60018101546020860152614e2c60028201613979565b6040860152614e3d60038201613979565b60608601526004810154608086015201546001600160a01b03811660a0808601919091521c161515910152565b906000828152602060028152604093614e8f60018060a01b0386852054161515614db1565b8252600c81528382209182549384158015614f9b575b614f855784811115614f7f575083915b614ebe836138a8565b95614ecb81519788613682565b838752601f19614eda856138a8565b0190835b828110614f4157505050505b818110614ef8575050505090565b80614f21614f1b614f15614f3c94614f10878a614a7b565b614a5d565b86613a67565b50614df4565b614f2b8288614d9d565b52614f368187614d9d565b5061402a565b614eea565b83908251614f4e81613631565b868152868382015260608085830152808201528660808201528660a08201528660c082015282828c01015201614ede565b91614eb5565b5093925050505190614f968261364c565b815290565b508015614ea5565b90614fad826136a3565b614fba6040519182613682565b8281528092614fcb601f19916136a3565b0190602036910137565b8051156150b8578051600291828201809211614039576003918290046001600160fe1b03811681036140395761500e908495941b614fa3565b936020850193829183518401906020820192835194600085525b83811061506757505050505251068060011461505457600214615049575090565b603d90600019015390565b50603d9081600019820153600119015390565b87600491999293949901918251600190603f9082828260121c16880101518453828282600c1c16880101518385015382828260061c1688010151888501531685010151898201530197929190615028565b50506040516150c68161364c565b6000815290565b806000917a184f03e93ff9f4daa797ed6e38ed64bf6a1f01000000000000000080821015615202575b506d04ee2d6d415b85acef8100000000808310156151f3575b50662386f26fc10000808310156151e4575b506305f5e100808310156151d5575b50612710808310156151c6575b5060648210156151b6575b600a809210156151ac575b600190816021615164828701614fa3565b95860101905b615176575b5050505090565b600019019083906f181899199a1a9b1b9c1cb0b131b232b360811b8282061a8353049182156151a75791908261516a565b61516f565b9160010191615153565b9190606460029104910191615148565b6004919392049101913861513d565b60089193920491019138615130565b60109193920491019138615121565b6020919392049101913861510f565b6040935081049150386150f6565b61038481101561524c576102ee811015615246576101f48110156152405760fa111561523b57600090565b600190565b50600290565b50600390565b50600490565b6005811015610db3576004811461531057600381146152e557600281146152c1576001146152a05760405161528681613667565b600a815269155b9d995c9a599a595960b21b602082015290565b6040516152ac81613667565b6005815264426173696360d81b602082015290565b506040516152ce81613667565b6007815266151c9d5cdd195960ca1b602082015290565b506040516152f281613667565b600e81526d121a59da1b1e48151c9d5cdd195960921b602082015290565b5060405161531d81613667565b6005815264456c69746560d81b60208201529056fea2646970667358221220f743e28ea70b7745520d3ce5360d9adda79da3f58bb8fdc9c607b5b7cd17ef8864736f6c634300081400332f8788117e7eff1d82e926ec794901d17c78024a50270940304540a733656f0d","opcodes":"PUSH1 0x80 PUSH1 0x40 MSTORE CALLVALUE PUSH3 0x673 JUMPI PUSH3 0x5C5B DUP1 CODESIZE SUB DUP1 PUSH3 0x1D DUP2 PUSH3 0x678 JUMP JUMPDEST SWAP3 DUP4 CODECOPY DUP2 ADD PUSH1 0x80 DUP3 DUP3 SUB SLT PUSH3 0x673 JUMPI DUP2 MLOAD PUSH1 0x1 PUSH1 0x1 PUSH1 0x40 SHL SUB SWAP2 SWAP1 DUP3 DUP2 GT PUSH3 0x673 JUMPI DUP2 PUSH3 0x4F SWAP2 DUP6 ADD PUSH3 0x69E JUMP JUMPDEST SWAP1 PUSH1 0x20 SWAP4 DUP5 DUP2 ADD MLOAD DUP5 DUP2 GT PUSH3 0x673 JUMPI DUP3 PUSH3 0x6D SWAP2 DUP4 ADD PUSH3 0x69E JUMP JUMPDEST SWAP1 PUSH1 0x40 DUP2 ADD MLOAD DUP6 DUP2 GT PUSH3 0x673 JUMPI DUP4 PUSH3 0x89 SWAP2 DUP4 ADD PUSH3 0x69E JUMP JUMPDEST SWAP3 PUSH1 0x60 DUP3 ADD MLOAD DUP7 DUP2 GT PUSH3 0x673 JUMPI PUSH3 0xA3 SWAP3 ADD PUSH3 0x69E JUMP JUMPDEST SWAP1 DUP4 MLOAD SWAP3 DUP6 DUP5 GT PUSH3 0x65D JUMPI PUSH1 0x0 SWAP2 DUP3 SLOAD SWAP5 PUSH1 0x1 SWAP7 DUP8 DUP8 DUP2 SHR SWAP8 AND DUP1 ISZERO PUSH3 0x652 JUMPI JUMPDEST DUP11 DUP9 LT EQ PUSH3 0x55B JUMPI DUP2 SWAP1 PUSH1 0x1F SWAP8 DUP9 DUP2 GT PUSH3 0x5FF JUMPI JUMPDEST POP DUP11 SWAP1 DUP9 DUP4 GT PUSH1 0x1 EQ PUSH3 0x59A JUMPI DUP7 SWAP3 PUSH3 0x58E JUMPI JUMPDEST POP POP PUSH1 0x0 NOT PUSH1 0x3 DUP4 SWAP1 SHL SHR NOT AND SWAP1 DUP8 SHL OR DUP4 SSTORE JUMPDEST DUP1 MLOAD SWAP1 DUP8 DUP3 GT PUSH3 0x57A JUMPI DUP7 SLOAD DUP8 DUP2 DUP2 SHR SWAP2 AND DUP1 ISZERO PUSH3 0x56F JUMPI JUMPDEST DUP11 DUP3 LT EQ PUSH3 0x55B JUMPI SWAP1 DUP2 DUP8 DUP5 SWAP4 GT PUSH3 0x508 JUMPI JUMPDEST POP DUP10 SWAP1 DUP8 DUP4 GT PUSH1 0x1 EQ PUSH3 0x4A4 JUMPI DUP6 SWAP3 PUSH3 0x498 JUMPI JUMPDEST POP POP PUSH1 0x0 NOT PUSH1 0x3 DUP4 SWAP1 SHL SHR NOT AND SWAP1 DUP7 SHL OR DUP6 SSTORE JUMPDEST CALLER ISZERO PUSH3 0x47F JUMPI PUSH1 0x6 DUP1 SLOAD CALLER PUSH1 0x1 PUSH1 0x1 PUSH1 0xA0 SHL SUB NOT DUP3 AND DUP2 OR SWAP1 SWAP3 SSTORE PUSH1 0x1 PUSH1 0x1 PUSH1 0xA0 SHL SUB AND PUSH32 0x8BE0079C531659141344CD1FD0A4F28419497F9722A3DAAFE3B4186F6B6457E0 DUP5 DUP1 LOG3 DUP1 MLOAD SWAP1 DUP7 DUP3 GT PUSH3 0x46B JUMPI PUSH1 0x9 SLOAD DUP7 DUP2 DUP2 SHR SWAP2 AND DUP1 ISZERO PUSH3 0x460 JUMPI JUMPDEST DUP10 DUP3 LT EQ PUSH3 0x44C JUMPI SWAP1 DUP2 DUP7 DUP5 SWAP4 GT PUSH3 0x3F8 JUMPI JUMPDEST POP DUP9 SWAP1 DUP7 DUP4 GT PUSH1 0x1 EQ PUSH3 0x392 JUMPI DUP5 SWAP3 PUSH3 0x386 JUMPI JUMPDEST POP POP PUSH1 0x0 NOT PUSH1 0x3 DUP4 SWAP1 SHL SHR NOT AND SWAP1 DUP6 SHL OR PUSH1 0x9 SSTORE JUMPDEST DUP2 MLOAD SWAP5 DUP6 GT PUSH3 0x372 JUMPI PUSH1 0xA SLOAD DUP5 DUP2 DUP2 SHR SWAP2 AND DUP1 ISZERO PUSH3 0x367 JUMPI JUMPDEST DUP8 DUP3 LT EQ PUSH3 0x353 JUMPI DUP4 DUP2 GT PUSH3 0x30A JUMPI JUMPDEST POP DUP6 SWAP3 DUP6 GT PUSH1 0x1 EQ PUSH3 0x2A1 JUMPI SWAP4 SWAP5 POP DUP5 SWAP3 SWAP2 SWAP1 DUP4 PUSH3 0x295 JUMPI JUMPDEST POP POP SHL SWAP2 PUSH1 0x0 NOT SWAP1 PUSH1 0x3 SHL SHR NOT AND OR PUSH1 0xA SSTORE JUMPDEST PUSH3 0x26C CALLER PUSH3 0x710 JUMP JUMPDEST POP PUSH3 0x278 CALLER PUSH3 0x791 JUMP JUMPDEST POP PUSH3 0x284 CALLER PUSH3 0x834 JUMP JUMPDEST POP PUSH1 0x40 MLOAD PUSH2 0x5368 SWAP1 DUP2 PUSH3 0x8D3 DUP3 CODECOPY RETURN JUMPDEST ADD MLOAD SWAP3 POP CODESIZE DUP1 PUSH3 0x24E JUMP JUMPDEST PUSH1 0xA DUP2 MSTORE DUP6 DUP2 KECCAK256 SWAP4 SWAP6 DUP6 SWAP2 PUSH1 0x1F NOT DUP4 AND SWAP2 JUMPDEST DUP9 DUP4 DUP4 LT PUSH3 0x2EF JUMPI POP POP POP LT PUSH3 0x2D5 JUMPI JUMPDEST POP POP POP DUP2 SHL ADD PUSH1 0xA SSTORE PUSH3 0x261 JUMP JUMPDEST ADD MLOAD PUSH1 0x0 NOT PUSH1 0xF8 DUP5 PUSH1 0x3 SHL AND SHR NOT AND SWAP1 SSTORE CODESIZE DUP1 DUP1 PUSH3 0x2C6 JUMP JUMPDEST DUP6 DUP8 ADD MLOAD DUP9 SSTORE SWAP1 SWAP7 ADD SWAP6 SWAP5 DUP6 ADD SWAP5 DUP8 SWAP4 POP SWAP1 DUP2 ADD SWAP1 PUSH3 0x2B3 JUMP JUMPDEST PUSH1 0xA DUP3 MSTORE DUP7 DUP3 KECCAK256 DUP5 DUP1 DUP9 ADD PUSH1 0x5 SHR DUP3 ADD SWAP3 DUP10 DUP10 LT PUSH3 0x349 JUMPI JUMPDEST ADD PUSH1 0x5 SHR ADD SWAP1 DUP6 SWAP1 JUMPDEST DUP3 DUP2 LT PUSH3 0x33D JUMPI POP POP PUSH3 0x233 JUMP JUMPDEST DUP4 DUP2 SSTORE ADD DUP6 SWAP1 PUSH3 0x32D JUMP JUMPDEST SWAP3 POP DUP2 SWAP3 PUSH3 0x324 JUMP JUMPDEST PUSH4 0x4E487B71 PUSH1 0xE0 SHL DUP3 MSTORE PUSH1 0x22 PUSH1 0x4 MSTORE PUSH1 0x24 DUP3 REVERT JUMPDEST SWAP1 PUSH1 0x7F AND SWAP1 PUSH3 0x221 JUMP JUMPDEST PUSH4 0x4E487B71 PUSH1 0xE0 SHL DUP2 MSTORE PUSH1 0x41 PUSH1 0x4 MSTORE PUSH1 0x24 SWAP1 REVERT JUMPDEST ADD MLOAD SWAP1 POP CODESIZE DUP1 PUSH3 0x1F1 JUMP JUMPDEST PUSH1 0x9 DUP6 MSTORE DUP10 DUP6 KECCAK256 DUP9 SWAP5 POP SWAP2 SWAP1 PUSH1 0x1F NOT DUP5 AND DUP7 JUMPDEST DUP13 DUP3 DUP3 LT PUSH3 0x3E1 JUMPI POP POP DUP5 GT PUSH3 0x3C7 JUMPI JUMPDEST POP POP POP DUP2 SHL ADD PUSH1 0x9 SSTORE PUSH3 0x206 JUMP JUMPDEST ADD MLOAD PUSH1 0x0 NOT PUSH1 0xF8 DUP5 PUSH1 0x3 SHL AND SHR NOT AND SWAP1 SSTORE CODESIZE DUP1 DUP1 PUSH3 0x3B8 JUMP JUMPDEST DUP4 DUP6 ADD MLOAD DUP7 SSTORE DUP12 SWAP8 SWAP1 SWAP6 ADD SWAP5 SWAP4 DUP5 ADD SWAP4 ADD PUSH3 0x3A5 JUMP JUMPDEST SWAP1 SWAP2 POP PUSH1 0x9 DUP5 MSTORE DUP9 DUP5 KECCAK256 DUP7 DUP1 DUP6 ADD PUSH1 0x5 SHR DUP3 ADD SWAP3 DUP12 DUP7 LT PUSH3 0x442 JUMPI JUMPDEST SWAP2 DUP10 SWAP2 DUP7 SWAP6 SWAP5 SWAP4 ADD PUSH1 0x5 SHR ADD SWAP2 JUMPDEST DUP3 DUP2 LT PUSH3 0x433 JUMPI POP POP PUSH3 0x1DB JUMP JUMPDEST DUP7 DUP2 SSTORE DUP6 SWAP5 POP DUP10 SWAP2 ADD PUSH3 0x423 JUMP JUMPDEST SWAP3 POP DUP2 SWAP3 PUSH3 0x415 JUMP JUMPDEST PUSH4 0x4E487B71 PUSH1 0xE0 SHL DUP5 MSTORE PUSH1 0x22 PUSH1 0x4 MSTORE PUSH1 0x24 DUP5 REVERT JUMPDEST SWAP1 PUSH1 0x7F AND SWAP1 PUSH3 0x1C6 JUMP JUMPDEST PUSH4 0x4E487B71 PUSH1 0xE0 SHL DUP4 MSTORE PUSH1 0x41 PUSH1 0x4 MSTORE PUSH1 0x24 DUP4 REVERT JUMPDEST PUSH1 0x40 MLOAD PUSH4 0x1E4FBDF7 PUSH1 0xE0 SHL DUP2 MSTORE PUSH1 0x4 DUP2 ADD DUP4 SWAP1 MSTORE PUSH1 0x24 SWAP1 REVERT JUMPDEST ADD MLOAD SWAP1 POP CODESIZE DUP1 PUSH3 0x14D JUMP JUMPDEST DUP9 DUP7 MSTORE DUP11 DUP7 KECCAK256 DUP10 SWAP5 POP SWAP2 SWAP1 PUSH1 0x1F NOT DUP5 AND DUP8 JUMPDEST DUP14 DUP3 DUP3 LT PUSH3 0x4F1 JUMPI POP POP DUP5 GT PUSH3 0x4D7 JUMPI JUMPDEST POP POP POP DUP2 SHL ADD DUP6 SSTORE PUSH3 0x161 JUMP JUMPDEST ADD MLOAD PUSH1 0x0 NOT PUSH1 0xF8 DUP5 PUSH1 0x3 SHL AND SHR NOT AND SWAP1 SSTORE CODESIZE DUP1 DUP1 PUSH3 0x4C9 JUMP JUMPDEST DUP4 DUP6 ADD MLOAD DUP7 SSTORE DUP13 SWAP8 SWAP1 SWAP6 ADD SWAP5 SWAP4 DUP5 ADD SWAP4 ADD PUSH3 0x4B6 JUMP JUMPDEST SWAP1 SWAP2 POP DUP8 DUP6 MSTORE DUP10 DUP6 KECCAK256 DUP8 DUP1 DUP6 ADD PUSH1 0x5 SHR DUP3 ADD SWAP3 DUP13 DUP7 LT PUSH3 0x551 JUMPI JUMPDEST SWAP2 DUP11 SWAP2 DUP7 SWAP6 SWAP5 SWAP4 ADD PUSH1 0x5 SHR ADD SWAP2 JUMPDEST DUP3 DUP2 LT PUSH3 0x542 JUMPI POP POP PUSH3 0x137 JUMP JUMPDEST DUP8 DUP2 SSTORE DUP6 SWAP5 POP DUP11 SWAP2 ADD PUSH3 0x532 JUMP JUMPDEST SWAP3 POP DUP2 SWAP3 PUSH3 0x524 JUMP JUMPDEST PUSH4 0x4E487B71 PUSH1 0xE0 SHL DUP6 MSTORE PUSH1 0x22 PUSH1 0x4 MSTORE PUSH1 0x24 DUP6 REVERT JUMPDEST SWAP1 PUSH1 0x7F AND SWAP1 PUSH3 0x122 JUMP JUMPDEST PUSH4 0x4E487B71 PUSH1 0xE0 SHL DUP5 MSTORE PUSH1 0x41 PUSH1 0x4 MSTORE PUSH1 0x24 DUP5 REVERT JUMPDEST ADD MLOAD SWAP1 POP CODESIZE DUP1 PUSH3 0xF3 JUMP JUMPDEST DUP7 DUP1 MSTORE DUP12 DUP8 KECCAK256 DUP11 SWAP5 POP SWAP2 SWAP1 PUSH1 0x1F NOT DUP5 AND DUP9 DUP15 JUMPDEST DUP3 DUP3 LT PUSH3 0x5E7 JUMPI POP POP DUP5 GT PUSH3 0x5CD JUMPI JUMPDEST POP POP POP DUP2 SHL ADD DUP4 SSTORE PUSH3 0x107 JUMP JUMPDEST ADD MLOAD PUSH1 0x0 NOT PUSH1 0xF8 DUP5 PUSH1 0x3 SHL AND SHR NOT AND SWAP1 SSTORE CODESIZE DUP1 DUP1 PUSH3 0x5BF JUMP JUMPDEST DUP4 DUP6 ADD MLOAD DUP7 SSTORE DUP14 SWAP8 SWAP1 SWAP6 ADD SWAP5 SWAP4 DUP5 ADD SWAP4 ADD DUP15 PUSH3 0x5AD JUMP JUMPDEST SWAP1 SWAP2 POP DUP6 DUP1 MSTORE DUP11 DUP7 KECCAK256 DUP9 DUP1 DUP6 ADD PUSH1 0x5 SHR DUP3 ADD SWAP3 DUP14 DUP7 LT PUSH3 0x648 JUMPI JUMPDEST SWAP2 DUP12 SWAP2 DUP7 SWAP6 SWAP5 SWAP4 ADD PUSH1 0x5 SHR ADD SWAP2 JUMPDEST DUP3 DUP2 LT PUSH3 0x639 JUMPI POP POP PUSH3 0xDD JUMP JUMPDEST DUP9 DUP2 SSTORE DUP6 SWAP5 POP DUP12 SWAP2 ADD PUSH3 0x629 JUMP JUMPDEST SWAP3 POP DUP2 SWAP3 PUSH3 0x61B JUMP JUMPDEST SWAP7 PUSH1 0x7F AND SWAP7 PUSH3 0xC6 JUMP JUMPDEST PUSH4 0x4E487B71 PUSH1 0xE0 SHL PUSH1 0x0 MSTORE PUSH1 0x41 PUSH1 0x4 MSTORE PUSH1 0x24 PUSH1 0x0 REVERT JUMPDEST PUSH1 0x0 DUP1 REVERT JUMPDEST PUSH1 0x40 MLOAD SWAP2 SWAP1 PUSH1 0x1F ADD PUSH1 0x1F NOT AND DUP3 ADD PUSH1 0x1 PUSH1 0x1 PUSH1 0x40 SHL SUB DUP2 GT DUP4 DUP3 LT OR PUSH3 0x65D JUMPI PUSH1 0x40 MSTORE JUMP JUMPDEST SWAP2 SWAP1 DUP1 PUSH1 0x1F DUP5 ADD SLT ISZERO PUSH3 0x673 JUMPI DUP3 MLOAD PUSH1 0x1 PUSH1 0x1 PUSH1 0x40 SHL SUB DUP2 GT PUSH3 0x65D JUMPI PUSH1 0x20 SWAP1 PUSH3 0x6D4 PUSH1 0x1F DUP3 ADD PUSH1 0x1F NOT AND DUP4 ADD PUSH3 0x678 JUMP JUMPDEST SWAP3 DUP2 DUP5 MSTORE DUP3 DUP3 DUP8 ADD ADD GT PUSH3 0x673 JUMPI PUSH1 0x0 JUMPDEST DUP2 DUP2 LT PUSH3 0x6FC JUMPI POP DUP3 PUSH1 0x0 SWAP4 SWAP5 SWAP6 POP ADD ADD MSTORE SWAP1 JUMP JUMPDEST DUP6 DUP2 ADD DUP4 ADD MLOAD DUP5 DUP3 ADD DUP5 ADD MSTORE DUP3 ADD PUSH3 0x6E6 JUMP JUMPDEST PUSH1 0x1 PUSH1 0x1 PUSH1 0xA0 SHL SUB AND PUSH1 0x0 DUP2 DUP2 MSTORE PUSH32 0x6D5257204EBE7D88FD91AE87941CB2DD9D8062B64AE5A2BD2D28EC40B9FBF6DF PUSH1 0x20 MSTORE PUSH1 0x40 DUP2 KECCAK256 SLOAD SWAP1 SWAP2 SWAP1 PUSH1 0xFF AND PUSH3 0x78D JUMPI DUP2 DUP1 MSTORE PUSH1 0x7 PUSH1 0x20 MSTORE PUSH1 0x40 DUP3 KECCAK256 DUP2 DUP4 MSTORE PUSH1 0x20 MSTORE PUSH1 0x40 DUP3 KECCAK256 PUSH1 0x1 PUSH1 0xFF NOT DUP3 SLOAD AND OR SWAP1 SSTORE CALLER SWAP2 PUSH1 0x0 DUP1 MLOAD PUSH1 0x20 PUSH3 0x5C3B DUP4 CODECOPY DUP2 MLOAD SWAP2 MSTORE DUP2 DUP1 LOG4 PUSH1 0x1 SWAP1 JUMP JUMPDEST POP SWAP1 JUMP JUMPDEST PUSH1 0x1 PUSH1 0x1 PUSH1 0xA0 SHL SUB AND PUSH1 0x0 DUP2 DUP2 MSTORE PUSH32 0x62300FA0D10E1485F04EAF244F7DFE6CCEAE92C0C8F7C6AC4E3941192164C955 PUSH1 0x20 MSTORE PUSH1 0x40 DUP2 KECCAK256 SLOAD SWAP1 SWAP2 SWAP1 PUSH32 0x4A3F8703C45F1A8B52B849456EBD7814F31F6CDEDEF35BA4EFF995E62E5C7623 SWAP1 PUSH1 0xFF AND PUSH3 0x82F JUMPI DUP1 DUP4 MSTORE PUSH1 0x7 PUSH1 0x20 MSTORE PUSH1 0x40 DUP4 KECCAK256 DUP3 DUP5 MSTORE PUSH1 0x20 MSTORE PUSH1 0x40 DUP4 KECCAK256 PUSH1 0x1 PUSH1 0xFF NOT DUP3 SLOAD AND OR SWAP1 SSTORE PUSH1 0x0 DUP1 MLOAD PUSH1 0x20 PUSH3 0x5C3B DUP4 CODECOPY DUP2 MLOAD SWAP2 MSTORE CALLER SWAP4 DUP1 LOG4 PUSH1 0x1 SWAP1 JUMP JUMPDEST POP POP SWAP1 JUMP JUMPDEST PUSH1 0x1 PUSH1 0x1 PUSH1 0xA0 SHL SUB AND PUSH1 0x0 DUP2 DUP2 MSTORE PUSH32 0xADF80B37E8C1562BFDC011CF13673C8B9DE9D2597C3DC32CB9B626FDCB0ACEE2 PUSH1 0x20 MSTORE PUSH1 0x40 DUP2 KECCAK256 SLOAD SWAP1 SWAP2 SWAP1 PUSH32 0x8524DA473FC5E5A86A958A576DD0A57FFA409EBFB83259B3DBA9D5B494A02172 SWAP1 PUSH1 0xFF AND PUSH3 0x82F JUMPI DUP1 DUP4 MSTORE PUSH1 0x7 PUSH1 0x20 MSTORE PUSH1 0x40 DUP4 KECCAK256 DUP3 DUP5 MSTORE PUSH1 0x20 MSTORE PUSH1 0x40 DUP4 KECCAK256 PUSH1 0x1 PUSH1 0xFF NOT DUP3 SLOAD AND OR SWAP1 SSTORE PUSH1 0x0 DUP1 MLOAD PUSH1 0x20 PUSH3 0x5C3B DUP4 CODECOPY DUP2 MLOAD SWAP2 MSTORE CALLER SWAP4 DUP1 LOG4 PUSH1 0x1 SWAP1 JUMP INVALID PUSH1 0xA0 DUP1 PUSH1 0x40 MSTORE PUSH1 0x4 CALLDATASIZE LT ISZERO PUSH2 0x13 JUMPI PUSH1 0x0 DUP1 REVERT JUMPDEST PUSH1 0x0 CALLDATALOAD PUSH1 0xE0 SHR SWAP1 DUP2 PUSH4 0x1FFC9A7 EQ PUSH2 0x34F3 JUMPI POP DUP1 PUSH4 0x200924C EQ PUSH2 0x32D6 JUMPI DUP1 PUSH4 0x57E709C EQ PUSH2 0x1019 JUMPI DUP1 PUSH4 0x6FDDE03 EQ PUSH2 0x3233 JUMPI DUP1 PUSH4 0x81812FC EQ PUSH2 0x31F5 JUMPI DUP1 PUSH4 0x95EA7B3 EQ PUSH2 0x310E JUMPI DUP1 PUSH4 0x1285A327 EQ PUSH2 0x10F2 JUMPI DUP1 PUSH4 0x136D8883 EQ PUSH2 0x2FA0 JUMPI DUP1 PUSH4 0x186C211D EQ PUSH2 0x2F02 JUMPI DUP1 PUSH4 0x18895A58 EQ PUSH2 0x2D1B JUMPI DUP1 PUSH4 0x1D817645 EQ PUSH2 0x2CEF JUMPI DUP1 PUSH4 0x23B872DD EQ PUSH2 0x2CD8 JUMPI DUP1 PUSH4 0x248A9CA3 EQ PUSH2 0x2CA9 JUMPI DUP1 PUSH4 0x2F2FF15D EQ PUSH2 0x2C6A JUMPI DUP1 PUSH4 0x323602FA EQ PUSH2 0x2C4B JUMPI DUP1 PUSH4 0x33EAA7A0 EQ PUSH2 0x2C2E JUMPI DUP1 PUSH4 0x36568ABE EQ PUSH2 0x2BE7 JUMPI DUP1 PUSH4 0x3BCCE0ED EQ PUSH2 0x2B8A JUMPI DUP1 PUSH4 0x3F82E5E1 EQ PUSH2 0x2B5B JUMPI DUP1 PUSH4 0x42842E0E EQ PUSH2 0x2B33 JUMPI DUP1 PUSH4 0x46938654 EQ PUSH2 0x2556 JUMPI DUP1 PUSH4 0x53C2DE23 EQ PUSH2 0x244B JUMPI DUP1 PUSH4 0x55F804B3 EQ PUSH2 0x22D2 JUMPI DUP1 PUSH4 0x59206606 EQ PUSH2 0x1962 JUMPI DUP1 PUSH4 0x59EF88DD EQ PUSH2 0x1874 JUMPI DUP1 PUSH4 0x5F107779 EQ PUSH2 0x1839 JUMPI DUP1 PUSH4 0x6352211E EQ PUSH2 0x1809 JUMPI DUP1 PUSH4 0x63EB1DE6 EQ PUSH2 0x17EB JUMPI DUP1 PUSH4 0x64721755 EQ PUSH2 0x13B7 JUMPI DUP1 PUSH4 0x70A08231 EQ PUSH2 0x1792 JUMPI DUP1 PUSH4 0x715018A6 EQ PUSH2 0x1735 JUMPI DUP1 PUSH4 0x74C8D377 EQ PUSH2 0x1718 JUMPI DUP1 PUSH4 0x89D85503 EQ PUSH2 0x1411 JUMPI DUP1 PUSH4 0x8DA5CB5B EQ PUSH2 0x13E8 JUMPI DUP1 PUSH4 0x911EC470 EQ PUSH2 0x13B7 JUMPI DUP1 PUSH4 0x91D14854 EQ PUSH2 0x136A JUMPI DUP1 PUSH4 0x938E3D7B EQ PUSH2 0x11F1 JUMPI DUP1 PUSH4 0x95D89B41 EQ PUSH2 0x114E JUMPI DUP1 PUSH4 0x9691019A EQ PUSH2 0x10F2 JUMPI DUP1 PUSH4 0x9A5CDF29 EQ PUSH2 0x1035 JUMPI DUP1 PUSH4 0xA217FDDF EQ PUSH2 0x1019 JUMPI DUP1 PUSH4 0xA22CB465 EQ PUSH2 0xF6B JUMPI DUP1 PUSH4 0xA61F9837 EQ PUSH2 0xF4D JUMPI DUP1 PUSH4 0xAF24B07B EQ PUSH2 0xF13 JUMPI DUP1 PUSH4 0xB88D4FDE EQ PUSH2 0xEB4 JUMPI DUP1 PUSH4 0xC3A5E3C9 EQ PUSH2 0xE5A JUMPI DUP1 PUSH4 0xC87B56DD EQ PUSH2 0x513 JUMPI DUP1 PUSH4 0xC9A3C9B6 EQ PUSH2 0x4E2 JUMPI DUP1 PUSH4 0xD547741F EQ PUSH2 0x4A1 JUMPI DUP1 PUSH4 0xE8A3D485 EQ PUSH2 0x3BF JUMPI DUP1 PUSH4 0xE985E9C5 EQ PUSH2 0x369 JUMPI DUP1 PUSH4 0xF09AA997 EQ PUSH2 0x32E JUMPI DUP1 PUSH4 0xF106A40E EQ PUSH2 0x304 JUMPI PUSH4 0xF2FDE38B EQ PUSH2 0x271 JUMPI PUSH1 0x0 DUP1 REVERT JUMPDEST CALLVALUE PUSH2 0x2FF JUMPI PUSH1 0x20 CALLDATASIZE PUSH1 0x3 NOT ADD SLT PUSH2 0x2FF JUMPI PUSH2 0x28A PUSH2 0x35CD JUMP JUMPDEST PUSH2 0x292 PUSH2 0x3C15 JUMP JUMPDEST PUSH1 0x1 PUSH1 0x1 PUSH1 0xA0 SHL SUB SWAP1 DUP2 AND SWAP1 DUP2 ISZERO PUSH2 0x2E6 JUMPI PUSH1 0x6 SLOAD DUP3 PUSH12 0xFFFFFFFFFFFFFFFFFFFFFFFF PUSH1 0xA0 SHL DUP3 AND OR PUSH1 0x6 SSTORE AND PUSH32 0x8BE0079C531659141344CD1FD0A4F28419497F9722A3DAAFE3B4186F6B6457E0 PUSH1 0x0 DUP1 LOG3 STOP JUMPDEST PUSH1 0x40 MLOAD PUSH4 0x1E4FBDF7 PUSH1 0xE0 SHL DUP2 MSTORE PUSH1 0x0 PUSH1 0x4 DUP3 ADD MSTORE PUSH1 0x24 SWAP1 REVERT JUMPDEST PUSH1 0x0 DUP1 REVERT JUMPDEST CALLVALUE PUSH2 0x2FF JUMPI PUSH2 0x32A PUSH2 0x31E PUSH2 0x318 CALLDATASIZE PUSH2 0x3A1F JUMP JUMPDEST SWAP1 PUSH2 0x4E6A JUMP JUMPDEST PUSH1 0x40 MLOAD SWAP2 DUP3 SWAP2 DUP3 PUSH2 0x3720 JUMP JUMPDEST SUB SWAP1 RETURN JUMPDEST CALLVALUE PUSH2 0x2FF JUMPI PUSH1 0x0 CALLDATASIZE PUSH1 0x3 NOT ADD SLT PUSH2 0x2FF JUMPI PUSH1 0x20 PUSH1 0x40 MLOAD PUSH32 0x8524DA473FC5E5A86A958A576DD0A57FFA409EBFB83259B3DBA9D5B494A02172 DUP2 MSTORE RETURN JUMPDEST CALLVALUE PUSH2 0x2FF JUMPI PUSH1 0x40 CALLDATASIZE PUSH1 0x3 NOT ADD SLT PUSH2 0x2FF JUMPI PUSH2 0x382 PUSH2 0x35CD JUMP JUMPDEST PUSH2 0x38A PUSH2 0x35E3 JUMP JUMPDEST SWAP1 PUSH1 0x1 DUP1 PUSH1 0xA0 SHL SUB DUP1 SWAP2 AND PUSH1 0x0 MSTORE PUSH1 0x5 PUSH1 0x20 MSTORE PUSH1 0x40 PUSH1 0x0 KECCAK256 SWAP2 AND PUSH1 0x0 MSTORE PUSH1 0x20 MSTORE PUSH1 0x20 PUSH1 0xFF PUSH1 0x40 PUSH1 0x0 KECCAK256 SLOAD AND PUSH1 0x40 MLOAD SWAP1 ISZERO ISZERO DUP2 MSTORE RETURN JUMPDEST CALLVALUE PUSH2 0x2FF JUMPI PUSH1 0x0 CALLDATASIZE PUSH1 0x3 NOT ADD SLT PUSH2 0x2FF JUMPI PUSH1 0x40 MLOAD PUSH1 0x0 PUSH1 0xA SLOAD PUSH2 0x3E1 DUP2 PUSH2 0x393F JUMP JUMPDEST DUP1 DUP5 MSTORE SWAP1 PUSH1 0x1 SWAP1 DUP2 DUP2 AND SWAP1 DUP2 ISZERO PUSH2 0x47A JUMPI POP PUSH1 0x1 EQ PUSH2 0x41F JUMPI JUMPDEST PUSH2 0x32A DUP5 PUSH2 0x40B DUP2 DUP7 SUB DUP3 PUSH2 0x3682 JUMP JUMPDEST PUSH1 0x40 MLOAD SWAP2 DUP3 SWAP2 PUSH1 0x20 DUP4 MSTORE PUSH1 0x20 DUP4 ADD SWAP1 PUSH2 0x359B JUMP JUMPDEST PUSH1 0xA PUSH1 0x0 SWAP1 DUP2 MSTORE SWAP3 POP PUSH32 0xC65A7BB8D6351C1CF70C95A316CC6A92839C986682D98BC35F958F4883F9D2A8 JUMPDEST DUP3 DUP5 LT PUSH2 0x462 JUMPI POP POP POP DUP2 ADD PUSH1 0x20 ADD PUSH2 0x40B DUP3 PUSH2 0x3FB JUMP JUMPDEST DUP1 SLOAD PUSH1 0x20 DUP6 DUP8 ADD DUP2 ADD SWAP2 SWAP1 SWAP2 MSTORE SWAP1 SWAP4 ADD SWAP3 DUP2 ADD PUSH2 0x44A JUMP JUMPDEST PUSH1 0xFF NOT AND PUSH1 0x20 DUP1 DUP8 ADD SWAP2 SWAP1 SWAP2 MSTORE SWAP3 ISZERO ISZERO PUSH1 0x5 SHL DUP6 ADD SWAP1 SWAP3 ADD SWAP3 POP PUSH2 0x40B SWAP2 POP DUP4 SWAP1 POP PUSH2 0x3FB JUMP JUMPDEST CALLVALUE PUSH2 0x2FF JUMPI PUSH1 0x40 CALLDATASIZE PUSH1 0x3 NOT ADD SLT PUSH2 0x2FF JUMPI PUSH2 0x4E0 PUSH1 0x4 CALLDATALOAD PUSH2 0x4C0 PUSH2 0x35E3 JUMP JUMPDEST SWAP1 DUP1 PUSH1 0x0 MSTORE PUSH1 0x7 PUSH1 0x20 MSTORE PUSH2 0x4DB PUSH1 0x1 PUSH1 0x40 PUSH1 0x0 KECCAK256 ADD SLOAD PUSH2 0x3AF8 JUMP JUMPDEST PUSH2 0x3B9E JUMP JUMPDEST STOP JUMPDEST CALLVALUE PUSH2 0x2FF JUMPI PUSH1 0x20 CALLDATASIZE PUSH1 0x3 NOT ADD SLT PUSH2 0x2FF JUMPI PUSH1 0x4 CALLDATALOAD PUSH1 0x5 DUP2 LT ISZERO PUSH2 0x2FF JUMPI PUSH2 0x50A PUSH1 0x20 SWAP2 PUSH2 0x3A83 JUMP JUMPDEST SLOAD PUSH1 0x40 MLOAD SWAP1 DUP2 MSTORE RETURN JUMPDEST CALLVALUE PUSH2 0x2FF JUMPI PUSH1 0x20 CALLDATASIZE PUSH1 0x3 NOT ADD SLT PUSH2 0x2FF JUMPI PUSH1 0x4 CALLDATALOAD PUSH1 0x0 SWAP1 DUP2 MSTORE PUSH1 0x2 PUSH1 0x20 MSTORE PUSH1 0x40 SWAP1 KECCAK256 SLOAD PUSH2 0x54A SWAP1 PUSH1 0x1 PUSH1 0x1 PUSH1 0xA0 SHL SUB AND ISZERO ISZERO PUSH2 0x4DB1 JUMP JUMPDEST PUSH1 0x4 CALLDATALOAD PUSH1 0x0 MSTORE PUSH1 0xB PUSH1 0x20 MSTORE PUSH1 0x40 PUSH1 0x0 KECCAK256 PUSH1 0xA PUSH1 0x40 MLOAD SWAP2 PUSH2 0x569 DUP4 PUSH2 0x35F9 JUMP JUMPDEST PUSH2 0x572 DUP2 PUSH2 0x3979 JUMP JUMPDEST DUP4 MSTORE PUSH2 0x580 PUSH1 0x1 DUP3 ADD PUSH2 0x3979 JUMP JUMPDEST PUSH1 0x20 DUP5 ADD MSTORE PUSH2 0x591 PUSH1 0x2 DUP3 ADD PUSH2 0x3979 JUMP JUMPDEST PUSH1 0x40 DUP5 ADD MSTORE PUSH2 0x5A2 PUSH1 0x3 DUP3 ADD PUSH2 0x3979 JUMP JUMPDEST PUSH1 0x60 DUP5 ADD MSTORE PUSH1 0x4 DUP2 ADD SLOAD PUSH1 0x80 DUP5 ADD MSTORE PUSH2 0x5C5 PUSH1 0xFF PUSH1 0x5 DUP4 ADD SLOAD AND PUSH1 0xA0 DUP6 ADD PUSH2 0x404F JUMP JUMPDEST PUSH1 0x6 DUP2 ADD SLOAD PUSH1 0xC0 DUP5 ADD MSTORE PUSH1 0x7 DUP2 ADD SLOAD PUSH1 0xE0 DUP5 ADD MSTORE PUSH1 0xFF PUSH1 0x8 DUP3 ADD SLOAD DUP2 DUP2 AND ISZERO ISZERO PUSH2 0x100 DUP7 ADD MSTORE PUSH1 0x8 SHR AND ISZERO ISZERO PUSH2 0x120 DUP5 ADD MSTORE PUSH1 0x9 DUP2 ADD SLOAD PUSH2 0x140 DUP5 ADD MSTORE ADD SLOAD PUSH2 0x160 DUP3 ADD MSTORE PUSH1 0x4 CALLDATALOAD PUSH1 0x0 MSTORE PUSH1 0xD PUSH1 0x20 MSTORE PUSH1 0x40 PUSH1 0x0 KECCAK256 DUP1 SLOAD SWAP1 PUSH1 0x20 PUSH2 0x628 DUP4 PUSH2 0x38A8 JUMP JUMPDEST PUSH2 0x635 PUSH1 0x40 MLOAD SWAP2 DUP3 PUSH2 0x3682 JUMP JUMPDEST DUP4 DUP2 MSTORE ADD SWAP1 PUSH1 0x0 MSTORE PUSH1 0x20 PUSH1 0x0 KECCAK256 PUSH1 0x0 SWAP2 JUMPDEST DUP4 DUP4 LT PUSH2 0xDC9 JUMPI DUP5 PUSH1 0xA0 DUP2 ADD MLOAD PUSH1 0x5 DUP2 LT ISZERO PUSH2 0xDB3 JUMPI PUSH2 0x665 SWAP1 PUSH2 0x5252 JUMP JUMPDEST PUSH2 0x120 DUP3 ADD MLOAD ISZERO PUSH2 0xD82 JUMPI PUSH2 0x9F5 PUSH2 0x17C PUSH1 0x40 MLOAD PUSH2 0x682 DUP2 PUSH2 0x3667 JUMP JUMPDEST PUSH1 0x8 DUP2 MSTORE PUSH8 0x456C696769626C65 PUSH1 0xC0 SHL PUSH1 0x20 DUP3 ADD MSTORE SWAP3 JUMPDEST PUSH2 0x6A6 PUSH1 0x80 DUP7 ADD MLOAD PUSH2 0x50CD JUMP JUMPDEST PUSH1 0x40 DUP7 ADD MLOAD PUSH1 0x60 DUP8 ADD MLOAD SWAP1 PUSH2 0x6BF PUSH2 0x140 DUP10 ADD MLOAD PUSH2 0x50CD JUMP JUMPDEST SWAP4 PUSH2 0x6CE PUSH2 0x160 DUP11 ADD MLOAD PUSH2 0x50CD JUMP JUMPDEST PUSH2 0x100 DUP11 ADD MLOAD SWAP1 SWAP2 SWAP1 ISZERO PUSH2 0xD5B JUMPI PUSH1 0x40 MLOAD PUSH2 0x6E8 DUP2 PUSH2 0x3667 JUMP JUMPDEST PUSH1 0x6 DUP2 MSTORE PUSH6 0x416374697665 PUSH1 0xD0 SHL PUSH1 0x20 DUP3 ADD MSTORE SWAP6 JUMPDEST DUP11 MLOAD SWAP5 PUSH1 0x40 MLOAD SWAP11 DUP12 SWAP8 PUSH1 0x5B PUSH1 0xF8 SHL PUSH1 0x20 DUP11 ADD MSTORE PUSH32 0x7B2274726169745F74797065223A2254727573742053636F7265222C2276616C PUSH1 0x21 DUP11 ADD MSTORE PUSH4 0x3AB2911D PUSH1 0xE1 SHL PUSH1 0x41 DUP11 ADD MSTORE PUSH2 0x757 DUP2 MLOAD DUP1 SWAP3 PUSH1 0x20 PUSH1 0x45 DUP14 ADD SWAP2 ADD PUSH2 0x3578 JUMP JUMPDEST DUP9 ADD SWAP2 PUSH2 0x1F4B PUSH1 0xF2 SHL SWAP5 DUP4 DUP7 PUSH1 0x45 DUP2 SWAP7 ADD MSTORE PUSH32 0x7B2274726169745F74797065223A225472757374204C6576656C222C2276616C PUSH1 0x47 DUP3 ADD MSTORE PUSH5 0x3AB2911D11 PUSH1 0xD9 SHL PUSH1 0x67 DUP3 ADD MSTORE PUSH2 0x7B1 DUP3 MLOAD DUP1 SWAP4 PUSH1 0x20 PUSH1 0x6C DUP6 ADD SWAP2 ADD PUSH2 0x3578 JUMP JUMPDEST ADD SWAP7 PUSH3 0x89F4B PUSH1 0xEA SHL SWAP8 DUP9 PUSH1 0x6C DUP3 ADD MSTORE PUSH32 0x7B2274726169745F74797065223A22526F6C65222C2276616C7565223A220000 PUSH1 0x6F DUP3 ADD MSTORE PUSH2 0x7FB DUP3 MLOAD DUP1 SWAP4 PUSH1 0x20 PUSH1 0x8D DUP6 ADD SWAP2 ADD PUSH2 0x3578 JUMP JUMPDEST ADD DUP8 PUSH1 0x8D DUP3 ADD MSTORE PUSH32 0x7B2274726169745F74797065223A224F7267616E697A6174696F6E222C227661 PUSH1 0x90 DUP3 ADD MSTORE PUSH6 0x363AB2911D11 PUSH1 0xD1 SHL PUSH1 0xB0 DUP3 ADD MSTORE PUSH2 0x84B DUP3 MLOAD DUP1 SWAP4 PUSH1 0x20 PUSH1 0xB6 DUP6 ADD SWAP2 ADD PUSH2 0x3578 JUMP JUMPDEST ADD DUP7 PUSH1 0xB6 DUP3 ADD MSTORE PUSH32 0x7B2274726169745F74797065223A224E465420456C69676962696C697479222C PUSH1 0xB9 DUP3 ADD MSTORE PUSH9 0x113B30B63AB2911D11 PUSH1 0xB9 SHL PUSH1 0xD9 DUP3 ADD MSTORE PUSH2 0x89E DUP3 MLOAD DUP1 SWAP4 PUSH1 0x20 PUSH1 0xE2 DUP6 ADD SWAP2 ADD PUSH2 0x3578 JUMP JUMPDEST ADD DUP6 PUSH1 0xE2 DUP3 ADD MSTORE PUSH32 0x7B2274726169745F74797065223A22546F74616C205369676E616C73222C2276 PUSH1 0xE5 DUP3 ADD MSTORE PUSH6 0x30B63AB2911D PUSH1 0xD1 SHL PUSH2 0x105 DUP3 ADD MSTORE DUP3 MLOAD SWAP1 PUSH2 0x8F2 DUP3 PUSH2 0x10B SWAP6 PUSH1 0x20 DUP8 DUP6 ADD SWAP2 ADD PUSH2 0x3578 JUMP JUMPDEST ADD SWAP2 DUP3 ADD MSTORE PUSH32 0x7B2274726169745F74797065223A22416368696576656D656E7420436F756E74 PUSH2 0x10D DUP3 ADD MSTORE PUSH10 0x1116113B30B63AB2911D PUSH1 0xB1 SHL PUSH2 0x12D DUP3 ADD MSTORE DUP3 MLOAD SWAP1 PUSH2 0x949 DUP3 PUSH2 0x137 SWAP6 PUSH1 0x20 DUP8 DUP6 ADD SWAP2 ADD PUSH2 0x3578 JUMP JUMPDEST ADD SWAP2 DUP3 ADD MSTORE PUSH32 0x7B2274726169745F74797065223A22537461747573222C2276616C7565223A22 PUSH2 0x139 DUP3 ADD MSTORE DUP5 MLOAD SWAP1 PUSH2 0x98C DUP3 PUSH2 0x159 SWAP8 PUSH1 0x20 DUP10 DUP6 ADD SWAP2 ADD PUSH2 0x3578 JUMP JUMPDEST ADD SWAP4 DUP5 ADD MSTORE PUSH2 0x15C SWAP3 PUSH32 0x7B2274726169745F74797065223A22444944222C2276616C7565223A22000000 DUP5 DUP3 ADD MSTORE DUP2 MLOAD SWAP1 PUSH2 0x9D1 DUP3 PUSH2 0x179 SWAP5 PUSH1 0x20 DUP7 DUP6 ADD SWAP2 ADD PUSH2 0x3578 JUMP JUMPDEST PUSH2 0x227D PUSH1 0xF0 SHL SWAP2 ADD SWAP2 DUP3 ADD MSTORE PUSH1 0x5D PUSH1 0xF8 SHL PUSH2 0x17B DUP3 ADD MSTORE SUB SWAP1 DUP2 ADD DUP5 MSTORE ADD DUP3 PUSH2 0x3682 JUMP JUMPDEST PUSH1 0x20 DUP3 ADD MLOAD PUSH2 0xA0C PUSH1 0x80 PUSH1 0x40 DUP6 ADD MLOAD SWAP5 ADD MLOAD PUSH2 0x50CD JUMP JUMPDEST PUSH2 0xA17 PUSH1 0x4 CALLDATALOAD PUSH2 0x50CD JUMP JUMPDEST SWAP1 PUSH2 0xA23 PUSH1 0x4 CALLDATALOAD PUSH2 0x50CD JUMP JUMPDEST SWAP2 PUSH1 0x40 MLOAD SWAP6 DUP7 SWAP5 PUSH1 0x7B PUSH1 0xF8 SHL PUSH1 0x20 DUP8 ADD MSTORE PUSH8 0x113730B6B2911D11 PUSH1 0xC1 SHL PUSH1 0x21 DUP8 ADD MSTORE PUSH2 0xA59 DUP2 MLOAD DUP1 SWAP3 PUSH1 0x20 PUSH1 0x29 DUP11 ADD SWAP2 ADD PUSH2 0x3578 JUMP JUMPDEST DUP6 ADD PUSH2 0x88B PUSH1 0xF2 SHL PUSH1 0x29 DUP3 ADD MSTORE PUSH32 0x226465736372697074696F6E223A2253434B20526F6C65204167656E743A2000 PUSH1 0x2B DUP3 ADD MSTORE PUSH2 0xAA0 DUP3 MLOAD DUP1 SWAP4 PUSH1 0x20 PUSH1 0x4A DUP6 ADD SWAP2 ADD PUSH2 0x3578 JUMP JUMPDEST ADD PUSH18 0x103BB4BA34103A393AB9BA1039B1B7B9329 PUSH1 0x75 SHL PUSH1 0x4A DUP3 ADD MSTORE PUSH2 0xAD0 DUP4 MLOAD DUP1 SWAP5 PUSH1 0x20 PUSH1 0x5C DUP6 ADD SWAP2 ADD PUSH2 0x3578 JUMP JUMPDEST PUSH7 0xBCC4C0C0C088B PUSH1 0xCA SHL PUSH1 0x5C DUP5 DUP4 ADD ADD MSTORE PUSH9 0x1134B6B0B3B2911D11 PUSH1 0xB9 SHL PUSH1 0x63 DUP5 DUP4 ADD ADD MSTORE PUSH1 0x0 SWAP3 PUSH1 0x9 SLOAD SWAP2 PUSH2 0xB06 DUP4 PUSH2 0x393F JUMP JUMPDEST SWAP3 PUSH1 0x1 DUP2 AND SWAP1 DUP2 ISZERO PUSH2 0xD34 JUMPI POP PUSH1 0x1 EQ PUSH2 0xCCF JUMPI JUMPDEST POP POP POP SWAP2 PUSH1 0x20 DUP3 PUSH2 0xB39 DUP6 PUSH2 0xBEC SWAP9 SWAP6 PUSH1 0x4A SWAP9 SWAP8 MLOAD SWAP5 DUP6 SWAP3 ADD PUSH2 0x3578 JUMP JUMPDEST ADD PUSH6 0xB9C1B99C88B PUSH1 0xD2 SHL DUP2 MSTORE PUSH32 0x2265787465726E616C5F75726C223A2268747470733A2F2F736563757265636F PUSH1 0x6 DUP3 ADD MSTORE PUSH20 0x64656B6E696768742E636F6D2F6167656E74732F PUSH1 0x60 SHL PUSH1 0x26 DUP3 ADD MSTORE PUSH2 0xB9D DUP3 MLOAD DUP1 SWAP4 PUSH1 0x20 PUSH1 0x3A DUP6 ADD SWAP2 ADD PUSH2 0x3578 JUMP JUMPDEST ADD PUSH2 0x88B PUSH1 0xF2 SHL PUSH1 0x3A DUP3 ADD MSTORE PUSH13 0x1130BA3A3934B13ABA32B9911D PUSH1 0x99 SHL PUSH1 0x3C DUP3 ADD MSTORE PUSH2 0xBD3 DUP3 MLOAD DUP1 SWAP4 PUSH1 0x20 PUSH1 0x49 DUP6 ADD SWAP2 ADD PUSH2 0x3578 JUMP JUMPDEST ADD PUSH1 0x7D PUSH1 0xF8 SHL PUSH1 0x49 DUP3 ADD MSTORE SUB PUSH1 0x2A DUP2 ADD DUP5 MSTORE ADD DUP3 PUSH2 0x3682 JUMP JUMPDEST PUSH1 0x40 MLOAD PUSH1 0x60 DUP2 ADD SWAP1 DUP1 DUP3 LT PUSH1 0x1 PUSH1 0x1 PUSH1 0x40 SHL SUB DUP4 GT OR PUSH2 0xCB9 JUMPI PUSH2 0x32A SWAP3 PUSH2 0xC66 SWAP3 PUSH1 0x40 MSTORE PUSH1 0x40 DUP3 MSTORE PUSH32 0x4142434445464748494A4B4C4D4E4F505152535455565758595A616263646566 PUSH1 0x20 DUP4 ADD MSTORE PUSH32 0x6768696A6B6C6D6E6F707172737475767778797A303132333435363738392B2F PUSH1 0x40 DUP4 ADD MSTORE PUSH2 0x4FD5 JUMP JUMPDEST PUSH2 0x40B PUSH1 0x3D PUSH1 0x40 MLOAD DUP1 SWAP4 PUSH32 0x646174613A6170706C69636174696F6E2F6A736F6E3B6261736536342C000000 PUSH1 0x20 DUP4 ADD MSTORE PUSH2 0xCA9 DUP2 MLOAD DUP1 SWAP3 PUSH1 0x20 DUP7 DUP7 ADD SWAP2 ADD PUSH2 0x3578 JUMP JUMPDEST DUP2 ADD SUB PUSH1 0x1D DUP2 ADD DUP5 MSTORE ADD DUP3 PUSH2 0x3682 JUMP JUMPDEST PUSH4 0x4E487B71 PUSH1 0xE0 SHL PUSH1 0x0 MSTORE PUSH1 0x41 PUSH1 0x4 MSTORE PUSH1 0x24 PUSH1 0x0 REVERT JUMPDEST SWAP1 SWAP2 SWAP3 SWAP4 POP PUSH1 0x9 PUSH1 0x0 MSTORE PUSH32 0x6E1540171B6C0C960B71A7020D9F60077F6AF931A8BBF590DA0223DACF75C7AF PUSH1 0x0 SWAP1 JUMPDEST DUP5 DUP3 LT PUSH2 0xD18 JUMPI POP POP ADD ADD PUSH1 0x6C ADD SWAP1 PUSH1 0x20 DUP2 PUSH2 0xB39 PUSH2 0xB1B JUMP JUMPDEST DUP1 SLOAD PUSH1 0x6C DUP5 DUP7 ADD DUP5 ADD ADD MSTORE DUP10 SWAP8 POP PUSH1 0x20 SWAP1 SWAP2 ADD SWAP1 PUSH1 0x1 ADD PUSH2 0xCFE JUMP JUMPDEST PUSH1 0xFF NOT AND PUSH1 0x6C SWAP3 SWAP1 SWAP4 ADD DUP3 DUP2 ADD SWAP4 SWAP1 SWAP4 MSTORE POP DUP3 ISZERO ISZERO SWAP1 SWAP3 MUL ADD ADD SWAP2 POP PUSH1 0x20 DUP2 PUSH2 0xB39 PUSH2 0xB1B JUMP JUMPDEST PUSH1 0x40 MLOAD PUSH2 0xD67 DUP2 PUSH2 0x3667 JUMP JUMPDEST PUSH1 0x8 DUP2 MSTORE PUSH8 0x496E616374697665 PUSH1 0xC0 SHL PUSH1 0x20 DUP3 ADD MSTORE SWAP6 PUSH2 0x6FD JUMP JUMPDEST PUSH2 0x9F5 PUSH2 0x17C PUSH1 0x40 MLOAD PUSH2 0xD94 DUP2 PUSH2 0x3667 JUMP JUMPDEST PUSH1 0xC DUP2 MSTORE PUSH12 0x4E6F7420456C696769626C65 PUSH1 0xA0 SHL PUSH1 0x20 DUP3 ADD MSTORE SWAP3 PUSH2 0x699 JUMP JUMPDEST PUSH4 0x4E487B71 PUSH1 0xE0 SHL PUSH1 0x0 MSTORE PUSH1 0x21 PUSH1 0x4 MSTORE PUSH1 0x24 PUSH1 0x0 REVERT JUMPDEST PUSH1 0x8 PUSH1 0x20 PUSH1 0x1 SWAP3 PUSH1 0x40 MLOAD PUSH2 0xDDC DUP2 PUSH2 0x3615 JUMP JUMPDEST PUSH2 0xDE5 DUP7 PUSH2 0x3979 JUMP JUMPDEST DUP2 MSTORE PUSH2 0xDF2 DUP6 DUP8 ADD PUSH2 0x3979 JUMP JUMPDEST DUP4 DUP3 ADD MSTORE PUSH2 0xE02 PUSH1 0x2 DUP8 ADD PUSH2 0x3979 JUMP JUMPDEST PUSH1 0x40 DUP3 ADD MSTORE PUSH2 0xE13 PUSH1 0x3 DUP8 ADD PUSH2 0x3979 JUMP JUMPDEST PUSH1 0x60 DUP3 ADD MSTORE PUSH1 0x4 DUP7 ADD SLOAD PUSH1 0x80 DUP3 ADD MSTORE PUSH1 0x5 DUP7 ADD SLOAD PUSH1 0xA0 DUP3 ADD MSTORE PUSH1 0xFF PUSH1 0x6 DUP8 ADD SLOAD AND ISZERO ISZERO PUSH1 0xC0 DUP3 ADD MSTORE PUSH2 0xE47 PUSH1 0x7 DUP8 ADD PUSH2 0x3979 JUMP JUMPDEST PUSH1 0xE0 DUP3 ADD MSTORE DUP2 MSTORE ADD SWAP3 ADD SWAP3 ADD SWAP2 SWAP1 PUSH2 0x646 JUMP JUMPDEST CALLVALUE PUSH2 0x2FF JUMPI PUSH1 0x20 CALLDATASIZE PUSH1 0x3 NOT ADD SLT PUSH2 0x2FF JUMPI PUSH1 0x4 CALLDATALOAD PUSH2 0xE76 PUSH2 0x3C15 JUMP JUMPDEST PUSH1 0x0 DUP2 DUP2 MSTORE PUSH1 0x2 PUSH1 0x20 MSTORE PUSH1 0x40 SWAP1 KECCAK256 SLOAD PUSH2 0xE99 SWAP1 PUSH1 0x1 PUSH1 0x1 PUSH1 0xA0 SHL SUB AND ISZERO ISZERO PUSH2 0x4DB1 JUMP JUMPDEST PUSH1 0x0 SWAP1 DUP2 MSTORE PUSH1 0xB PUSH1 0x20 MSTORE PUSH1 0x40 SWAP1 KECCAK256 PUSH1 0x8 ADD DUP1 SLOAD PUSH1 0xFF NOT AND SWAP1 SSTORE STOP JUMPDEST CALLVALUE PUSH2 0x2FF JUMPI PUSH1 0x80 CALLDATASIZE PUSH1 0x3 NOT ADD SLT PUSH2 0x2FF JUMPI PUSH2 0xECD PUSH2 0x35CD JUMP JUMPDEST PUSH2 0xED5 PUSH2 0x35E3 JUMP JUMPDEST PUSH1 0x64 CALLDATALOAD SWAP2 PUSH1 0x1 PUSH1 0x1 PUSH1 0x40 SHL SUB DUP4 GT PUSH2 0x2FF JUMPI CALLDATASIZE PUSH1 0x23 DUP5 ADD SLT ISZERO PUSH2 0x2FF JUMPI PUSH2 0xF09 PUSH2 0x4E0 SWAP4 CALLDATASIZE SWAP1 PUSH1 0x24 DUP2 PUSH1 0x4 ADD CALLDATALOAD SWAP2 ADD PUSH2 0x36BE JUMP JUMPDEST SWAP2 PUSH1 0x44 CALLDATALOAD SWAP2 PUSH2 0x3E9A JUMP JUMPDEST CALLVALUE PUSH2 0x2FF JUMPI PUSH1 0x20 CALLDATASIZE PUSH1 0x3 NOT ADD SLT PUSH2 0x2FF JUMPI PUSH1 0x1 PUSH1 0x1 PUSH1 0xA0 SHL SUB PUSH2 0xF34 PUSH2 0x35CD JUMP JUMPDEST AND PUSH1 0x0 MSTORE PUSH1 0x11 PUSH1 0x20 MSTORE PUSH1 0x20 PUSH1 0x40 PUSH1 0x0 KECCAK256 SLOAD PUSH1 0x40 MLOAD SWAP1 DUP2 MSTORE RETURN JUMPDEST CALLVALUE PUSH2 0x2FF JUMPI PUSH1 0x0 CALLDATASIZE PUSH1 0x3 NOT ADD SLT PUSH2 0x2FF JUMPI PUSH1 0x20 PUSH1 0x13 SLOAD PUSH1 0x40 MLOAD SWAP1 DUP2 MSTORE RETURN JUMPDEST CALLVALUE PUSH2 0x2FF JUMPI PUSH1 0x40 CALLDATASIZE PUSH1 0x3 NOT ADD SLT PUSH2 0x2FF JUMPI PUSH2 0xF84 PUSH2 0x35CD JUMP JUMPDEST PUSH1 0x24 CALLDATALOAD SWAP1 DUP2 ISZERO ISZERO SWAP1 DUP2 DUP4 SUB PUSH2 0x2FF JUMPI PUSH1 0x1 PUSH1 0x1 PUSH1 0xA0 SHL SUB AND SWAP2 DUP3 ISZERO PUSH2 0x1000 JUMPI PUSH2 0xFD2 SWAP1 CALLER PUSH1 0x0 MSTORE PUSH1 0x5 PUSH1 0x20 MSTORE PUSH1 0x40 PUSH1 0x0 KECCAK256 DUP5 PUSH1 0x0 MSTORE PUSH1 0x20 MSTORE PUSH1 0x40 PUSH1 0x0 KECCAK256 SWAP1 PUSH1 0xFF DUP1 NOT DUP4 SLOAD AND SWAP2 ISZERO ISZERO AND OR SWAP1 SSTORE JUMP JUMPDEST PUSH1 0x40 MLOAD SWAP1 DUP2 MSTORE PUSH32 0x17307EAB39AB6107E8899845AD3D59BD9653F200F220920489CA2B5937696C31 PUSH1 0x20 CALLER SWAP3 LOG3 STOP JUMPDEST PUSH1 0x40 MLOAD PUSH4 0xB611743 PUSH1 0xE3 SHL DUP2 MSTORE PUSH1 0x4 DUP2 ADD DUP5 SWAP1 MSTORE PUSH1 0x24 SWAP1 REVERT JUMPDEST CALLVALUE PUSH2 0x2FF JUMPI PUSH1 0x0 CALLDATASIZE PUSH1 0x3 NOT ADD SLT PUSH2 0x2FF JUMPI PUSH1 0x20 PUSH1 0x40 MLOAD PUSH1 0x0 DUP2 MSTORE RETURN JUMPDEST CALLVALUE PUSH2 0x2FF JUMPI PUSH2 0x1043 CALLDATASIZE PUSH2 0x3A1F JUMP JUMPDEST SWAP1 PUSH1 0x0 MSTORE PUSH1 0xC PUSH1 0x20 MSTORE PUSH1 0x40 PUSH1 0x0 KECCAK256 DUP1 SLOAD DUP3 LT ISZERO PUSH2 0x2FF JUMPI PUSH2 0x10AB SWAP2 PUSH2 0x1067 SWAP2 PUSH2 0x3A67 JUMP JUMPDEST POP PUSH1 0xFF DUP2 SLOAD AND SWAP1 PUSH1 0xFF PUSH1 0x1 DUP3 ADD SLOAD PUSH2 0x10CF PUSH2 0x1084 PUSH1 0x2 DUP6 ADD PUSH2 0x3979 JUMP JUMPDEST PUSH2 0x10C1 PUSH2 0x1093 PUSH1 0x3 DUP8 ADD PUSH2 0x3979 JUMP JUMPDEST SWAP2 PUSH1 0x5 PUSH1 0x4 DUP9 ADD SLOAD SWAP8 ADD SLOAD SWAP5 PUSH1 0x40 MLOAD SWAP10 DUP11 DUP1 SWAP11 PUSH2 0x3713 JUMP JUMPDEST PUSH1 0x20 DUP10 ADD MSTORE PUSH1 0xE0 PUSH1 0x40 DUP10 ADD MSTORE PUSH1 0xE0 DUP9 ADD SWAP1 PUSH2 0x359B JUMP JUMPDEST SWAP1 DUP7 DUP3 SUB PUSH1 0x60 DUP9 ADD MSTORE PUSH2 0x359B JUMP JUMPDEST SWAP3 PUSH1 0x80 DUP6 ADD MSTORE PUSH1 0x1 DUP1 PUSH1 0xA0 SHL SUB DUP2 AND PUSH1 0xA0 DUP6 ADD MSTORE PUSH1 0xA0 SHR AND ISZERO ISZERO PUSH1 0xC0 DUP4 ADD MSTORE SUB SWAP1 RETURN JUMPDEST CALLVALUE PUSH2 0x2FF JUMPI PUSH1 0x20 CALLDATASIZE PUSH1 0x3 NOT ADD SLT PUSH2 0x2FF JUMPI PUSH1 0x4 CALLDATALOAD PUSH1 0x1 PUSH1 0x1 PUSH1 0x40 SHL SUB DUP2 GT PUSH2 0x2FF JUMPI PUSH2 0x113B PUSH1 0x20 PUSH2 0x1128 DUP2 SWAP4 CALLDATASIZE SWAP1 PUSH1 0x4 ADD PUSH2 0x36F5 JUMP JUMPDEST DUP2 PUSH1 0x40 MLOAD SWAP4 DUP3 DUP6 DUP1 SWAP5 MLOAD SWAP4 DUP5 SWAP3 ADD PUSH2 0x3578 JUMP JUMPDEST DUP2 ADD PUSH1 0xE DUP2 MSTORE SUB ADD SWAP1 KECCAK256 SLOAD PUSH1 0x40 MLOAD SWAP1 DUP2 MSTORE RETURN JUMPDEST CALLVALUE PUSH2 0x2FF JUMPI PUSH1 0x0 CALLDATASIZE PUSH1 0x3 NOT ADD SLT PUSH2 0x2FF JUMPI PUSH1 0x40 MLOAD PUSH1 0x0 PUSH1 0x1 DUP1 SLOAD SWAP1 PUSH2 0x1172 DUP3 PUSH2 0x393F JUMP JUMPDEST DUP1 DUP6 MSTORE SWAP2 DUP2 DUP2 AND SWAP1 DUP2 ISZERO PUSH2 0x47A JUMPI POP PUSH1 0x1 EQ PUSH2 0x1198 JUMPI PUSH2 0x32A DUP5 PUSH2 0x40B DUP2 DUP7 SUB DUP3 PUSH2 0x3682 JUMP JUMPDEST PUSH1 0x0 DUP2 DUP2 MSTORE SWAP3 POP PUSH32 0xB10E2D527612073B26EECDFD717E6A320CF44B4AFAC2B0732D9FCBE2B7FA0CF6 JUMPDEST DUP3 DUP5 LT PUSH2 0x11D9 JUMPI POP POP POP DUP2 ADD PUSH1 0x20 ADD PUSH2 0x40B DUP3 PUSH2 0x3FB JUMP JUMPDEST DUP1 SLOAD PUSH1 0x20 DUP6 DUP8 ADD DUP2 ADD SWAP2 SWAP1 SWAP2 MSTORE SWAP1 SWAP4 ADD SWAP3 DUP2 ADD PUSH2 0x11C1 JUMP JUMPDEST CALLVALUE PUSH2 0x2FF JUMPI PUSH1 0x20 DUP1 PUSH1 0x3 NOT CALLDATASIZE ADD SLT PUSH2 0x2FF JUMPI PUSH1 0x1 PUSH1 0x1 PUSH1 0x40 SHL SUB PUSH1 0x4 CALLDATALOAD DUP2 DUP2 GT PUSH2 0x2FF JUMPI PUSH2 0x1223 SWAP1 CALLDATASIZE SWAP1 PUSH1 0x4 ADD PUSH2 0x36F5 JUMP JUMPDEST SWAP2 PUSH2 0x122C PUSH2 0x3C15 JUMP JUMPDEST DUP3 MLOAD SWAP2 DUP3 GT PUSH2 0xCB9 JUMPI PUSH2 0x1240 PUSH1 0xA SLOAD PUSH2 0x393F JUMP JUMPDEST PUSH1 0x1F DUP2 GT PUSH2 0x1306 JUMPI JUMPDEST POP DUP1 PUSH1 0x1F DUP4 GT PUSH1 0x1 EQ PUSH2 0x1285 JUMPI POP DUP2 SWAP3 PUSH1 0x0 SWAP3 PUSH2 0x127A JUMPI JUMPDEST POP POP PUSH1 0x0 NOT PUSH1 0x3 DUP4 SWAP1 SHL SHR NOT AND PUSH1 0x1 SWAP2 SWAP1 SWAP2 SHL OR PUSH1 0xA SSTORE STOP JUMPDEST ADD MLOAD SWAP1 POP DUP3 DUP1 PUSH2 0x1261 JUMP JUMPDEST SWAP1 PUSH1 0x1F NOT DUP4 AND SWAP4 PUSH1 0xA PUSH1 0x0 MSTORE PUSH32 0xC65A7BB8D6351C1CF70C95A316CC6A92839C986682D98BC35F958F4883F9D2A8 SWAP3 PUSH1 0x0 SWAP1 JUMPDEST DUP7 DUP3 LT PUSH2 0x12EE JUMPI POP POP DUP4 PUSH1 0x1 SWAP6 LT PUSH2 0x12D5 JUMPI JUMPDEST POP POP POP DUP2 SHL ADD PUSH1 0xA SSTORE STOP JUMPDEST ADD MLOAD PUSH1 0x0 NOT PUSH1 0xF8 DUP5 PUSH1 0x3 SHL AND SHR NOT AND SWAP1 SSTORE DUP3 DUP1 DUP1 PUSH2 0x12CA JUMP JUMPDEST DUP1 PUSH1 0x1 DUP6 SWAP7 DUP3 SWAP5 SWAP7 DUP7 ADD MLOAD DUP2 SSTORE ADD SWAP6 ADD SWAP4 ADD SWAP1 PUSH2 0x12B7 JUMP JUMPDEST PUSH1 0xA PUSH1 0x0 MSTORE PUSH32 0xC65A7BB8D6351C1CF70C95A316CC6A92839C986682D98BC35F958F4883F9D2A8 PUSH1 0x1F DUP5 ADD PUSH1 0x5 SHR DUP2 ADD SWAP2 DUP4 DUP6 LT PUSH2 0x1360 JUMPI JUMPDEST PUSH1 0x1F ADD PUSH1 0x5 SHR ADD SWAP1 JUMPDEST DUP2 DUP2 LT PUSH2 0x1354 JUMPI POP PUSH2 0x1249 JUMP JUMPDEST PUSH1 0x0 DUP2 SSTORE PUSH1 0x1 ADD PUSH2 0x1347 JUMP JUMPDEST SWAP1 SWAP2 POP DUP2 SWAP1 PUSH2 0x133E JUMP JUMPDEST CALLVALUE PUSH2 0x2FF JUMPI PUSH1 0x40 CALLDATASIZE PUSH1 0x3 NOT ADD SLT PUSH2 0x2FF JUMPI PUSH2 0x1383 PUSH2 0x35E3 JUMP JUMPDEST PUSH1 0x4 CALLDATALOAD PUSH1 0x0 MSTORE PUSH1 0x7 PUSH1 0x20 MSTORE PUSH1 0x40 PUSH1 0x0 KECCAK256 SWAP1 PUSH1 0x1 DUP1 PUSH1 0xA0 SHL SUB AND PUSH1 0x0 MSTORE PUSH1 0x20 MSTORE PUSH1 0x20 PUSH1 0xFF PUSH1 0x40 PUSH1 0x0 KECCAK256 SLOAD AND PUSH1 0x40 MLOAD SWAP1 ISZERO ISZERO DUP2 MSTORE RETURN JUMPDEST CALLVALUE PUSH2 0x2FF JUMPI PUSH1 0x20 CALLDATASIZE PUSH1 0x3 NOT ADD SLT PUSH2 0x2FF JUMPI PUSH1 0x4 CALLDATALOAD PUSH1 0x0 MSTORE PUSH1 0xF PUSH1 0x20 MSTORE PUSH1 0x20 PUSH1 0xFF PUSH1 0x40 PUSH1 0x0 KECCAK256 SLOAD AND PUSH1 0x40 MLOAD SWAP1 ISZERO ISZERO DUP2 MSTORE RETURN JUMPDEST CALLVALUE PUSH2 0x2FF JUMPI PUSH1 0x0 CALLDATASIZE PUSH1 0x3 NOT ADD SLT PUSH2 0x2FF JUMPI PUSH1 0x6 SLOAD PUSH1 0x40 MLOAD PUSH1 0x1 PUSH1 0x1 PUSH1 0xA0 SHL SUB SWAP1 SWAP2 AND DUP2 MSTORE PUSH1 0x20 SWAP1 RETURN JUMPDEST CALLVALUE PUSH2 0x2FF JUMPI PUSH1 0xA0 CALLDATASIZE PUSH1 0x3 NOT ADD SLT PUSH2 0x2FF JUMPI PUSH1 0x4 CALLDATALOAD PUSH1 0x24 CALLDATALOAD PUSH1 0x7 DUP2 LT ISZERO PUSH2 0x2FF JUMPI PUSH1 0x44 CALLDATALOAD SWAP1 PUSH1 0x1 PUSH1 0x1 PUSH1 0x40 SHL SUB SWAP1 PUSH1 0x64 CALLDATALOAD DUP3 DUP2 GT PUSH2 0x2FF JUMPI PUSH2 0x1456 SWAP1 CALLDATASIZE SWAP1 PUSH1 0x4 ADD PUSH2 0x36F5 JUMP JUMPDEST SWAP2 PUSH1 0x84 CALLDATALOAD SWAP1 DUP2 GT PUSH2 0x2FF JUMPI PUSH2 0x146F SWAP1 CALLDATASIZE SWAP1 PUSH1 0x4 ADD PUSH2 0x36F5 JUMP JUMPDEST PUSH2 0x1477 PUSH2 0x3A9C JUMP JUMPDEST DUP5 PUSH1 0x0 MSTORE PUSH1 0x20 PUSH1 0x2 DUP2 MSTORE PUSH2 0x1499 PUSH1 0x1 DUP1 PUSH1 0xA0 SHL SUB PUSH1 0x40 PUSH1 0x0 KECCAK256 SLOAD AND ISZERO ISZERO PUSH2 0x4979 JUMP JUMPDEST PUSH1 0x63 NOT DUP6 SLT ISZERO DUP1 PUSH2 0x170D JUMPI JUMPDEST PUSH2 0x14AE SWAP1 PUSH2 0x49C5 JUMP JUMPDEST DUP6 PUSH1 0x0 MSTORE PUSH1 0xB DUP2 MSTORE PUSH1 0xFF SWAP4 PUSH2 0x14CC DUP6 PUSH1 0x8 PUSH1 0x40 PUSH1 0x0 KECCAK256 ADD SLOAD AND PUSH2 0x4A11 JUMP JUMPDEST DUP7 PUSH1 0x0 MSTORE PUSH1 0xB DUP3 MSTORE PUSH1 0x40 PUSH1 0x0 KECCAK256 SWAP4 PUSH1 0x4 DUP6 ADD SWAP7 DUP8 SLOAD SWAP2 PUSH1 0x5 DUP8 ADD SWAP7 PUSH1 0x8 DUP10 DUP10 SLOAD AND SWAP2 PUSH1 0x0 DUP6 SLT PUSH1 0x0 EQ PUSH2 0x16E1 JUMPI PUSH2 0x1502 DUP6 PUSH2 0x4A6A JUMP JUMPDEST DUP1 DUP8 GT ISZERO PUSH2 0x16D9 JUMPI PUSH2 0x1514 SWAP1 DUP8 PUSH2 0x4A7B JUMP JUMPDEST DUP1 SWAP13 JUMPDEST SSTORE PUSH2 0x152A PUSH2 0x1524 DUP14 PUSH2 0x5210 JUMP JUMPDEST DUP12 PUSH2 0x405B JUMP JUMPDEST TIMESTAMP PUSH1 0x7 DUP3 ADD SSTORE PUSH1 0x9 DUP2 ADD PUSH2 0x153E DUP2 SLOAD PUSH2 0x402A JUMP JUMPDEST SWAP1 SSTORE ADD DUP1 SLOAD PUSH2 0xFF00 NOT DUP2 AND PUSH2 0x2EE DUP14 LT ISZERO PUSH1 0x8 DUP2 DUP2 SHL PUSH2 0xFF00 AND SWAP3 SWAP1 SWAP3 OR SWAP1 SWAP4 SSTORE SWAP2 SWAP11 SWAP2 SHR DUP2 AND SWAP9 DUP2 DUP2 SLOAD AND SWAP7 PUSH1 0x5 DUP9 LT ISZERO PUSH2 0xDB3 JUMPI PUSH1 0x5 DUP5 LT ISZERO PUSH2 0xDB3 JUMPI DUP5 DUP15 PUSH32 0x8E9A18B1685BD471C7A695EA15ECE8A889F9FFEEEF186D2E0E16E4B610E0DEAD DUP16 SWAP11 SWAP9 PUSH1 0x40 PUSH32 0x4276EC6986B6418C7135532D86DB38A4A2A5C66440D2339B644D580AC60E39E5 SWAP14 DUP5 SWAP16 PUSH2 0x1621 SWAP1 PUSH2 0x1659 SWAP14 DUP13 SUB PUSH2 0x16A7 JUMPI JUMPDEST DUP7 PUSH1 0x0 MSTORE PUSH1 0xC DUP4 MSTORE DUP4 PUSH1 0x0 KECCAK256 DUP5 MLOAD SWAP2 PUSH2 0x15F0 DUP4 PUSH2 0x3631 JUMP JUMPDEST PUSH2 0x15FA DUP11 DUP5 PUSH2 0x4A95 JUMP JUMPDEST DUP7 DUP6 DUP5 ADD MSTORE DUP11 DUP7 DUP5 ADD MSTORE PUSH1 0x60 DUP4 ADD MSTORE TIMESTAMP PUSH1 0x80 DUP4 ADD MSTORE CALLER PUSH1 0xA0 DUP4 ADD MSTORE PUSH1 0x1 PUSH1 0xC0 DUP4 ADD MSTORE PUSH2 0x4AAE JUMP JUMPDEST PUSH2 0x162C PUSH1 0x12 SLOAD PUSH2 0x402A JUMP JUMPDEST PUSH1 0x12 SSTORE DUP2 MLOAD SWAP3 DUP4 MSTORE DUP3 ADD MSTORE DUP1 PUSH2 0x1647 CALLER SWAP7 PUSH1 0x40 DUP4 ADD SWAP1 PUSH2 0x359B JUMP JUMPDEST SUB SWAP1 LOG4 SLOAD AND SWAP1 PUSH1 0x40 MLOAD SWAP6 DUP7 SWAP6 DUP7 PUSH2 0x4D64 JUMP JUMPDEST SUB SWAP1 LOG2 DUP2 DUP2 ISZERO ISZERO SUB PUSH2 0x1667 JUMPI STOP JUMPDEST PUSH1 0x40 DUP1 MLOAD SWAP2 ISZERO ISZERO DUP3 MSTORE SWAP2 ISZERO ISZERO PUSH1 0x20 DUP3 ADD MSTORE SWAP1 DUP2 ADD SWAP2 SWAP1 SWAP2 MSTORE PUSH32 0x4FF2AF13B9D139714356E2C7B84B2C4FC0825779B3380BEA5CCA4EBED9193F93 SWAP1 PUSH1 0x60 SWAP1 LOG2 STOP JUMPDEST PUSH2 0x16B0 DUP13 PUSH2 0x3A83 JUMP JUMPDEST PUSH2 0x16BA DUP2 SLOAD PUSH2 0x4A88 JUMP JUMPDEST SWAP1 SSTORE PUSH2 0x16C8 DUP12 DUP12 SLOAD AND PUSH2 0x3A83 JUMP JUMPDEST PUSH2 0x16D2 DUP2 SLOAD PUSH2 0x402A JUMP JUMPDEST SWAP1 SSTORE PUSH2 0x15D8 JUMP JUMPDEST POP PUSH1 0x0 PUSH2 0x1514 JUMP JUMPDEST PUSH2 0x3E8 DUP1 PUSH2 0x16EF DUP8 DUP10 PUSH2 0x4A5D JUMP JUMPDEST GT ISZERO PUSH2 0x16FD JUMPI JUMPDEST DUP1 SWAP13 PUSH2 0x1517 JUMP JUMPDEST POP PUSH2 0x1708 DUP6 DUP8 PUSH2 0x4A5D JUMP JUMPDEST PUSH2 0x16F6 JUMP JUMPDEST POP PUSH1 0x64 DUP6 SGT ISZERO PUSH2 0x14A5 JUMP JUMPDEST CALLVALUE PUSH2 0x2FF JUMPI PUSH1 0x0 CALLDATASIZE PUSH1 0x3 NOT ADD SLT PUSH2 0x2FF JUMPI PUSH1 0x20 PUSH1 0x40 MLOAD PUSH2 0x3E8 DUP2 MSTORE RETURN JUMPDEST CALLVALUE PUSH2 0x2FF JUMPI PUSH1 0x0 CALLDATASIZE PUSH1 0x3 NOT ADD SLT PUSH2 0x2FF JUMPI PUSH2 0x174E PUSH2 0x3C15 JUMP JUMPDEST PUSH1 0x6 DUP1 SLOAD PUSH1 0x1 PUSH1 0x1 PUSH1 0xA0 SHL SUB NOT DUP2 AND SWAP1 SWAP2 SSTORE PUSH1 0x0 SWAP1 PUSH1 0x1 PUSH1 0x1 PUSH1 0xA0 SHL SUB AND PUSH32 0x8BE0079C531659141344CD1FD0A4F28419497F9722A3DAAFE3B4186F6B6457E0 DUP3 DUP1 LOG3 STOP JUMPDEST CALLVALUE PUSH2 0x2FF JUMPI PUSH1 0x20 CALLDATASIZE PUSH1 0x3 NOT ADD SLT PUSH2 0x2FF JUMPI PUSH1 0x1 PUSH1 0x1 PUSH1 0xA0 SHL SUB PUSH2 0x17B3 PUSH2 0x35CD JUMP JUMPDEST AND DUP1 ISZERO PUSH2 0x17D2 JUMPI PUSH1 0x0 MSTORE PUSH1 0x3 PUSH1 0x20 MSTORE PUSH1 0x20 PUSH1 0x40 PUSH1 0x0 KECCAK256 SLOAD PUSH1 0x40 MLOAD SWAP1 DUP2 MSTORE RETURN JUMPDEST PUSH1 0x40 MLOAD PUSH4 0x22718AD9 PUSH1 0xE2 SHL DUP2 MSTORE PUSH1 0x0 PUSH1 0x4 DUP3 ADD MSTORE PUSH1 0x24 SWAP1 REVERT JUMPDEST CALLVALUE PUSH2 0x2FF JUMPI PUSH1 0x0 CALLDATASIZE PUSH1 0x3 NOT ADD SLT PUSH2 0x2FF JUMPI PUSH1 0x20 PUSH1 0x12 SLOAD PUSH1 0x40 MLOAD SWAP1 DUP2 MSTORE RETURN JUMPDEST CALLVALUE PUSH2 0x2FF JUMPI PUSH1 0x20 CALLDATASIZE PUSH1 0x3 NOT ADD SLT PUSH2 0x2FF JUMPI PUSH1 0x20 PUSH2 0x1827 PUSH1 0x4 CALLDATALOAD PUSH2 0x3FEF JUMP JUMPDEST PUSH1 0x40 MLOAD PUSH1 0x1 PUSH1 0x1 PUSH1 0xA0 SHL SUB SWAP1 SWAP2 AND DUP2 MSTORE RETURN JUMPDEST CALLVALUE PUSH2 0x2FF JUMPI PUSH1 0x0 CALLDATASIZE PUSH1 0x3 NOT ADD SLT PUSH2 0x2FF JUMPI PUSH1 0x20 PUSH1 0x40 MLOAD PUSH32 0x4A3F8703C45F1A8B52B849456EBD7814F31F6CDEDEF35BA4EFF995E62E5C7623 DUP2 MSTORE RETURN JUMPDEST CALLVALUE PUSH2 0x2FF JUMPI PUSH2 0x1882 CALLDATASIZE PUSH2 0x3A1F JUMP JUMPDEST SWAP1 PUSH1 0x0 MSTORE PUSH1 0xD PUSH1 0x20 MSTORE PUSH1 0x40 PUSH1 0x0 KECCAK256 DUP1 SLOAD DUP3 LT ISZERO PUSH2 0x2FF JUMPI PUSH2 0x1919 SWAP2 PUSH2 0x18A6 SWAP2 PUSH2 0x3A35 JUMP JUMPDEST POP PUSH2 0x32A PUSH2 0x18B3 DUP3 PUSH2 0x3979 JUMP JUMPDEST SWAP2 PUSH2 0x18C0 PUSH1 0x1 DUP3 ADD PUSH2 0x3979 JUMP JUMPDEST PUSH2 0x18CC PUSH1 0x2 DUP4 ADD PUSH2 0x3979 JUMP JUMPDEST SWAP2 PUSH2 0x18D9 PUSH1 0x3 DUP3 ADD PUSH2 0x3979 JUMP JUMPDEST SWAP3 PUSH2 0x1943 PUSH1 0x4 DUP4 ADD SLOAD SWAP5 PUSH2 0x1935 PUSH1 0x5 DUP6 ADD SLOAD SWAP4 PUSH2 0x1927 PUSH2 0x1903 PUSH1 0x7 PUSH1 0xFF PUSH1 0x6 DUP11 ADD SLOAD AND SWAP9 ADD PUSH2 0x3979 JUMP JUMPDEST SWAP8 PUSH1 0x40 MLOAD SWAP13 DUP14 SWAP13 DUP14 PUSH2 0x100 SWAP1 DUP2 DUP2 MSTORE ADD SWAP1 PUSH2 0x359B JUMP JUMPDEST DUP13 DUP2 SUB PUSH1 0x20 DUP15 ADD MSTORE SWAP1 PUSH2 0x359B JUMP JUMPDEST SWAP1 DUP11 DUP3 SUB PUSH1 0x40 DUP13 ADD MSTORE PUSH2 0x359B JUMP JUMPDEST SWAP1 DUP9 DUP3 SUB PUSH1 0x60 DUP11 ADD MSTORE PUSH2 0x359B JUMP JUMPDEST SWAP4 PUSH1 0x80 DUP8 ADD MSTORE PUSH1 0xA0 DUP7 ADD MSTORE ISZERO ISZERO PUSH1 0xC0 DUP6 ADD MSTORE DUP4 DUP3 SUB PUSH1 0xE0 DUP6 ADD MSTORE PUSH2 0x359B JUMP JUMPDEST CALLVALUE PUSH2 0x2FF JUMPI PUSH1 0xE0 CALLDATASIZE PUSH1 0x3 NOT ADD SLT PUSH2 0x2FF JUMPI PUSH1 0x24 CALLDATALOAD PUSH1 0x1 PUSH1 0x1 PUSH1 0x40 SHL SUB DUP2 GT PUSH2 0x2FF JUMPI PUSH2 0x1992 SWAP1 CALLDATASIZE SWAP1 PUSH1 0x4 ADD PUSH2 0x36F5 JUMP JUMPDEST PUSH1 0x44 CALLDATALOAD PUSH1 0x1 PUSH1 0x1 PUSH1 0x40 SHL SUB DUP2 GT PUSH2 0x2FF JUMPI PUSH2 0x19B1 SWAP1 CALLDATASIZE SWAP1 PUSH1 0x4 ADD PUSH2 0x36F5 JUMP JUMPDEST SWAP1 PUSH1 0x64 CALLDATALOAD PUSH1 0x1 PUSH1 0x1 PUSH1 0x40 SHL SUB DUP2 GT PUSH2 0x2FF JUMPI PUSH2 0x19D1 SWAP1 CALLDATASIZE SWAP1 PUSH1 0x4 ADD PUSH2 0x36F5 JUMP JUMPDEST PUSH1 0x84 CALLDATALOAD PUSH1 0x1 PUSH1 0x1 PUSH1 0x40 SHL SUB DUP2 GT PUSH2 0x2FF JUMPI PUSH2 0x19F0 SWAP1 CALLDATASIZE SWAP1 PUSH1 0x4 ADD PUSH2 0x36F5 JUMP JUMPDEST SWAP1 PUSH1 0xA4 CALLDATALOAD ISZERO ISZERO PUSH1 0xA4 CALLDATALOAD SUB PUSH2 0x2FF JUMPI PUSH1 0xC4 CALLDATALOAD PUSH1 0x1 PUSH1 0x1 PUSH1 0x40 SHL SUB DUP2 GT PUSH2 0x2FF JUMPI PUSH2 0x1A1D SWAP1 CALLDATASIZE SWAP1 PUSH1 0x4 ADD PUSH2 0x36F5 JUMP JUMPDEST CALLER PUSH1 0x0 SWAP1 DUP2 MSTORE PUSH32 0xADF80B37E8C1562BFDC011CF13673C8B9DE9D2597C3DC32CB9B626FDCB0ACEE2 PUSH1 0x20 MSTORE PUSH1 0x40 SWAP1 KECCAK256 SLOAD PUSH32 0x8524DA473FC5E5A86A958A576DD0A57FFA409EBFB83259B3DBA9D5B494A02172 SWAP1 PUSH1 0xFF AND ISZERO PUSH2 0x22B4 JUMPI POP PUSH1 0x4 CALLDATALOAD PUSH1 0x0 SWAP1 DUP2 MSTORE PUSH1 0x2 PUSH1 0x20 MSTORE PUSH1 0x40 SWAP1 KECCAK256 SLOAD PUSH2 0x1A9D SWAP1 PUSH1 0x1 PUSH1 0x1 PUSH1 0xA0 SHL SUB AND ISZERO ISZERO PUSH2 0x4979 JUMP JUMPDEST PUSH1 0x4 CALLDATALOAD PUSH1 0x0 MSTORE PUSH1 0xB PUSH1 0x20 MSTORE PUSH1 0xFF PUSH1 0x8 PUSH1 0x40 PUSH1 0x0 KECCAK256 ADD SLOAD PUSH1 0x8 SHR AND ISZERO PUSH2 0x2263 JUMPI DUP4 MLOAD ISZERO PUSH2 0x221F JUMPI PUSH1 0x4 CALLDATALOAD PUSH1 0x0 MSTORE PUSH1 0xB PUSH1 0x20 MSTORE PUSH1 0x40 PUSH1 0x0 KECCAK256 SWAP3 PUSH1 0x4 DUP5 ADD SLOAD SWAP1 PUSH1 0x40 MLOAD SWAP4 PUSH2 0x1AE7 DUP6 PUSH2 0x3615 JUMP JUMPDEST DUP7 DUP6 MSTORE DUP8 PUSH1 0x20 DUP7 ADD MSTORE PUSH1 0x40 DUP6 ADD MSTORE PUSH1 0x60 DUP5 ADD MSTORE PUSH1 0x80 DUP4 ADD MSTORE TIMESTAMP PUSH1 0xA0 DUP4 ADD MSTORE PUSH1 0xA4 CALLDATALOAD ISZERO ISZERO PUSH1 0xC0 DUP4 ADD MSTORE PUSH1 0xE0 DUP3 ADD MSTORE PUSH1 0x4 CALLDATALOAD PUSH1 0x0 MSTORE PUSH1 0xD PUSH1 0x20 MSTORE PUSH1 0x40 PUSH1 0x0 KECCAK256 DUP1 SLOAD PUSH1 0x1 PUSH1 0x40 SHL DUP2 LT ISZERO PUSH2 0xCB9 JUMPI PUSH2 0x1B41 SWAP2 PUSH1 0x1 DUP3 ADD DUP2 SSTORE PUSH2 0x3A35 JUMP JUMPDEST SWAP2 SWAP1 SWAP2 PUSH2 0x2209 JUMPI DUP1 MLOAD DUP1 MLOAD SWAP1 PUSH1 0x1 PUSH1 0x1 PUSH1 0x40 SHL SUB DUP3 GT PUSH2 0xCB9 JUMPI DUP2 SWAP1 PUSH2 0x1B67 DUP6 SLOAD PUSH2 0x393F JUMP JUMPDEST PUSH1 0x1F DUP2 GT PUSH2 0x21B9 JUMPI JUMPDEST POP PUSH1 0x20 SWAP1 PUSH1 0x1F DUP4 GT PUSH1 0x1 EQ PUSH2 0x214D JUMPI PUSH1 0x0 SWAP3 PUSH2 0x2142 JUMPI JUMPDEST POP POP DUP2 PUSH1 0x1 SHL SWAP2 PUSH1 0x0 NOT SWAP1 PUSH1 0x3 SHL SHR NOT AND OR DUP3 SSTORE JUMPDEST PUSH1 0x20 DUP2 ADD MLOAD DUP1 MLOAD SWAP1 PUSH1 0x1 PUSH1 0x1 PUSH1 0x40 SHL SUB DUP3 GT PUSH2 0xCB9 JUMPI DUP2 SWAP1 PUSH2 0x1BC1 PUSH1 0x1 DUP7 ADD SLOAD PUSH2 0x393F JUMP JUMPDEST PUSH1 0x1F DUP2 GT PUSH2 0x20EF JUMPI JUMPDEST POP PUSH1 0x20 SWAP1 PUSH1 0x1F DUP4 GT PUSH1 0x1 EQ PUSH2 0x207D JUMPI PUSH1 0x0 SWAP3 PUSH2 0x2072 JUMPI JUMPDEST POP POP DUP2 PUSH1 0x1 SHL SWAP2 PUSH1 0x0 NOT SWAP1 PUSH1 0x3 SHL SHR NOT AND OR PUSH1 0x1 DUP4 ADD SSTORE JUMPDEST PUSH1 0x40 DUP2 ADD MLOAD DUP1 MLOAD SWAP1 PUSH1 0x1 PUSH1 0x1 PUSH1 0x40 SHL SUB DUP3 GT PUSH2 0xCB9 JUMPI DUP2 SWAP1 PUSH2 0x1C1E PUSH1 0x2 DUP7 ADD SLOAD PUSH2 0x393F JUMP JUMPDEST PUSH1 0x1F DUP2 GT PUSH2 0x201F JUMPI JUMPDEST POP PUSH1 0x20 SWAP1 PUSH1 0x1F DUP4 GT PUSH1 0x1 EQ PUSH2 0x1FAD JUMPI PUSH1 0x0 SWAP3 PUSH2 0x1FA2 JUMPI JUMPDEST POP POP DUP2 PUSH1 0x1 SHL SWAP2 PUSH1 0x0 NOT SWAP1 PUSH1 0x3 SHL SHR NOT AND OR PUSH1 0x2 DUP4 ADD SSTORE JUMPDEST PUSH1 0x60 DUP2 ADD MLOAD DUP1 MLOAD SWAP1 PUSH1 0x1 PUSH1 0x1 PUSH1 0x40 SHL SUB DUP3 GT PUSH2 0xCB9 JUMPI PUSH2 0x1C79 PUSH1 0x3 DUP6 ADD SLOAD PUSH2 0x393F JUMP JUMPDEST PUSH1 0x1F DUP2 GT PUSH2 0x1F5B JUMPI JUMPDEST POP PUSH1 0x20 SWAP1 PUSH1 0x1F DUP4 GT PUSH1 0x1 EQ PUSH2 0x1EE8 JUMPI PUSH1 0xE0 SWAP4 SWAP3 SWAP2 PUSH1 0x0 SWAP2 DUP4 PUSH2 0x1EDD JUMPI JUMPDEST POP POP DUP2 PUSH1 0x1 SHL SWAP2 PUSH1 0x0 NOT SWAP1 PUSH1 0x3 SHL SHR NOT AND OR PUSH1 0x3 DUP5 ADD SSTORE JUMPDEST PUSH1 0x80 DUP2 ADD MLOAD PUSH1 0x4 DUP5 ADD SSTORE PUSH1 0xA0 DUP2 ADD MLOAD PUSH1 0x5 DUP5 ADD SSTORE PUSH2 0x1CEA PUSH1 0xC0 DUP3 ADD MLOAD ISZERO ISZERO PUSH1 0x6 DUP6 ADD SWAP1 PUSH1 0xFF DUP1 NOT DUP4 SLOAD AND SWAP2 ISZERO ISZERO AND OR SWAP1 SSTORE JUMP JUMPDEST ADD MLOAD DUP1 MLOAD SWAP1 PUSH1 0x1 PUSH1 0x1 PUSH1 0x40 SHL SUB DUP3 GT PUSH2 0xCB9 JUMPI PUSH2 0x1D0A PUSH1 0x7 DUP5 ADD SLOAD PUSH2 0x393F JUMP JUMPDEST PUSH1 0x1F DUP2 GT PUSH2 0x1E96 JUMPI JUMPDEST POP PUSH1 0x20 SWAP1 PUSH1 0x1F DUP4 GT PUSH1 0x1 EQ PUSH2 0x1DFF JUMPI SWAP3 PUSH1 0x7 DUP4 PUSH1 0x4 SWAP5 PUSH32 0x5A534A2621EE7F49E6923F6132AC13AE9D00C9DFBD00587FA36DE0253D4D6982 SWAP9 SWAP8 SWAP5 PUSH2 0x1DBB SWAP8 PUSH1 0x0 SWAP3 PUSH2 0x1DF4 JUMPI JUMPDEST POP POP DUP2 PUSH1 0x1 SHL SWAP2 PUSH1 0x0 NOT SWAP1 PUSH1 0x3 SHL SHR NOT AND OR SWAP2 ADD SSTORE JUMPDEST PUSH1 0xA DUP2 ADD PUSH2 0x1D7D DUP2 SLOAD PUSH2 0x402A JUMP JUMPDEST SWAP1 SSTORE PUSH2 0x1D8A PUSH1 0x13 SLOAD PUSH2 0x402A JUMP JUMPDEST PUSH1 0x13 SSTORE PUSH1 0xA4 CALLDATALOAD PUSH2 0x1DD5 JUMPI JUMPDEST ADD SLOAD SWAP4 PUSH2 0x1DAD PUSH1 0x40 MLOAD SWAP4 PUSH1 0x80 DUP6 MSTORE PUSH1 0x80 DUP6 ADD SWAP1 PUSH2 0x359B JUMP JUMPDEST SWAP1 DUP4 DUP3 SUB PUSH1 0x20 DUP6 ADD MSTORE PUSH2 0x359B JUMP JUMPDEST SWAP3 PUSH1 0x40 DUP3 ADD MSTORE PUSH1 0xA4 CALLDATALOAD ISZERO ISZERO PUSH1 0x60 DUP3 ADD MSTORE DUP1 PUSH1 0x4 CALLDATALOAD SWAP4 SUB SWAP1 LOG2 STOP JUMPDEST DUP2 CALLDATALOAD PUSH1 0x0 MSTORE PUSH1 0xF PUSH1 0x20 MSTORE PUSH1 0x40 PUSH1 0x0 KECCAK256 PUSH1 0x1 PUSH1 0xFF NOT DUP3 SLOAD AND OR SWAP1 SSTORE PUSH2 0x1D95 JUMP JUMPDEST ADD MLOAD SWAP1 POP DUP11 DUP1 PUSH2 0x1D59 JUMP JUMPDEST SWAP1 PUSH1 0x1F NOT DUP4 AND SWAP2 PUSH1 0x7 DUP6 ADD PUSH1 0x0 MSTORE PUSH1 0x20 PUSH1 0x0 KECCAK256 SWAP3 PUSH1 0x0 JUMPDEST DUP2 DUP2 LT PUSH2 0x1E7E JUMPI POP DUP5 PUSH32 0x5A534A2621EE7F49E6923F6132AC13AE9D00C9DFBD00587FA36DE0253D4D6982 SWAP9 SWAP8 SWAP5 PUSH2 0x1DBB SWAP8 SWAP5 PUSH1 0x7 SWAP5 PUSH1 0x4 SWAP9 PUSH1 0x1 SWAP6 LT PUSH2 0x1E65 JUMPI JUMPDEST POP POP POP DUP2 SHL ADD SWAP2 ADD SSTORE PUSH2 0x1D6F JUMP JUMPDEST ADD MLOAD PUSH1 0x0 NOT PUSH1 0xF8 DUP5 PUSH1 0x3 SHL AND SHR NOT AND SWAP1 SSTORE DUP11 DUP1 DUP1 PUSH2 0x1E57 JUMP JUMPDEST SWAP3 SWAP4 PUSH1 0x20 PUSH1 0x1 DUP2 SWAP3 DUP8 DUP7 ADD MLOAD DUP2 SSTORE ADD SWAP6 ADD SWAP4 ADD PUSH2 0x1E16 JUMP JUMPDEST PUSH1 0x7 DUP5 ADD PUSH1 0x0 MSTORE PUSH1 0x20 PUSH1 0x0 KECCAK256 PUSH1 0x1F DUP5 ADD PUSH1 0x5 SHR DUP2 ADD PUSH1 0x20 DUP6 LT PUSH2 0x1ED6 JUMPI JUMPDEST PUSH1 0x1F DUP4 ADD PUSH1 0x5 SHR DUP3 ADD DUP2 LT PUSH2 0x1ECA JUMPI POP POP PUSH2 0x1D13 JUMP JUMPDEST PUSH1 0x0 DUP2 SSTORE PUSH1 0x1 ADD PUSH2 0x1EB4 JUMP JUMPDEST POP DUP1 PUSH2 0x1EB4 JUMP JUMPDEST ADD MLOAD SWAP1 POP DUP9 DUP1 PUSH2 0x1C9F JUMP JUMPDEST SWAP1 PUSH1 0x3 DUP6 ADD PUSH1 0x0 MSTORE PUSH1 0x20 PUSH1 0x0 KECCAK256 SWAP2 PUSH1 0x0 JUMPDEST PUSH1 0x1F NOT DUP6 AND DUP2 LT PUSH2 0x1F43 JUMPI POP SWAP2 DUP4 SWAP2 PUSH1 0x1 SWAP4 PUSH1 0xE0 SWAP7 SWAP6 PUSH1 0x1F NOT DUP2 AND LT PUSH2 0x1F2A JUMPI JUMPDEST POP POP POP DUP2 SHL ADD PUSH1 0x3 DUP5 ADD SSTORE PUSH2 0x1CB7 JUMP JUMPDEST ADD MLOAD PUSH1 0x0 NOT PUSH1 0xF8 DUP5 PUSH1 0x3 SHL AND SHR NOT AND SWAP1 SSTORE DUP9 DUP1 DUP1 PUSH2 0x1F1A JUMP JUMPDEST SWAP2 SWAP3 PUSH1 0x20 PUSH1 0x1 DUP2 SWAP3 DUP7 DUP6 ADD MLOAD DUP2 SSTORE ADD SWAP5 ADD SWAP3 ADD PUSH2 0x1EF9 JUMP JUMPDEST PUSH1 0x3 DUP6 ADD PUSH1 0x0 MSTORE PUSH1 0x20 PUSH1 0x0 KECCAK256 PUSH1 0x1F DUP5 ADD PUSH1 0x5 SHR DUP2 ADD PUSH1 0x20 DUP6 LT PUSH2 0x1F9B JUMPI JUMPDEST PUSH1 0x1F DUP4 ADD PUSH1 0x5 SHR DUP3 ADD DUP2 LT PUSH2 0x1F8F JUMPI POP POP PUSH2 0x1C82 JUMP JUMPDEST PUSH1 0x0 DUP2 SSTORE PUSH1 0x1 ADD PUSH2 0x1F79 JUMP JUMPDEST POP DUP1 PUSH2 0x1F79 JUMP JUMPDEST ADD MLOAD SWAP1 POP DUP8 DUP1 PUSH2 0x1C3E JUMP JUMPDEST SWAP3 POP PUSH1 0x2 DUP6 ADD PUSH1 0x0 MSTORE PUSH1 0x20 PUSH1 0x0 KECCAK256 SWAP1 PUSH1 0x0 SWAP4 JUMPDEST PUSH1 0x1F NOT DUP5 AND DUP6 LT PUSH2 0x2004 JUMPI PUSH1 0x1 SWAP5 POP DUP4 PUSH1 0x1F NOT DUP2 AND LT PUSH2 0x1FEB JUMPI JUMPDEST POP POP POP DUP2 SHL ADD PUSH1 0x2 DUP4 ADD SSTORE PUSH2 0x1C56 JUMP JUMPDEST ADD MLOAD PUSH1 0x0 NOT PUSH1 0xF8 DUP5 PUSH1 0x3 SHL AND SHR NOT AND SWAP1 SSTORE DUP8 DUP1 DUP1 PUSH2 0x1FDB JUMP JUMPDEST DUP2 DUP2 ADD MLOAD DUP4 SSTORE PUSH1 0x20 SWAP5 DUP6 ADD SWAP5 PUSH1 0x1 SWAP1 SWAP4 ADD SWAP3 SWAP1 SWAP2 ADD SWAP1 PUSH2 0x1FC0 JUMP JUMPDEST SWAP1 SWAP2 POP PUSH1 0x2 DUP6 ADD PUSH1 0x0 MSTORE PUSH1 0x20 PUSH1 0x0 KECCAK256 PUSH1 0x1F DUP5 ADD PUSH1 0x5 SHR DUP2 ADD PUSH1 0x20 DUP6 LT PUSH2 0x206B JUMPI JUMPDEST SWAP1 DUP5 SWAP4 SWAP3 SWAP2 JUMPDEST PUSH1 0x1F DUP4 ADD PUSH1 0x5 SHR DUP3 ADD DUP2 LT PUSH2 0x205C JUMPI POP POP PUSH2 0x1C27 JUMP JUMPDEST PUSH1 0x0 DUP2 SSTORE DUP6 SWAP5 POP PUSH1 0x1 ADD PUSH2 0x2046 JUMP JUMPDEST POP DUP1 PUSH2 0x2040 JUMP JUMPDEST ADD MLOAD SWAP1 POP DUP8 DUP1 PUSH2 0x1BE1 JUMP JUMPDEST SWAP3 POP PUSH1 0x1 DUP6 ADD PUSH1 0x0 MSTORE PUSH1 0x20 PUSH1 0x0 KECCAK256 SWAP1 PUSH1 0x0 SWAP4 JUMPDEST PUSH1 0x1F NOT DUP5 AND DUP6 LT PUSH2 0x20D4 JUMPI PUSH1 0x1 SWAP5 POP DUP4 PUSH1 0x1F NOT DUP2 AND LT PUSH2 0x20BB JUMPI JUMPDEST POP POP POP DUP2 SHL ADD PUSH1 0x1 DUP4 ADD SSTORE PUSH2 0x1BF9 JUMP JUMPDEST ADD MLOAD PUSH1 0x0 NOT PUSH1 0xF8 DUP5 PUSH1 0x3 SHL AND SHR NOT AND SWAP1 SSTORE DUP8 DUP1 DUP1 PUSH2 0x20AB JUMP JUMPDEST DUP2 DUP2 ADD MLOAD DUP4 SSTORE PUSH1 0x20 SWAP5 DUP6 ADD SWAP5 PUSH1 0x1 SWAP1 SWAP4 ADD SWAP3 SWAP1 SWAP2 ADD SWAP1 PUSH2 0x2090 JUMP JUMPDEST SWAP1 SWAP2 POP PUSH1 0x1 DUP6 ADD PUSH1 0x0 MSTORE PUSH1 0x20 PUSH1 0x0 KECCAK256 PUSH1 0x1F DUP5 ADD PUSH1 0x5 SHR DUP2 ADD PUSH1 0x20 DUP6 LT PUSH2 0x213B JUMPI JUMPDEST SWAP1 DUP5 SWAP4 SWAP3 SWAP2 JUMPDEST PUSH1 0x1F DUP4 ADD PUSH1 0x5 SHR DUP3 ADD DUP2 LT PUSH2 0x212C JUMPI POP POP PUSH2 0x1BCA JUMP JUMPDEST PUSH1 0x0 DUP2 SSTORE DUP6 SWAP5 POP PUSH1 0x1 ADD PUSH2 0x2116 JUMP JUMPDEST POP DUP1 PUSH2 0x2110 JUMP JUMPDEST ADD MLOAD SWAP1 POP DUP8 DUP1 PUSH2 0x1B87 JUMP JUMPDEST SWAP3 POP DUP5 PUSH1 0x0 MSTORE PUSH1 0x20 PUSH1 0x0 KECCAK256 SWAP1 PUSH1 0x0 SWAP4 JUMPDEST PUSH1 0x1F NOT DUP5 AND DUP6 LT PUSH2 0x219E JUMPI PUSH1 0x1 SWAP5 POP DUP4 PUSH1 0x1F NOT DUP2 AND LT PUSH2 0x2185 JUMPI JUMPDEST POP POP POP DUP2 SHL ADD DUP3 SSTORE PUSH2 0x1B9C JUMP JUMPDEST ADD MLOAD PUSH1 0x0 NOT PUSH1 0xF8 DUP5 PUSH1 0x3 SHL AND SHR NOT AND SWAP1 SSTORE DUP8 DUP1 DUP1 PUSH2 0x2178 JUMP JUMPDEST DUP2 DUP2 ADD MLOAD DUP4 SSTORE PUSH1 0x20 SWAP5 DUP6 ADD SWAP5 PUSH1 0x1 SWAP1 SWAP4 ADD SWAP3 SWAP1 SWAP2 ADD SWAP1 PUSH2 0x215D JUMP JUMPDEST SWAP1 SWAP2 POP DUP5 PUSH1 0x0 MSTORE PUSH1 0x20 PUSH1 0x0 KECCAK256 PUSH1 0x1F DUP5 ADD PUSH1 0x5 SHR DUP2 ADD PUSH1 0x20 DUP6 LT PUSH2 0x2202 JUMPI JUMPDEST SWAP1 DUP5 SWAP4 SWAP3 SWAP2 JUMPDEST PUSH1 0x1F DUP4 ADD PUSH1 0x5 SHR DUP3 ADD DUP2 LT PUSH2 0x21F3 JUMPI POP POP PUSH2 0x1B70 JUMP JUMPDEST PUSH1 0x0 DUP2 SSTORE DUP6 SWAP5 POP PUSH1 0x1 ADD PUSH2 0x21DD JUMP JUMPDEST POP DUP1 PUSH2 0x21D7 JUMP JUMPDEST PUSH4 0x4E487B71 PUSH1 0xE0 SHL PUSH1 0x0 MSTORE PUSH1 0x0 PUSH1 0x4 MSTORE PUSH1 0x24 PUSH1 0x0 REVERT JUMPDEST PUSH1 0x64 PUSH1 0x40 MLOAD PUSH3 0x461BCD PUSH1 0xE5 SHL DUP2 MSTORE PUSH1 0x20 PUSH1 0x4 DUP3 ADD MSTORE PUSH1 0x20 PUSH1 0x24 DUP3 ADD MSTORE PUSH32 0x416368696576656D656E7420747970652063616E6E6F7420626520656D707479 PUSH1 0x44 DUP3 ADD MSTORE REVERT JUMPDEST PUSH1 0x40 MLOAD PUSH3 0x461BCD PUSH1 0xE5 SHL DUP2 MSTORE PUSH1 0x20 PUSH1 0x4 DUP3 ADD MSTORE PUSH1 0x23 PUSH1 0x24 DUP3 ADD MSTORE PUSH32 0x4167656E74206E6F7420656C696769626C6520666F7220616368696576656D65 PUSH1 0x44 DUP3 ADD MSTORE PUSH3 0x6E7473 PUSH1 0xE8 SHL PUSH1 0x64 DUP3 ADD MSTORE PUSH1 0x84 SWAP1 REVERT JUMPDEST PUSH1 0x44 SWAP1 PUSH1 0x40 MLOAD SWAP1 PUSH4 0xE2517D3F PUSH1 0xE0 SHL DUP3 MSTORE CALLER PUSH1 0x4 DUP4 ADD MSTORE PUSH1 0x24 DUP3 ADD MSTORE REVERT JUMPDEST CALLVALUE PUSH2 0x2FF JUMPI PUSH1 0x20 DUP1 PUSH1 0x3 NOT CALLDATASIZE ADD SLT PUSH2 0x2FF JUMPI PUSH1 0x1 PUSH1 0x1 PUSH1 0x40 SHL SUB PUSH1 0x4 CALLDATALOAD DUP2 DUP2 GT PUSH2 0x2FF JUMPI PUSH2 0x2304 SWAP1 CALLDATASIZE SWAP1 PUSH1 0x4 ADD PUSH2 0x36F5 JUMP JUMPDEST SWAP2 PUSH2 0x230D PUSH2 0x3C15 JUMP JUMPDEST DUP3 MLOAD SWAP2 DUP3 GT PUSH2 0xCB9 JUMPI PUSH2 0x2321 PUSH1 0x9 SLOAD PUSH2 0x393F JUMP JUMPDEST PUSH1 0x1F DUP2 GT PUSH2 0x23E7 JUMPI JUMPDEST POP DUP1 PUSH1 0x1F DUP4 GT PUSH1 0x1 EQ PUSH2 0x2366 JUMPI POP DUP2 SWAP3 PUSH1 0x0 SWAP3 PUSH2 0x235B JUMPI JUMPDEST POP POP PUSH1 0x0 NOT PUSH1 0x3 DUP4 SWAP1 SHL SHR NOT AND PUSH1 0x1 SWAP2 SWAP1 SWAP2 SHL OR PUSH1 0x9 SSTORE STOP JUMPDEST ADD MLOAD SWAP1 POP DUP3 DUP1 PUSH2 0x2342 JUMP JUMPDEST SWAP1 PUSH1 0x1F NOT DUP4 AND SWAP4 PUSH1 0x9 PUSH1 0x0 MSTORE PUSH32 0x6E1540171B6C0C960B71A7020D9F60077F6AF931A8BBF590DA0223DACF75C7AF SWAP3 PUSH1 0x0 SWAP1 JUMPDEST DUP7 DUP3 LT PUSH2 0x23CF JUMPI POP POP DUP4 PUSH1 0x1 SWAP6 LT PUSH2 0x23B6 JUMPI JUMPDEST POP POP POP DUP2 SHL ADD PUSH1 0x9 SSTORE STOP JUMPDEST ADD MLOAD PUSH1 0x0 NOT PUSH1 0xF8 DUP5 PUSH1 0x3 SHL AND SHR NOT AND SWAP1 SSTORE DUP3 DUP1 DUP1 PUSH2 0x23AB JUMP JUMPDEST DUP1 PUSH1 0x1 DUP6 SWAP7 DUP3 SWAP5 SWAP7 DUP7 ADD MLOAD DUP2 SSTORE ADD SWAP6 ADD SWAP4 ADD SWAP1 PUSH2 0x2398 JUMP JUMPDEST PUSH1 0x9 PUSH1 0x0 MSTORE PUSH32 0x6E1540171B6C0C960B71A7020D9F60077F6AF931A8BBF590DA0223DACF75C7AF PUSH1 0x1F DUP5 ADD PUSH1 0x5 SHR DUP2 ADD SWAP2 DUP4 DUP6 LT PUSH2 0x2441 JUMPI JUMPDEST PUSH1 0x1F ADD PUSH1 0x5 SHR ADD SWAP1 JUMPDEST DUP2 DUP2 LT PUSH2 0x2435 JUMPI POP PUSH2 0x232A JUMP JUMPDEST PUSH1 0x0 DUP2 SSTORE PUSH1 0x1 ADD PUSH2 0x2428 JUMP JUMPDEST SWAP1 SWAP2 POP DUP2 SWAP1 PUSH2 0x241F JUMP JUMPDEST CALLVALUE PUSH2 0x2FF JUMPI PUSH1 0x20 CALLDATASIZE PUSH1 0x3 NOT ADD SLT PUSH2 0x2FF JUMPI PUSH1 0x4 CALLDATALOAD PUSH1 0x0 MSTORE PUSH1 0xB PUSH1 0x20 MSTORE PUSH1 0x40 PUSH1 0x0 KECCAK256 PUSH2 0x2475 DUP2 PUSH2 0x3979 JUMP JUMPDEST PUSH2 0x2481 PUSH1 0x1 DUP4 ADD PUSH2 0x3979 JUMP JUMPDEST SWAP2 PUSH2 0x248E PUSH1 0x2 DUP3 ADD PUSH2 0x3979 JUMP JUMPDEST PUSH2 0x249A PUSH1 0x3 DUP4 ADD PUSH2 0x3979 JUMP JUMPDEST SWAP2 PUSH1 0x4 DUP2 ADD SLOAD SWAP3 PUSH1 0x5 DUP3 ADD SLOAD PUSH1 0xFF AND PUSH1 0x6 DUP4 ADD SLOAD PUSH1 0x7 DUP5 ADD SLOAD SWAP2 PUSH1 0x8 DUP6 ADD SLOAD SWAP4 PUSH1 0x9 DUP7 ADD SLOAD SWAP6 PUSH1 0xA ADD SLOAD SWAP7 PUSH1 0x40 MLOAD SWAP11 DUP12 SWAP11 PUSH2 0x180 DUP1 DUP14 MSTORE DUP13 ADD PUSH2 0x24DC SWAP2 PUSH2 0x359B JUMP JUMPDEST DUP12 DUP2 SUB PUSH1 0x20 DUP14 ADD MSTORE PUSH2 0x24ED SWAP2 PUSH2 0x359B JUMP JUMPDEST DUP11 DUP2 SUB PUSH1 0x40 DUP13 ADD MSTORE PUSH2 0x24FE SWAP2 PUSH2 0x359B JUMP JUMPDEST DUP10 DUP2 SUB PUSH1 0x60 DUP12 ADD MSTORE PUSH2 0x250F SWAP2 PUSH2 0x359B JUMP JUMPDEST SWAP7 PUSH1 0x80 DUP10 ADD MSTORE PUSH1 0xA0 DUP9 ADD PUSH2 0x2522 SWAP2 PUSH2 0x35C0 JUMP JUMPDEST PUSH1 0xC0 DUP8 ADD MSTORE PUSH1 0xE0 DUP7 ADD MSTORE PUSH1 0xFF DUP2 AND ISZERO ISZERO PUSH2 0x100 DUP7 ADD MSTORE PUSH1 0x8 SHR PUSH1 0xFF AND ISZERO ISZERO PUSH2 0x120 DUP6 ADD MSTORE PUSH2 0x140 DUP5 ADD MSTORE PUSH2 0x160 DUP4 ADD MSTORE SUB SWAP1 RETURN JUMPDEST CALLVALUE PUSH2 0x2FF JUMPI PUSH1 0xA0 CALLDATASIZE PUSH1 0x3 NOT ADD SLT PUSH2 0x2FF JUMPI PUSH1 0x1 PUSH1 0x1 PUSH1 0x40 SHL SUB PUSH1 0x4 CALLDATALOAD DUP2 DUP2 GT PUSH2 0x2FF JUMPI CALLDATASIZE PUSH1 0x23 DUP3 ADD SLT ISZERO PUSH2 0x2FF JUMPI DUP1 PUSH1 0x4 ADD CALLDATALOAD PUSH2 0x2592 DUP2 PUSH2 0x38A8 JUMP JUMPDEST SWAP2 PUSH2 0x25A0 PUSH1 0x40 MLOAD SWAP4 DUP5 PUSH2 0x3682 JUMP JUMPDEST DUP2 DUP4 MSTORE PUSH1 0x20 DUP4 ADD PUSH1 0x24 DUP1 SWAP4 PUSH1 0x5 SHL DUP4 ADD ADD SWAP2 CALLDATASIZE DUP4 GT PUSH2 0x2FF JUMPI DUP4 ADD SWAP1 JUMPDEST DUP3 DUP3 LT PUSH2 0x2B23 JUMPI POP POP POP DUP1 CALLDATALOAD DUP4 DUP2 GT PUSH2 0x2FF JUMPI CALLDATASIZE PUSH1 0x23 DUP3 ADD SLT ISZERO PUSH2 0x2FF JUMPI DUP1 PUSH1 0x4 ADD CALLDATALOAD SWAP1 PUSH2 0x25F9 PUSH2 0x25ED DUP4 PUSH2 0x38A8 JUMP JUMPDEST PUSH1 0x40 MLOAD DUP1 PUSH1 0x80 MSTORE PUSH2 0x3682 JUMP JUMPDEST DUP2 PUSH1 0x80 MLOAD MSTORE DUP3 PUSH1 0x20 PUSH1 0x80 MLOAD ADD SWAP3 PUSH1 0x5 SHL DUP3 ADD ADD SWAP1 CALLDATASIZE DUP3 GT PUSH2 0x2FF JUMPI DUP4 ADD SWAP2 JUMPDEST DUP2 DUP4 LT PUSH2 0x2B0A JUMPI POP POP POP PUSH1 0x44 CALLDATALOAD SWAP1 DUP4 DUP3 GT PUSH2 0x2FF JUMPI CALLDATASIZE PUSH1 0x23 DUP4 ADD SLT ISZERO PUSH2 0x2FF JUMPI DUP2 PUSH1 0x4 ADD CALLDATALOAD SWAP2 PUSH2 0x2647 DUP4 PUSH2 0x38A8 JUMP JUMPDEST SWAP3 PUSH2 0x2655 PUSH1 0x40 MLOAD SWAP5 DUP6 PUSH2 0x3682 JUMP JUMPDEST DUP1 DUP5 MSTORE DUP3 PUSH1 0x20 DUP6 ADD SWAP2 PUSH1 0x5 SHL DUP4 ADD ADD SWAP2 CALLDATASIZE DUP4 GT PUSH2 0x2FF JUMPI DUP4 ADD SWAP1 JUMPDEST DUP3 DUP3 LT PUSH2 0x2AFA JUMPI POP POP POP PUSH1 0x64 SWAP2 DUP3 CALLDATALOAD DUP6 DUP2 GT PUSH2 0x2FF JUMPI PUSH2 0x2694 SWAP1 CALLDATASIZE SWAP1 PUSH1 0x4 ADD PUSH2 0x38BF JUMP JUMPDEST SWAP5 PUSH1 0x84 CALLDATALOAD SWAP1 DUP2 GT PUSH2 0x2FF JUMPI PUSH2 0x26AD SWAP1 CALLDATASIZE SWAP1 PUSH1 0x4 ADD PUSH2 0x38BF JUMP JUMPDEST PUSH2 0x26B5 PUSH2 0x3A9C JUMP JUMPDEST DUP5 MLOAD PUSH1 0x80 MLOAD MLOAD DUP2 EQ SWAP1 DUP2 PUSH2 0x2AEF JUMPI JUMPDEST DUP2 PUSH2 0x2AE4 JUMPI JUMPDEST DUP2 PUSH2 0x2AD9 JUMPI JUMPDEST POP ISZERO PUSH2 0x2A96 JUMPI PUSH1 0x0 JUMPDEST DUP6 MLOAD DUP2 LT ISZERO PUSH2 0x4E0 JUMPI PUSH2 0x26EC DUP2 DUP8 PUSH2 0x4D9D JUMP JUMPDEST MLOAD PUSH1 0x0 DUP2 DUP2 MSTORE PUSH1 0x2 PUSH1 0x20 MSTORE PUSH1 0x40 SWAP1 KECCAK256 SLOAD PUSH2 0x2710 SWAP1 PUSH1 0x1 PUSH1 0x1 PUSH1 0xA0 SHL SUB AND ISZERO ISZERO PUSH2 0x4979 JUMP JUMPDEST PUSH1 0x63 NOT PUSH2 0x271D DUP4 DUP7 PUSH2 0x4D9D JUMP JUMPDEST MLOAD SLT ISZERO DUP1 PUSH2 0x2A7D JUMPI JUMPDEST PUSH2 0x272F SWAP1 PUSH2 0x49C5 JUMP JUMPDEST DUP1 PUSH1 0x0 MSTORE PUSH1 0xB DUP1 PUSH1 0x20 MSTORE PUSH1 0x8 SWAP1 PUSH2 0x274F PUSH1 0xFF DUP4 PUSH1 0x40 PUSH1 0x0 KECCAK256 ADD SLOAD AND PUSH2 0x4A11 JUMP JUMPDEST DUP3 PUSH1 0x0 MSTORE PUSH1 0x20 MSTORE PUSH1 0x40 PUSH1 0x0 KECCAK256 PUSH1 0x4 DUP2 ADD SWAP1 DUP2 SLOAD SWAP1 PUSH1 0xFF PUSH1 0x5 DUP3 ADD SLOAD AND SWAP1 PUSH1 0x0 PUSH2 0x2778 DUP9 DUP12 PUSH2 0x4D9D JUMP JUMPDEST MLOAD SLT ISZERO PUSH2 0x2A44 JUMPI PUSH2 0x2792 PUSH2 0x278C DUP9 DUP12 PUSH2 0x4D9D JUMP JUMPDEST MLOAD PUSH2 0x4A6A JUMP JUMPDEST DUP1 DUP5 GT ISZERO PUSH2 0x2A3C JUMPI PUSH2 0x27A4 SWAP1 DUP5 PUSH2 0x4A7B JUMP JUMPDEST DUP1 SWAP5 JUMPDEST SSTORE PUSH2 0x27BD PUSH2 0x27B4 DUP6 PUSH2 0x5210 JUMP JUMPDEST PUSH1 0x5 DUP4 ADD PUSH2 0x405B JUMP JUMPDEST TIMESTAMP PUSH1 0x7 DUP3 ADD SSTORE PUSH1 0x9 DUP2 ADD PUSH2 0x27D1 DUP2 SLOAD PUSH2 0x402A JUMP JUMPDEST SWAP1 SSTORE DUP1 DUP6 ADD DUP1 SLOAD PUSH2 0xFF00 NOT DUP2 AND PUSH2 0x2EE DUP8 LT ISZERO PUSH1 0x8 SHL PUSH2 0xFF00 AND OR SWAP1 SWAP2 SSTORE SWAP1 SWAP5 SHR PUSH1 0xFF AND SWAP4 PUSH1 0xFF PUSH1 0x5 DUP3 ADD SLOAD AND PUSH1 0x5 DUP2 LT ISZERO PUSH2 0x2A27 JUMPI PUSH1 0x5 DUP4 LT ISZERO PUSH2 0x2A27 JUMPI DUP10 DUP15 PUSH2 0x28A0 SWAP3 DUP6 SUB PUSH2 0x29F1 JUMPI JUMPDEST DUP9 PUSH1 0x0 MSTORE PUSH1 0xC PUSH1 0x20 MSTORE PUSH1 0x40 PUSH1 0x0 KECCAK256 SWAP1 DUP12 PUSH2 0x2861 DUP13 PUSH2 0x285A DUP2 PUSH2 0x2853 DUP2 PUSH2 0x284D PUSH2 0x2848 DUP3 PUSH1 0x80 MLOAD PUSH2 0x4D9D JUMP JUMPDEST PUSH2 0x4AA1 JUMP JUMPDEST SWAP10 PUSH2 0x4D9D JUMP JUMPDEST MLOAD SWAP6 PUSH2 0x4D9D JUMP JUMPDEST MLOAD SWAP3 PUSH2 0x4D9D JUMP JUMPDEST MLOAD SWAP2 PUSH2 0x2879 PUSH1 0x40 MLOAD SWAP6 PUSH2 0x2873 DUP8 PUSH2 0x3631 JUMP JUMPDEST DUP7 PUSH2 0x4A95 JUMP JUMPDEST PUSH1 0x20 DUP6 ADD MSTORE PUSH1 0x40 DUP5 ADD MSTORE PUSH1 0x60 DUP4 ADD MSTORE TIMESTAMP PUSH1 0x80 DUP4 ADD MSTORE CALLER PUSH1 0xA0 DUP4 ADD MSTORE PUSH1 0x1 PUSH1 0xC0 DUP4 ADD MSTORE PUSH2 0x4AAE JUMP JUMPDEST PUSH1 0x12 PUSH2 0x28AC DUP2 SLOAD PUSH2 0x402A JUMP JUMPDEST SWAP1 SSTORE DUP13 DUP10 PUSH2 0x28D4 DUP10 PUSH2 0x28CD DUP2 PUSH2 0x28C7 PUSH2 0x2848 DUP3 PUSH1 0x80 MLOAD PUSH2 0x4D9D JUMP JUMPDEST SWAP5 PUSH2 0x4D9D JUMP JUMPDEST MLOAD SWAP4 PUSH2 0x4D9D JUMP JUMPDEST MLOAD SWAP2 PUSH1 0x7 DUP3 LT ISZERO PUSH2 0x29DC JUMPI DUP9 SWAP8 SWAP7 SWAP6 SWAP2 SWAP5 PUSH1 0xFF PUSH1 0x5 PUSH32 0x4276EC6986B6418C7135532D86DB38A4A2A5C66440D2339B644D580AC60E39E5 SWAP7 DUP10 SWAP7 DUP13 SWAP10 PUSH2 0x2992 SWAP16 SWAP15 PUSH32 0x8E9A18B1685BD471C7A695EA15ECE8A889F9FFEEEF186D2E0E16E4B610E0DEAD PUSH2 0x2978 SWAP9 PUSH1 0x40 MLOAD SWAP1 DUP2 MSTORE PUSH1 0x40 PUSH1 0x20 DUP3 ADD MSTORE DUP1 PUSH2 0x2956 CALLER SWAP7 PUSH1 0x40 DUP4 ADD SWAP1 PUSH2 0x359B JUMP JUMPDEST SUB SWAP1 LOG4 ADD SLOAD AND PUSH2 0x296B PUSH2 0x2848 DUP13 PUSH1 0x80 MLOAD PUSH2 0x4D9D JUMP JUMPDEST SWAP2 PUSH1 0x40 MLOAD SWAP6 DUP7 SWAP6 DUP7 PUSH2 0x4D64 JUMP JUMPDEST SUB SWAP1 LOG2 PUSH2 0x2EE DUP2 LT ISZERO DUP3 ISZERO ISZERO SUB PUSH2 0x2997 JUMPI JUMPDEST POP POP POP PUSH2 0x402A JUMP JUMPDEST PUSH2 0x26D9 JUMP JUMPDEST PUSH1 0x40 DUP1 MLOAD SWAP3 ISZERO ISZERO DUP4 MSTORE PUSH2 0x2EE DUP3 LT ISZERO PUSH1 0x20 DUP5 ADD MSTORE DUP3 ADD MSTORE PUSH32 0x4FF2AF13B9D139714356E2C7B84B2C4FC0825779B3380BEA5CCA4EBED9193F93 SWAP1 PUSH1 0x60 SWAP1 LOG2 DUP9 DUP1 DUP1 PUSH2 0x298A JUMP JUMPDEST DUP13 PUSH4 0x4E487B71 PUSH1 0xE0 SHL PUSH1 0x0 MSTORE PUSH1 0x21 PUSH1 0x4 MSTORE PUSH1 0x0 REVERT JUMPDEST PUSH2 0x29FA DUP6 PUSH2 0x3A83 JUMP JUMPDEST PUSH2 0x2A04 DUP2 SLOAD PUSH2 0x4A88 JUMP JUMPDEST SWAP1 SSTORE PUSH2 0x2A16 PUSH1 0xFF PUSH1 0x5 DUP7 ADD SLOAD AND PUSH2 0x3A83 JUMP JUMPDEST PUSH2 0x2A20 DUP2 SLOAD PUSH2 0x402A JUMP JUMPDEST SWAP1 SSTORE PUSH2 0x281D JUMP JUMPDEST DUP11 PUSH4 0x4E487B71 PUSH1 0xE0 SHL PUSH1 0x0 MSTORE PUSH1 0x21 PUSH1 0x4 MSTORE PUSH1 0x0 REVERT JUMPDEST POP PUSH1 0x0 PUSH2 0x27A4 JUMP JUMPDEST PUSH2 0x2A4E DUP8 DUP11 PUSH2 0x4D9D JUMP JUMPDEST MLOAD PUSH2 0x3E8 SWAP1 DUP2 PUSH2 0x2A5E DUP3 DUP8 PUSH2 0x4A5D JUMP JUMPDEST GT ISZERO PUSH2 0x2A6D JUMPI POP JUMPDEST DUP1 SWAP5 PUSH2 0x27A7 JUMP JUMPDEST PUSH2 0x2A78 SWAP2 POP DUP5 PUSH2 0x4A5D JUMP JUMPDEST PUSH2 0x2A66 JUMP JUMPDEST POP PUSH2 0x272F DUP7 PUSH2 0x2A8C DUP5 DUP8 PUSH2 0x4D9D JUMP JUMPDEST MLOAD SGT ISZERO SWAP1 POP PUSH2 0x2726 JUMP JUMPDEST POP POP PUSH1 0x18 PUSH1 0x40 MLOAD SWAP2 PUSH3 0x461BCD PUSH1 0xE5 SHL DUP4 MSTORE PUSH1 0x20 PUSH1 0x4 DUP5 ADD MSTORE DUP3 ADD MSTORE PUSH32 0x4172726179206C656E67746873206D757374206D617463680000000000000000 PUSH1 0x44 DUP3 ADD MSTORE REVERT JUMPDEST SWAP1 POP DUP2 MLOAD EQ DUP8 PUSH2 0x26D0 JUMP JUMPDEST DUP8 MLOAD DUP2 EQ SWAP2 POP PUSH2 0x26CA JUMP JUMPDEST DUP4 MLOAD DUP2 EQ SWAP2 POP PUSH2 0x26C4 JUMP JUMPDEST DUP2 CALLDATALOAD DUP2 MSTORE PUSH1 0x20 SWAP2 DUP3 ADD SWAP2 ADD PUSH2 0x2670 JUMP JUMPDEST DUP3 CALLDATALOAD PUSH1 0x7 DUP2 LT ISZERO PUSH2 0x2FF JUMPI DUP2 MSTORE PUSH1 0x20 SWAP3 DUP4 ADD SWAP3 ADD PUSH2 0x2618 JUMP JUMPDEST DUP2 CALLDATALOAD DUP2 MSTORE PUSH1 0x20 SWAP2 DUP3 ADD SWAP2 ADD PUSH2 0x25BD JUMP JUMPDEST CALLVALUE PUSH2 0x2FF JUMPI PUSH2 0x4E0 PUSH2 0x2B44 CALLDATASIZE PUSH2 0x37E4 JUMP JUMPDEST SWAP1 PUSH1 0x40 MLOAD SWAP3 PUSH2 0x2B52 DUP5 PUSH2 0x364C JUMP JUMPDEST PUSH1 0x0 DUP5 MSTORE PUSH2 0x3E9A JUMP JUMPDEST CALLVALUE PUSH2 0x2FF JUMPI PUSH1 0x20 PUSH2 0x2B82 PUSH2 0x2B6E CALLDATASIZE PUSH2 0x3819 JUMP JUMPDEST SWAP5 PUSH2 0x2B7D SWAP5 SWAP2 SWAP5 SWAP4 SWAP3 SWAP4 PUSH2 0x3C15 JUMP JUMPDEST PUSH2 0x4073 JUMP JUMPDEST PUSH1 0x40 MLOAD SWAP1 DUP2 MSTORE RETURN JUMPDEST CALLVALUE PUSH2 0x2FF JUMPI PUSH1 0x20 CALLDATASIZE PUSH1 0x3 NOT ADD SLT PUSH2 0x2FF JUMPI PUSH1 0x4 CALLDATALOAD PUSH2 0x2BA6 PUSH2 0x3C15 JUMP JUMPDEST PUSH1 0x0 DUP2 DUP2 MSTORE PUSH1 0x2 PUSH1 0x20 MSTORE PUSH1 0x40 SWAP1 KECCAK256 SLOAD PUSH2 0x2BC9 SWAP1 PUSH1 0x1 PUSH1 0x1 PUSH1 0xA0 SHL SUB AND ISZERO ISZERO PUSH2 0x4DB1 JUMP JUMPDEST PUSH1 0x0 SWAP1 DUP2 MSTORE PUSH1 0xB PUSH1 0x20 MSTORE PUSH1 0x40 SWAP1 KECCAK256 PUSH1 0x8 ADD DUP1 SLOAD PUSH1 0xFF NOT AND PUSH1 0x1 OR SWAP1 SSTORE STOP JUMPDEST CALLVALUE PUSH2 0x2FF JUMPI PUSH1 0x40 CALLDATASIZE PUSH1 0x3 NOT ADD SLT PUSH2 0x2FF JUMPI PUSH2 0x2C00 PUSH2 0x35E3 JUMP JUMPDEST CALLER PUSH1 0x1 PUSH1 0x1 PUSH1 0xA0 SHL SUB DUP3 AND SUB PUSH2 0x2C1C JUMPI PUSH2 0x4E0 SWAP1 PUSH1 0x4 CALLDATALOAD PUSH2 0x3B9E JUMP JUMPDEST PUSH1 0x40 MLOAD PUSH4 0x334BD919 PUSH1 0xE1 SHL DUP2 MSTORE PUSH1 0x4 SWAP1 REVERT JUMPDEST CALLVALUE PUSH2 0x2FF JUMPI PUSH1 0x0 CALLDATASIZE PUSH1 0x3 NOT ADD SLT PUSH2 0x2FF JUMPI PUSH1 0x20 PUSH1 0x40 MLOAD PUSH2 0x2EE DUP2 MSTORE RETURN JUMPDEST CALLVALUE PUSH2 0x2FF JUMPI PUSH1 0x20 PUSH2 0x2B82 PUSH2 0x2C5E CALLDATASIZE PUSH2 0x3819 JUMP JUMPDEST SWAP5 SWAP4 SWAP1 SWAP4 SWAP3 SWAP2 SWAP3 PUSH2 0x4073 JUMP JUMPDEST CALLVALUE PUSH2 0x2FF JUMPI PUSH1 0x40 CALLDATASIZE PUSH1 0x3 NOT ADD SLT PUSH2 0x2FF JUMPI PUSH2 0x4E0 PUSH1 0x4 CALLDATALOAD PUSH2 0x2C89 PUSH2 0x35E3 JUMP JUMPDEST SWAP1 DUP1 PUSH1 0x0 MSTORE PUSH1 0x7 PUSH1 0x20 MSTORE PUSH2 0x2CA4 PUSH1 0x1 PUSH1 0x40 PUSH1 0x0 KECCAK256 ADD SLOAD PUSH2 0x3AF8 JUMP JUMPDEST PUSH2 0x3B1E JUMP JUMPDEST CALLVALUE PUSH2 0x2FF JUMPI PUSH1 0x20 CALLDATASIZE PUSH1 0x3 NOT ADD SLT PUSH2 0x2FF JUMPI PUSH1 0x4 CALLDATALOAD PUSH1 0x0 MSTORE PUSH1 0x7 PUSH1 0x20 MSTORE PUSH1 0x20 PUSH1 0x1 PUSH1 0x40 PUSH1 0x0 KECCAK256 ADD SLOAD PUSH1 0x40 MLOAD SWAP1 DUP2 MSTORE RETURN JUMPDEST CALLVALUE PUSH2 0x2FF JUMPI PUSH2 0x4E0 PUSH2 0x2CE9 CALLDATASIZE PUSH2 0x37E4 JUMP JUMPDEST SWAP2 PUSH2 0x3C41 JUMP JUMPDEST CALLVALUE PUSH2 0x2FF JUMPI PUSH1 0x20 CALLDATASIZE PUSH1 0x3 NOT ADD SLT PUSH2 0x2FF JUMPI PUSH1 0x4 CALLDATALOAD PUSH1 0x0 MSTORE PUSH1 0x10 PUSH1 0x20 MSTORE PUSH1 0x20 PUSH1 0x40 PUSH1 0x0 KECCAK256 SLOAD PUSH1 0x40 MLOAD SWAP1 DUP2 MSTORE RETURN JUMPDEST CALLVALUE PUSH2 0x2FF JUMPI PUSH1 0x20 DUP1 PUSH1 0x3 NOT CALLDATASIZE ADD SLT PUSH2 0x2FF JUMPI PUSH1 0x4 CALLDATALOAD SWAP1 DUP2 PUSH1 0x0 MSTORE PUSH1 0x2 SWAP2 DUP3 DUP3 MSTORE PUSH2 0x2D53 PUSH1 0x1 DUP1 PUSH1 0xA0 SHL SUB PUSH1 0x40 PUSH1 0x0 KECCAK256 SLOAD AND ISZERO ISZERO PUSH2 0x4DB1 JUMP JUMPDEST PUSH1 0x0 MSTORE PUSH1 0xD DUP2 MSTORE PUSH1 0x40 PUSH1 0x0 KECCAK256 DUP1 SLOAD PUSH2 0x2D6A DUP2 PUSH2 0x38A8 JUMP JUMPDEST SWAP4 PUSH2 0x2D78 PUSH1 0x40 MLOAD SWAP6 DUP7 PUSH2 0x3682 JUMP JUMPDEST DUP2 DUP6 MSTORE PUSH1 0x0 SWAP3 DUP4 MSTORE DUP4 DUP4 KECCAK256 DUP5 DUP7 ADD SWAP4 SWAP2 DUP5 JUMPDEST DUP5 DUP5 LT PUSH2 0x2E6D JUMPI PUSH1 0x40 DUP1 MLOAD DUP9 DUP2 MSTORE DUP10 MLOAD DUP2 DUP11 ADD DUP2 SWAP1 MSTORE PUSH1 0x0 SWAP3 PUSH1 0x5 DUP3 SWAP1 SHL DUP4 ADD DUP2 ADD SWAP2 DUP11 SWAP2 DUP13 SWAP1 DUP6 ADD JUMPDEST DUP3 DUP8 LT PUSH2 0x2DC1 JUMPI DUP6 DUP6 SUB DUP7 RETURN JUMPDEST SWAP1 SWAP2 SWAP3 SWAP4 DUP3 DUP1 PUSH2 0x2E5D PUSH1 0x1 SWAP4 PUSH1 0x3F NOT DUP11 DUP3 SUB ADD DUP7 MSTORE DUP9 MLOAD SWAP1 PUSH1 0xE0 PUSH2 0x2E2C PUSH2 0x2E19 PUSH2 0x2E07 PUSH2 0x2DF7 DUP7 MLOAD PUSH2 0x100 DUP1 DUP9 MSTORE DUP8 ADD SWAP1 PUSH2 0x359B JUMP JUMPDEST DUP9 DUP8 ADD MLOAD DUP7 DUP3 SUB DUP11 DUP9 ADD MSTORE PUSH2 0x359B JUMP JUMPDEST PUSH1 0x40 DUP7 ADD MLOAD DUP6 DUP3 SUB PUSH1 0x40 DUP8 ADD MSTORE PUSH2 0x359B JUMP JUMPDEST PUSH1 0x60 DUP1 DUP7 ADD MLOAD SWAP1 DUP6 DUP4 SUB SWAP1 DUP7 ADD MSTORE PUSH2 0x359B JUMP JUMPDEST SWAP3 PUSH1 0x80 DUP1 DUP3 ADD MLOAD SWAP1 DUP5 ADD MSTORE PUSH1 0xA0 DUP1 DUP3 ADD MLOAD SWAP1 DUP5 ADD MSTORE PUSH1 0xC0 DUP1 DUP3 ADD MLOAD ISZERO ISZERO SWAP1 DUP5 ADD MSTORE ADD MLOAD SWAP1 PUSH1 0xE0 DUP2 DUP5 SUB SWAP2 ADD MSTORE PUSH2 0x359B JUMP JUMPDEST SWAP7 ADD SWAP3 ADD SWAP7 ADD SWAP6 SWAP3 SWAP2 SWAP1 SWAP3 PUSH2 0x2DB4 JUMP JUMPDEST PUSH1 0x8 DUP8 PUSH1 0x1 SWAP3 PUSH1 0x40 SWAP11 SWAP10 SWAP11 MLOAD PUSH2 0x2E82 DUP2 PUSH2 0x3615 JUMP JUMPDEST PUSH2 0x2E8B DUP8 PUSH2 0x3979 JUMP JUMPDEST DUP2 MSTORE PUSH2 0x2E98 DUP6 DUP9 ADD PUSH2 0x3979 JUMP JUMPDEST DUP4 DUP3 ADD MSTORE PUSH2 0x2EA7 DUP7 DUP9 ADD PUSH2 0x3979 JUMP JUMPDEST PUSH1 0x40 DUP3 ADD MSTORE PUSH2 0x2EB8 PUSH1 0x3 DUP9 ADD PUSH2 0x3979 JUMP JUMPDEST PUSH1 0x60 DUP3 ADD MSTORE PUSH1 0x4 DUP8 ADD SLOAD PUSH1 0x80 DUP3 ADD MSTORE PUSH1 0x5 DUP8 ADD SLOAD PUSH1 0xA0 DUP3 ADD MSTORE PUSH1 0xFF PUSH1 0x6 DUP9 ADD SLOAD AND ISZERO ISZERO PUSH1 0xC0 DUP3 ADD MSTORE PUSH2 0x2EEC PUSH1 0x7 DUP9 ADD PUSH2 0x3979 JUMP JUMPDEST PUSH1 0xE0 DUP3 ADD MSTORE DUP2 MSTORE ADD SWAP4 ADD SWAP4 ADD SWAP3 SWAP2 SWAP7 SWAP6 SWAP7 PUSH2 0x2D8A JUMP JUMPDEST CALLVALUE PUSH2 0x2FF JUMPI PUSH1 0x20 DUP1 PUSH1 0x3 NOT CALLDATASIZE ADD SLT PUSH2 0x2FF JUMPI PUSH1 0x4 CALLDATALOAD PUSH1 0x0 DUP2 DUP2 MSTORE PUSH1 0x2 DUP4 MSTORE PUSH1 0x40 SWAP1 KECCAK256 SLOAD PUSH2 0x2F39 SWAP1 PUSH1 0x1 PUSH1 0x1 PUSH1 0xA0 SHL SUB AND ISZERO ISZERO PUSH2 0x4DB1 JUMP JUMPDEST PUSH1 0x0 MSTORE PUSH1 0xC DUP2 MSTORE PUSH1 0x40 PUSH1 0x0 KECCAK256 DUP1 SLOAD PUSH2 0x2F50 DUP2 PUSH2 0x38A8 JUMP JUMPDEST SWAP2 PUSH2 0x2F5E PUSH1 0x40 MLOAD SWAP4 DUP5 PUSH2 0x3682 JUMP JUMPDEST DUP2 DUP4 MSTORE PUSH1 0x0 SWAP1 DUP2 MSTORE DUP4 DUP2 KECCAK256 SWAP4 DUP1 DUP5 ADD JUMPDEST DUP4 DUP4 LT PUSH2 0x2F83 JUMPI PUSH1 0x40 MLOAD DUP1 PUSH2 0x32A DUP8 DUP3 PUSH2 0x3720 JUMP JUMPDEST PUSH1 0x6 DUP3 PUSH1 0x1 SWAP3 PUSH2 0x2F92 DUP10 PUSH2 0x4DF4 JUMP JUMPDEST DUP2 MSTORE ADD SWAP7 ADD SWAP3 ADD SWAP2 SWAP5 PUSH2 0x2F6E JUMP JUMPDEST CALLVALUE PUSH2 0x2FF JUMPI PUSH1 0x0 CALLDATASIZE PUSH1 0x3 NOT ADD SLT PUSH2 0x2FF JUMPI PUSH1 0x8 SLOAD PUSH1 0x12 SLOAD PUSH1 0x13 SLOAD PUSH1 0x14 PUSH1 0x20 MSTORE PUSH32 0x63D87A887046E0430BE80FDEB014107D7198C879CBF2CDDF39A6DF195C86CB38 SLOAD PUSH1 0x4 PUSH1 0x0 MSTORE PUSH32 0x52102136546D97ED3F65EC1070A32935D3048EA12F310D29C378DC9D6555C0D6 SLOAD PUSH2 0x120 SWAP5 SWAP4 SWAP3 SWAP2 PUSH2 0x3019 SWAP2 SWAP1 PUSH2 0x4A5D JUMP JUMPDEST PUSH1 0x14 PUSH1 0x20 SWAP1 DUP2 MSTORE PUSH32 0x4F26C3876AA9F4B92579780BEEA1161A61F87EBF1EC6EE865B299E447ECBA99C SLOAD PUSH32 0xB6C61A840592CC84133E4B25BD509ABF4659307C57B160799B38490A5AA48F2C SLOAD PUSH32 0xA1930AA930426C54C34DAAD2B9ADA7C5D0EF0C96078A3C5BB79F6FA6602C4A7A SLOAD PUSH32 0x63D87A887046E0430BE80FDEB014107D7198C879CBF2CDDF39A6DF195C86CB38 SLOAD PUSH1 0x4 PUSH1 0x0 MSTORE PUSH32 0x52102136546D97ED3F65EC1070A32935D3048EA12F310D29C378DC9D6555C0D6 SLOAD PUSH1 0x40 DUP1 MLOAD SWAP11 DUP12 MSTORE SWAP6 DUP11 ADD SWAP9 SWAP1 SWAP9 MSTORE SWAP4 DUP9 ADD SWAP6 SWAP1 SWAP6 MSTORE PUSH1 0x60 DUP8 ADD SWAP4 SWAP1 SWAP4 MSTORE PUSH1 0x80 DUP7 ADD MSTORE PUSH1 0xA0 DUP6 ADD SWAP2 SWAP1 SWAP2 MSTORE PUSH1 0xC0 DUP5 ADD SWAP2 SWAP1 SWAP2 MSTORE PUSH1 0xE0 DUP4 ADD MSTORE PUSH2 0x100 DUP3 ADD MSTORE RETURN JUMPDEST CALLVALUE PUSH2 0x2FF JUMPI PUSH1 0x40 CALLDATASIZE PUSH1 0x3 NOT ADD SLT PUSH2 0x2FF JUMPI PUSH2 0x3127 PUSH2 0x35CD JUMP JUMPDEST PUSH1 0x24 CALLDATALOAD PUSH2 0x3133 DUP2 PUSH2 0x3FEF JUMP JUMPDEST CALLER ISZERO ISZERO DUP1 PUSH2 0x31E2 JUMPI JUMPDEST DUP1 PUSH2 0x31B5 JUMPI JUMPDEST PUSH2 0x319D JUMPI PUSH1 0x1 PUSH1 0x1 PUSH1 0xA0 SHL SUB SWAP3 DUP4 AND SWAP3 DUP3 SWAP2 DUP5 SWAP2 AND PUSH32 0x8C5BE1E5EBEC7D5BD14F71427D1E84F3DD0314C0F7B2291E5B200AC8C7C3B925 PUSH1 0x0 DUP1 LOG4 PUSH1 0x0 SWAP1 DUP2 MSTORE PUSH1 0x4 PUSH1 0x20 MSTORE PUSH1 0x40 SWAP1 KECCAK256 DUP1 SLOAD PUSH1 0x1 PUSH1 0x1 PUSH1 0xA0 SHL SUB NOT AND SWAP1 SWAP2 OR SWAP1 SSTORE STOP JUMPDEST PUSH1 0x40 MLOAD PUSH4 0xA9FBF51F PUSH1 0xE0 SHL DUP2 MSTORE CALLER PUSH1 0x4 DUP3 ADD MSTORE PUSH1 0x24 SWAP1 REVERT JUMPDEST POP PUSH1 0x1 DUP1 PUSH1 0xA0 SHL SUB DUP2 AND PUSH1 0x0 MSTORE PUSH1 0x5 PUSH1 0x20 MSTORE PUSH1 0x40 PUSH1 0x0 KECCAK256 CALLER PUSH1 0x0 MSTORE PUSH1 0x20 MSTORE PUSH1 0xFF PUSH1 0x40 PUSH1 0x0 KECCAK256 SLOAD AND ISZERO PUSH2 0x3142 JUMP JUMPDEST POP PUSH1 0x1 PUSH1 0x1 PUSH1 0xA0 SHL SUB DUP2 AND CALLER EQ ISZERO PUSH2 0x313C JUMP JUMPDEST CALLVALUE PUSH2 0x2FF JUMPI PUSH1 0x20 CALLDATASIZE PUSH1 0x3 NOT ADD SLT PUSH2 0x2FF JUMPI PUSH1 0x4 CALLDATALOAD PUSH2 0x3212 DUP2 PUSH2 0x3FEF JUMP JUMPDEST POP PUSH1 0x0 MSTORE PUSH1 0x4 PUSH1 0x20 MSTORE PUSH1 0x20 PUSH1 0x1 DUP1 PUSH1 0xA0 SHL SUB PUSH1 0x40 PUSH1 0x0 KECCAK256 SLOAD AND PUSH1 0x40 MLOAD SWAP1 DUP2 MSTORE RETURN JUMPDEST CALLVALUE PUSH2 0x2FF JUMPI PUSH1 0x0 CALLDATASIZE PUSH1 0x3 NOT ADD SLT PUSH2 0x2FF JUMPI PUSH1 0x40 MLOAD PUSH1 0x0 DUP1 SLOAD PUSH2 0x3254 DUP2 PUSH2 0x393F JUMP JUMPDEST DUP1 DUP5 MSTORE SWAP1 PUSH1 0x1 SWAP1 DUP2 DUP2 AND SWAP1 DUP2 ISZERO PUSH2 0x47A JUMPI POP PUSH1 0x1 EQ PUSH2 0x327D JUMPI PUSH2 0x32A DUP5 PUSH2 0x40B DUP2 DUP7 SUB DUP3 PUSH2 0x3682 JUMP JUMPDEST PUSH1 0x0 DUP1 DUP1 MSTORE SWAP3 POP PUSH32 0x290DECD9548B62A8D60345A988386FC84BA6BC95484008F6362F93160EF3E563 JUMPDEST DUP3 DUP5 LT PUSH2 0x32BE JUMPI POP POP POP DUP2 ADD PUSH1 0x20 ADD PUSH2 0x40B DUP3 PUSH2 0x3FB JUMP JUMPDEST DUP1 SLOAD PUSH1 0x20 DUP6 DUP8 ADD DUP2 ADD SWAP2 SWAP1 SWAP2 MSTORE SWAP1 SWAP4 ADD SWAP3 DUP2 ADD PUSH2 0x32A6 JUMP JUMPDEST CALLVALUE PUSH2 0x2FF JUMPI PUSH1 0x20 CALLDATASIZE PUSH1 0x3 NOT ADD SLT PUSH2 0x2FF JUMPI PUSH1 0x4 CALLDATALOAD PUSH1 0x0 PUSH2 0x160 PUSH1 0x40 MLOAD PUSH2 0x32FB DUP2 PUSH2 0x35F9 JUMP JUMPDEST PUSH1 0x60 DUP2 MSTORE PUSH1 0x60 PUSH1 0x20 DUP3 ADD MSTORE PUSH1 0x60 PUSH1 0x40 DUP3 ADD MSTORE PUSH1 0x60 DUP1 DUP3 ADD MSTORE DUP3 PUSH1 0x80 DUP3 ADD MSTORE DUP3 PUSH1 0xA0 DUP3 ADD MSTORE DUP3 PUSH1 0xC0 DUP3 ADD MSTORE DUP3 PUSH1 0xE0 DUP3 ADD MSTORE DUP3 PUSH2 0x100 DUP3 ADD MSTORE DUP3 PUSH2 0x120 DUP3 ADD MSTORE DUP3 PUSH2 0x140 DUP3 ADD MSTORE ADD MSTORE DUP1 PUSH1 0x0 MSTORE PUSH1 0x2 PUSH1 0x20 MSTORE PUSH2 0x3363 PUSH1 0x1 DUP1 PUSH1 0xA0 SHL SUB PUSH1 0x40 PUSH1 0x0 KECCAK256 SLOAD AND ISZERO ISZERO PUSH2 0x4DB1 JUMP JUMPDEST PUSH1 0x0 MSTORE PUSH1 0xB PUSH1 0x20 MSTORE PUSH1 0x40 PUSH1 0x0 KECCAK256 PUSH1 0xA PUSH1 0x40 MLOAD SWAP2 PUSH2 0x337F DUP4 PUSH2 0x35F9 JUMP JUMPDEST PUSH2 0x3388 DUP2 PUSH2 0x3979 JUMP JUMPDEST DUP4 MSTORE PUSH2 0x3396 PUSH1 0x1 DUP3 ADD PUSH2 0x3979 JUMP JUMPDEST PUSH1 0x20 DUP5 ADD MSTORE PUSH2 0x33A7 PUSH1 0x2 DUP3 ADD PUSH2 0x3979 JUMP JUMPDEST PUSH1 0x40 DUP5 ADD MSTORE PUSH2 0x33B8 PUSH1 0x3 DUP3 ADD PUSH2 0x3979 JUMP JUMPDEST PUSH1 0x60 DUP5 ADD MSTORE PUSH1 0x4 DUP2 ADD SLOAD PUSH1 0x80 DUP5 ADD MSTORE PUSH2 0x33DB PUSH1 0xFF PUSH1 0x5 DUP4 ADD SLOAD AND PUSH1 0xA0 DUP6 ADD PUSH2 0x404F JUMP JUMPDEST PUSH1 0x6 DUP2 ADD SLOAD PUSH1 0xC0 DUP5 ADD MSTORE PUSH1 0x7 DUP2 ADD SLOAD PUSH1 0xE0 DUP5 ADD MSTORE PUSH1 0xFF PUSH1 0x8 DUP3 ADD SLOAD DUP2 DUP2 AND ISZERO ISZERO PUSH2 0x100 DUP7 ADD MSTORE PUSH1 0x8 SHR AND ISZERO ISZERO PUSH2 0x120 DUP5 ADD MSTORE PUSH1 0x9 DUP2 ADD SLOAD PUSH2 0x140 DUP5 ADD MSTORE ADD SLOAD PUSH2 0x160 DUP3 ADD MSTORE PUSH1 0x40 MLOAD DUP1 SWAP2 PUSH1 0x20 DUP3 MSTORE PUSH2 0x160 PUSH2 0x348F PUSH2 0x3447 DUP4 MLOAD PUSH2 0x180 PUSH1 0x20 DUP8 ADD MSTORE PUSH2 0x1A0 DUP7 ADD SWAP1 PUSH2 0x359B JUMP JUMPDEST PUSH2 0x347A PUSH2 0x3466 PUSH1 0x20 DUP7 ADD MLOAD SWAP3 PUSH1 0x1F NOT SWAP4 DUP5 DUP10 DUP4 SUB ADD PUSH1 0x40 DUP11 ADD MSTORE PUSH2 0x359B JUMP JUMPDEST PUSH1 0x40 DUP7 ADD MLOAD DUP4 DUP9 DUP4 SUB ADD PUSH1 0x60 DUP10 ADD MSTORE PUSH2 0x359B JUMP JUMPDEST SWAP1 PUSH1 0x60 DUP6 ADD MLOAD SWAP1 DUP7 DUP4 SUB ADD PUSH1 0x80 DUP8 ADD MSTORE PUSH2 0x359B JUMP JUMPDEST SWAP2 PUSH1 0x80 DUP2 ADD MLOAD PUSH1 0xA0 DUP6 ADD MSTORE PUSH2 0x34AC PUSH1 0xA0 DUP3 ADD MLOAD PUSH1 0xC0 DUP7 ADD SWAP1 PUSH2 0x35C0 JUMP JUMPDEST PUSH1 0xC0 DUP2 ADD MLOAD PUSH1 0xE0 DUP6 ADD MSTORE PUSH1 0xE0 DUP2 ADD MLOAD PUSH2 0x100 DUP6 ADD MSTORE PUSH2 0x100 DUP2 ADD MLOAD ISZERO ISZERO PUSH2 0x120 DUP6 ADD MSTORE PUSH2 0x120 DUP2 ADD MLOAD ISZERO ISZERO PUSH2 0x140 DUP6 ADD MSTORE PUSH2 0x140 DUP2 ADD MLOAD DUP3 DUP6 ADD MSTORE ADD MLOAD PUSH2 0x180 DUP4 ADD MSTORE SUB SWAP1 RETURN JUMPDEST CALLVALUE PUSH2 0x2FF JUMPI PUSH1 0x20 CALLDATASIZE PUSH1 0x3 NOT ADD SLT PUSH2 0x2FF JUMPI PUSH1 0x4 CALLDATALOAD SWAP1 PUSH4 0xFFFFFFFF PUSH1 0xE0 SHL DUP3 AND DUP1 SWAP3 SUB PUSH2 0x2FF JUMPI PUSH1 0x20 SWAP2 PUSH4 0x7965DB0B PUSH1 0xE0 SHL DUP2 EQ SWAP1 DUP2 ISZERO PUSH2 0x3535 JUMPI JUMPDEST POP ISZERO ISZERO DUP2 MSTORE RETURN JUMPDEST PUSH4 0x80AC58CD PUSH1 0xE0 SHL DUP2 EQ SWAP2 POP DUP2 ISZERO PUSH2 0x3567 JUMPI JUMPDEST DUP2 ISZERO PUSH2 0x3556 JUMPI JUMPDEST POP DUP4 PUSH2 0x352E JUMP JUMPDEST PUSH4 0x1FFC9A7 PUSH1 0xE0 SHL EQ SWAP1 POP DUP4 PUSH2 0x354F JUMP JUMPDEST PUSH4 0x5B5E139F PUSH1 0xE0 SHL DUP2 EQ SWAP2 POP PUSH2 0x3548 JUMP JUMPDEST PUSH1 0x0 JUMPDEST DUP4 DUP2 LT PUSH2 0x358B JUMPI POP POP PUSH1 0x0 SWAP2 ADD MSTORE JUMP JUMPDEST DUP2 DUP2 ADD MLOAD DUP4 DUP3 ADD MSTORE PUSH1 0x20 ADD PUSH2 0x357B JUMP JUMPDEST SWAP1 PUSH1 0x20 SWAP2 PUSH2 0x35B4 DUP2 MLOAD DUP1 SWAP3 DUP2 DUP6 MSTORE DUP6 DUP1 DUP7 ADD SWAP2 ADD PUSH2 0x3578 JUMP JUMPDEST PUSH1 0x1F ADD PUSH1 0x1F NOT AND ADD ADD SWAP1 JUMP JUMPDEST SWAP1 PUSH1 0x5 DUP3 LT ISZERO PUSH2 0xDB3 JUMPI MSTORE JUMP JUMPDEST PUSH1 0x4 CALLDATALOAD SWAP1 PUSH1 0x1 PUSH1 0x1 PUSH1 0xA0 SHL SUB DUP3 AND DUP3 SUB PUSH2 0x2FF JUMPI JUMP JUMPDEST PUSH1 0x24 CALLDATALOAD SWAP1 PUSH1 0x1 PUSH1 0x1 PUSH1 0xA0 SHL SUB DUP3 AND DUP3 SUB PUSH2 0x2FF JUMPI JUMP JUMPDEST PUSH2 0x180 DUP2 ADD SWAP1 DUP2 LT PUSH1 0x1 PUSH1 0x1 PUSH1 0x40 SHL SUB DUP3 GT OR PUSH2 0xCB9 JUMPI PUSH1 0x40 MSTORE JUMP JUMPDEST PUSH2 0x100 DUP2 ADD SWAP1 DUP2 LT PUSH1 0x1 PUSH1 0x1 PUSH1 0x40 SHL SUB DUP3 GT OR PUSH2 0xCB9 JUMPI PUSH1 0x40 MSTORE JUMP JUMPDEST PUSH1 0xE0 DUP2 ADD SWAP1 DUP2 LT PUSH1 0x1 PUSH1 0x1 PUSH1 0x40 SHL SUB DUP3 GT OR PUSH2 0xCB9 JUMPI PUSH1 0x40 MSTORE JUMP JUMPDEST PUSH1 0x20 DUP2 ADD SWAP1 DUP2 LT PUSH1 0x1 PUSH1 0x1 PUSH1 0x40 SHL SUB DUP3 GT OR PUSH2 0xCB9 JUMPI PUSH1 0x40 MSTORE JUMP JUMPDEST PUSH1 0x40 DUP2 ADD SWAP1 DUP2 LT PUSH1 0x1 PUSH1 0x1 PUSH1 0x40 SHL SUB DUP3 GT OR PUSH2 0xCB9 JUMPI PUSH1 0x40 MSTORE JUMP JUMPDEST SWAP1 PUSH1 0x1F DUP1 NOT SWAP2 ADD AND DUP2 ADD SWAP1 DUP2 LT PUSH1 0x1 PUSH1 0x1 PUSH1 0x40 SHL SUB DUP3 GT OR PUSH2 0xCB9 JUMPI PUSH1 0x40 MSTORE JUMP JUMPDEST PUSH1 0x1 PUSH1 0x1 PUSH1 0x40 SHL SUB DUP2 GT PUSH2 0xCB9 JUMPI PUSH1 0x1F ADD PUSH1 0x1F NOT AND PUSH1 0x20 ADD SWAP1 JUMP JUMPDEST SWAP3 SWAP2 SWAP3 PUSH2 0x36CA DUP3 PUSH2 0x36A3 JUMP JUMPDEST SWAP2 PUSH2 0x36D8 PUSH1 0x40 MLOAD SWAP4 DUP5 PUSH2 0x3682 JUMP JUMPDEST DUP3 SWAP5 DUP2 DUP5 MSTORE DUP2 DUP4 ADD GT PUSH2 0x2FF JUMPI DUP3 DUP2 PUSH1 0x20 SWAP4 DUP5 PUSH1 0x0 SWAP7 ADD CALLDATACOPY ADD ADD MSTORE JUMP JUMPDEST SWAP1 DUP1 PUSH1 0x1F DUP4 ADD SLT ISZERO PUSH2 0x2FF JUMPI DUP2 PUSH1 0x20 PUSH2 0x3710 SWAP4 CALLDATALOAD SWAP2 ADD PUSH2 0x36BE JUMP JUMPDEST SWAP1 JUMP JUMPDEST SWAP1 PUSH1 0x7 DUP3 LT ISZERO PUSH2 0xDB3 JUMPI MSTORE JUMP JUMPDEST PUSH1 0x20 DUP1 DUP3 ADD SWAP1 DUP1 DUP4 MSTORE DUP4 MLOAD DUP1 SWAP3 MSTORE PUSH1 0x40 SWAP3 DUP4 DUP2 ADD DUP3 DUP6 DUP6 PUSH1 0x5 SHL DUP5 ADD ADD SWAP7 ADD SWAP5 PUSH1 0x0 SWAP3 JUMPDEST DUP6 DUP5 LT PUSH2 0x3755 JUMPI POP POP POP POP POP POP POP SWAP1 JUMP JUMPDEST SWAP1 SWAP2 SWAP3 SWAP4 SWAP5 SWAP6 SWAP7 DUP6 DUP1 PUSH1 0x1 SWAP3 PUSH1 0x3F NOT DUP6 DUP3 SUB ADD DUP8 MSTORE DUP11 MLOAD SWAP1 PUSH2 0x3778 DUP2 DUP4 MLOAD PUSH2 0x3713 JUMP JUMPDEST DUP3 DUP3 ADD MLOAD DUP4 DUP3 ADD MSTORE PUSH2 0x37AC PUSH2 0x3799 DUP9 DUP5 ADD MLOAD PUSH1 0xE0 DUP1 DUP12 DUP7 ADD MSTORE DUP5 ADD SWAP1 PUSH2 0x359B JUMP JUMPDEST PUSH1 0x60 DUP1 DUP6 ADD MLOAD SWAP1 DUP5 DUP4 SUB SWAP1 DUP6 ADD MSTORE PUSH2 0x359B JUMP JUMPDEST SWAP2 PUSH1 0x80 DUP1 DUP3 ADD MLOAD SWAP1 DUP4 ADD MSTORE PUSH1 0xA0 DUP7 DUP1 PUSH1 0xA0 SHL SUB DUP2 DUP4 ADD MLOAD AND SWAP1 DUP4 ADD MSTORE PUSH1 0xC0 DUP1 SWAP2 ADD MLOAD ISZERO ISZERO SWAP2 ADD MSTORE SWAP10 ADD SWAP5 ADD SWAP5 ADD SWAP3 SWAP6 SWAP5 SWAP4 SWAP2 SWAP1 PUSH2 0x3744 JUMP JUMPDEST PUSH1 0x60 SWAP1 PUSH1 0x3 NOT ADD SLT PUSH2 0x2FF JUMPI PUSH1 0x1 PUSH1 0x1 PUSH1 0xA0 SHL SUB SWAP1 PUSH1 0x4 CALLDATALOAD DUP3 DUP2 AND DUP2 SUB PUSH2 0x2FF JUMPI SWAP2 PUSH1 0x24 CALLDATALOAD SWAP1 DUP2 AND DUP2 SUB PUSH2 0x2FF JUMPI SWAP1 PUSH1 0x44 CALLDATALOAD SWAP1 JUMP JUMPDEST SWAP1 PUSH1 0xC0 PUSH1 0x3 NOT DUP4 ADD SLT PUSH2 0x2FF JUMPI PUSH1 0x4 CALLDATALOAD PUSH1 0x1 PUSH1 0x1 PUSH1 0xA0 SHL SUB DUP2 AND DUP2 SUB PUSH2 0x2FF JUMPI SWAP2 PUSH1 0x1 PUSH1 0x1 PUSH1 0x40 SHL SUB SWAP1 PUSH1 0x24 CALLDATALOAD DUP3 DUP2 GT PUSH2 0x2FF JUMPI DUP2 PUSH2 0x385A SWAP2 PUSH1 0x4 ADD PUSH2 0x36F5 JUMP JUMPDEST SWAP3 PUSH1 0x44 CALLDATALOAD DUP4 DUP2 GT PUSH2 0x2FF JUMPI DUP3 PUSH2 0x3872 SWAP2 PUSH1 0x4 ADD PUSH2 0x36F5 JUMP JUMPDEST SWAP3 PUSH1 0x64 CALLDATALOAD DUP2 DUP2 GT PUSH2 0x2FF JUMPI DUP4 PUSH2 0x388A SWAP2 PUSH1 0x4 ADD PUSH2 0x36F5 JUMP JUMPDEST SWAP3 PUSH1 0x84 CALLDATALOAD SWAP2 DUP3 GT PUSH2 0x2FF JUMPI PUSH2 0x38A1 SWAP2 PUSH1 0x4 ADD PUSH2 0x36F5 JUMP JUMPDEST SWAP1 PUSH1 0xA4 CALLDATALOAD SWAP1 JUMP JUMPDEST PUSH1 0x1 PUSH1 0x1 PUSH1 0x40 SHL SUB DUP2 GT PUSH2 0xCB9 JUMPI PUSH1 0x5 SHL PUSH1 0x20 ADD SWAP1 JUMP JUMPDEST SWAP1 DUP1 PUSH1 0x1F DUP4 ADD SLT ISZERO PUSH2 0x2FF JUMPI DUP2 CALLDATALOAD SWAP1 PUSH2 0x38D7 DUP3 PUSH2 0x38A8 JUMP JUMPDEST SWAP3 PUSH2 0x38E5 PUSH1 0x40 MLOAD SWAP5 DUP6 PUSH2 0x3682 JUMP JUMPDEST DUP3 DUP5 MSTORE PUSH1 0x20 SWAP3 DUP4 DUP1 DUP7 ADD SWAP2 PUSH1 0x5 SHL DUP4 ADD ADD SWAP3 DUP1 DUP5 GT PUSH2 0x2FF JUMPI DUP5 DUP4 ADD SWAP2 JUMPDEST DUP5 DUP4 LT PUSH2 0x3913 JUMPI POP POP POP POP POP POP SWAP1 JUMP JUMPDEST DUP3 CALLDATALOAD PUSH1 0x1 PUSH1 0x1 PUSH1 0x40 SHL SUB DUP2 GT PUSH2 0x2FF JUMPI DUP7 SWAP2 PUSH2 0x3934 DUP5 DUP5 DUP1 SWAP5 DUP10 ADD ADD PUSH2 0x36F5 JUMP JUMPDEST DUP2 MSTORE ADD SWAP3 ADD SWAP2 PUSH2 0x3903 JUMP JUMPDEST SWAP1 PUSH1 0x1 DUP3 DUP2 SHR SWAP3 AND DUP1 ISZERO PUSH2 0x396F JUMPI JUMPDEST PUSH1 0x20 DUP4 LT EQ PUSH2 0x3959 JUMPI JUMP JUMPDEST PUSH4 0x4E487B71 PUSH1 0xE0 SHL PUSH1 0x0 MSTORE PUSH1 0x22 PUSH1 0x4 MSTORE PUSH1 0x24 PUSH1 0x0 REVERT JUMPDEST SWAP2 PUSH1 0x7F AND SWAP2 PUSH2 0x394E JUMP JUMPDEST SWAP1 PUSH1 0x40 MLOAD SWAP2 DUP3 PUSH1 0x0 DUP3 SLOAD SWAP3 PUSH2 0x398D DUP5 PUSH2 0x393F JUMP JUMPDEST SWAP1 DUP2 DUP5 MSTORE PUSH1 0x1 SWAP5 DUP6 DUP2 AND SWAP1 DUP2 PUSH1 0x0 EQ PUSH2 0x39FC JUMPI POP PUSH1 0x1 EQ PUSH2 0x39B9 JUMPI JUMPDEST POP POP PUSH2 0x39B7 SWAP3 POP SUB DUP4 PUSH2 0x3682 JUMP JUMPDEST JUMP JUMPDEST SWAP1 SWAP4 SWAP2 POP PUSH1 0x0 MSTORE PUSH1 0x20 SWAP1 DUP2 PUSH1 0x0 KECCAK256 SWAP4 PUSH1 0x0 SWAP2 JUMPDEST DUP2 DUP4 LT PUSH2 0x39E4 JUMPI POP POP PUSH2 0x39B7 SWAP4 POP DUP3 ADD ADD CODESIZE DUP1 PUSH2 0x39A9 JUMP JUMPDEST DUP6 SLOAD DUP9 DUP5 ADD DUP6 ADD MSTORE SWAP5 DUP6 ADD SWAP5 DUP8 SWAP5 POP SWAP2 DUP4 ADD SWAP2 PUSH2 0x39CC JUMP JUMPDEST SWAP2 POP POP PUSH2 0x39B7 SWAP5 POP PUSH1 0x20 SWAP3 POP PUSH1 0xFF NOT AND DUP3 DUP5 ADD MSTORE ISZERO ISZERO PUSH1 0x5 SHL DUP3 ADD ADD CODESIZE DUP1 PUSH2 0x39A9 JUMP JUMPDEST PUSH1 0x40 SWAP1 PUSH1 0x3 NOT ADD SLT PUSH2 0x2FF JUMPI PUSH1 0x4 CALLDATALOAD SWAP1 PUSH1 0x24 CALLDATALOAD SWAP1 JUMP JUMPDEST DUP1 SLOAD DUP3 LT ISZERO PUSH2 0x3A51 JUMPI PUSH1 0x0 MSTORE PUSH1 0x20 PUSH1 0x0 KECCAK256 SWAP1 PUSH1 0x3 SHL ADD SWAP1 PUSH1 0x0 SWAP1 JUMP JUMPDEST PUSH4 0x4E487B71 PUSH1 0xE0 SHL PUSH1 0x0 MSTORE PUSH1 0x32 PUSH1 0x4 MSTORE PUSH1 0x24 PUSH1 0x0 REVERT JUMPDEST DUP1 SLOAD DUP3 LT ISZERO PUSH2 0x3A51 JUMPI PUSH1 0x0 MSTORE PUSH1 0x6 PUSH1 0x20 PUSH1 0x0 KECCAK256 SWAP2 MUL ADD SWAP1 PUSH1 0x0 SWAP1 JUMP JUMPDEST PUSH1 0x5 DUP2 LT ISZERO PUSH2 0xDB3 JUMPI PUSH1 0x0 MSTORE PUSH1 0x14 PUSH1 0x20 MSTORE PUSH1 0x40 PUSH1 0x0 KECCAK256 SWAP1 JUMP JUMPDEST CALLER PUSH1 0x0 SWAP1 DUP2 MSTORE PUSH32 0x62300FA0D10E1485F04EAF244F7DFE6CCEAE92C0C8F7C6AC4E3941192164C955 PUSH1 0x20 MSTORE PUSH1 0x40 SWAP1 KECCAK256 SLOAD PUSH32 0x4A3F8703C45F1A8B52B849456EBD7814F31F6CDEDEF35BA4EFF995E62E5C7623 SWAP1 PUSH1 0xFF AND ISZERO PUSH2 0x22B4 JUMPI POP JUMP JUMPDEST DUP1 PUSH1 0x0 MSTORE PUSH1 0x7 PUSH1 0x20 MSTORE PUSH1 0x40 PUSH1 0x0 KECCAK256 CALLER PUSH1 0x0 MSTORE PUSH1 0x20 MSTORE PUSH1 0xFF PUSH1 0x40 PUSH1 0x0 KECCAK256 SLOAD AND ISZERO PUSH2 0x22B4 JUMPI POP JUMP JUMPDEST SWAP1 PUSH1 0x0 SWAP2 DUP1 DUP4 MSTORE PUSH1 0x7 PUSH1 0x20 MSTORE PUSH1 0x40 DUP4 KECCAK256 SWAP2 PUSH1 0x1 DUP1 PUSH1 0xA0 SHL SUB AND SWAP2 DUP3 DUP5 MSTORE PUSH1 0x20 MSTORE PUSH1 0xFF PUSH1 0x40 DUP5 KECCAK256 SLOAD AND ISZERO PUSH1 0x0 EQ PUSH2 0x3B99 JUMPI DUP1 DUP4 MSTORE PUSH1 0x7 PUSH1 0x20 MSTORE PUSH1 0x40 DUP4 KECCAK256 DUP3 DUP5 MSTORE PUSH1 0x20 MSTORE PUSH1 0x40 DUP4 KECCAK256 PUSH1 0x1 PUSH1 0xFF NOT DUP3 SLOAD AND OR SWAP1 SSTORE PUSH32 0x2F8788117E7EFF1D82E926EC794901D17C78024A50270940304540A733656F0D CALLER SWAP4 DUP1 LOG4 PUSH1 0x1 SWAP1 JUMP JUMPDEST POP POP SWAP1 JUMP JUMPDEST SWAP1 PUSH1 0x0 SWAP2 DUP1 DUP4 MSTORE PUSH1 0x7 PUSH1 0x20 MSTORE PUSH1 0x40 DUP4 KECCAK256 SWAP2 PUSH1 0x1 DUP1 PUSH1 0xA0 SHL SUB AND SWAP2 DUP3 DUP5 MSTORE PUSH1 0x20 MSTORE PUSH1 0xFF PUSH1 0x40 DUP5 KECCAK256 SLOAD AND PUSH1 0x0 EQ PUSH2 0x3B99 JUMPI DUP1 DUP4 MSTORE PUSH1 0x7 PUSH1 0x20 MSTORE PUSH1 0x40 DUP4 KECCAK256 DUP3 DUP5 MSTORE PUSH1 0x20 MSTORE PUSH1 0x40 DUP4 KECCAK256 PUSH1 0xFF NOT DUP2 SLOAD AND SWAP1 SSTORE PUSH32 0xF6391F5C32D9C69D2A47EA670B442974B53935D1EDC7FD64EB21E047A839171B CALLER SWAP4 DUP1 LOG4 PUSH1 0x1 SWAP1 JUMP JUMPDEST PUSH1 0x6 SLOAD PUSH1 0x1 PUSH1 0x1 PUSH1 0xA0 SHL SUB AND CALLER SUB PUSH2 0x3C29 JUMPI JUMP JUMPDEST PUSH1 0x40 MLOAD PUSH4 0x118CDAA7 PUSH1 0xE0 SHL DUP2 MSTORE CALLER PUSH1 0x4 DUP3 ADD MSTORE PUSH1 0x24 SWAP1 REVERT JUMPDEST PUSH1 0x1 PUSH1 0x1 PUSH1 0xA0 SHL SUB SWAP2 DUP3 AND SWAP3 SWAP1 SWAP2 DUP4 ISZERO PUSH2 0x3E81 JUMPI PUSH1 0x0 SWAP3 DUP3 DUP5 MSTORE DUP3 PUSH1 0x20 SWAP6 PUSH1 0x2 DUP8 MSTORE PUSH1 0x40 SWAP7 DUP5 DUP9 DUP9 KECCAK256 SLOAD AND DUP1 ISZERO ISZERO DUP1 PUSH2 0x3E0A JUMPI JUMPDEST DUP1 PUSH2 0x3E02 JUMPI JUMPDEST PUSH2 0x3DE9 JUMPI JUMPDEST POP DUP3 DUP8 MSTORE PUSH1 0x2 DUP2 MSTORE DUP5 DUP9 DUP9 KECCAK256 SLOAD AND SWAP7 DUP8 SWAP2 CALLER ISZERO ISZERO DUP1 PUSH2 0x3D53 JUMPI JUMPDEST POP SWAP1 PUSH1 0x2 PUSH32 0xDDF252AD1BE2C89B69C2B068FC378DAA952BA7F163C4A11628F55A4DF523B3EF SWAP3 DUP5 PUSH2 0x3D20 JUMPI JUMPDEST DUP6 DUP4 MSTORE PUSH1 0x3 DUP2 MSTORE DUP12 DUP4 KECCAK256 DUP1 SLOAD PUSH1 0x1 ADD SWAP1 SSTORE DUP7 DUP4 MSTORE MSTORE DUP10 DUP2 KECCAK256 DUP1 SLOAD PUSH1 0x1 PUSH1 0x1 PUSH1 0xA0 SHL SUB NOT AND DUP6 OR SWAP1 SSTORE DUP1 LOG4 AND SWAP3 DUP4 DUP4 SUB PUSH2 0x3CFF JUMPI POP POP POP POP JUMP JUMPDEST PUSH1 0x64 SWAP5 POP MLOAD SWAP3 PUSH4 0x64283D7B PUSH1 0xE0 SHL DUP5 MSTORE PUSH1 0x4 DUP5 ADD MSTORE PUSH1 0x24 DUP4 ADD MSTORE PUSH1 0x44 DUP3 ADD MSTORE REVERT JUMPDEST PUSH1 0x0 DUP8 DUP2 MSTORE PUSH1 0x4 PUSH1 0x20 MSTORE PUSH1 0x40 SWAP1 KECCAK256 DUP1 SLOAD PUSH1 0x1 PUSH1 0x1 PUSH1 0xA0 SHL SUB NOT AND SWAP1 SSTORE DUP5 DUP4 MSTORE PUSH1 0x3 DUP2 MSTORE DUP12 DUP4 KECCAK256 DUP1 SLOAD PUSH1 0x0 NOT ADD SWAP1 SSTORE PUSH2 0x3CC6 JUMP JUMPDEST SWAP2 SWAP4 SWAP5 POP SWAP2 POP DUP1 PUSH2 0x3DA8 JUMPI JUMPDEST ISZERO PUSH2 0x3D6F JUMPI DUP6 SWAP3 SWAP2 DUP8 SWAP2 CODESIZE PUSH2 0x3C9A JUMP JUMPDEST DUP8 DUP7 DUP9 PUSH2 0x3D8C JUMPI PUSH1 0x24 SWAP2 MLOAD SWAP1 PUSH4 0x7E273289 PUSH1 0xE0 SHL DUP3 MSTORE PUSH1 0x4 DUP3 ADD MSTORE REVERT JUMPDEST PUSH1 0x44 SWAP2 MLOAD SWAP1 PUSH4 0x177E802F PUSH1 0xE0 SHL DUP3 MSTORE CALLER PUSH1 0x4 DUP4 ADD MSTORE PUSH1 0x24 DUP3 ADD MSTORE REVERT JUMPDEST POP CALLER DUP8 EQ DUP1 ISZERO PUSH2 0x3DCD JUMPI JUMPDEST DUP1 PUSH2 0x3D5F JUMPI POP DUP6 DUP3 MSTORE PUSH1 0x4 DUP2 MSTORE CALLER DUP6 DUP10 DUP5 KECCAK256 SLOAD AND EQ PUSH2 0x3D5F JUMP JUMPDEST POP DUP7 DUP3 MSTORE PUSH1 0x5 DUP2 MSTORE DUP8 DUP3 KECCAK256 CALLER DUP4 MSTORE DUP2 MSTORE PUSH1 0xFF DUP9 DUP4 KECCAK256 SLOAD AND PUSH2 0x3DB3 JUMP JUMPDEST DUP8 MSTORE PUSH1 0x11 DUP2 MSTORE DUP7 DUP9 DUP2 KECCAK256 SSTORE DUP2 DUP8 MSTORE DUP3 DUP9 DUP9 KECCAK256 SSTORE CODESIZE PUSH2 0x3C80 JUMP JUMPDEST POP PUSH1 0x1 PUSH2 0x3C7B JUMP JUMPDEST SWAP1 SWAP2 SWAP3 SWAP4 POP PUSH1 0xF DUP4 MSTORE PUSH1 0xFF DUP10 DUP10 KECCAK256 SLOAD AND PUSH2 0x3E28 JUMPI SWAP1 DUP7 SWAP4 SWAP3 SWAP2 PUSH2 0x3C75 JUMP JUMPDEST DUP9 MLOAD PUSH3 0x461BCD PUSH1 0xE5 SHL DUP2 MSTORE PUSH1 0x4 DUP2 ADD DUP5 SWAP1 MSTORE PUSH1 0x2C PUSH1 0x24 DUP3 ADD MSTORE PUSH32 0x546F6B656E20697320736F756C626F756E6420616E642063616E6E6F74206265 PUSH1 0x44 DUP3 ADD MSTORE PUSH12 0x81D1C985B9CD9995C9C9959 PUSH1 0xA2 SHL PUSH1 0x64 DUP3 ADD MSTORE PUSH1 0x84 SWAP1 REVERT JUMPDEST PUSH1 0x40 MLOAD PUSH4 0x32505749 PUSH1 0xE1 SHL DUP2 MSTORE PUSH1 0x0 PUSH1 0x4 DUP3 ADD MSTORE PUSH1 0x24 SWAP1 REVERT JUMPDEST SWAP3 SWAP1 SWAP3 PUSH2 0x3EA8 DUP4 DUP6 DUP4 PUSH2 0x3C41 JUMP JUMPDEST DUP4 EXTCODESIZE PUSH2 0x3EB5 JUMPI JUMPDEST POP POP POP POP JUMP JUMPDEST PUSH1 0x40 MLOAD PUSH4 0xA85BD01 PUSH1 0xE1 SHL DUP1 DUP3 MSTORE CALLER PUSH1 0x4 DUP4 ADD MSTORE PUSH1 0x1 PUSH1 0x1 PUSH1 0xA0 SHL SUB SWAP3 DUP4 AND PUSH1 0x24 DUP4 ADD MSTORE PUSH1 0x44 DUP3 ADD SWAP5 SWAP1 SWAP5 MSTORE PUSH1 0x80 PUSH1 0x64 DUP3 ADD MSTORE SWAP5 SWAP4 AND SWAP3 PUSH1 0x20 SWAP3 SWAP1 SWAP2 DUP6 SWAP1 PUSH2 0x3F01 SWAP1 PUSH1 0x84 DUP4 ADD SWAP1 PUSH2 0x359B JUMP JUMPDEST SUB SWAP5 DUP4 DUP2 PUSH1 0x0 SWAP8 DUP2 DUP10 DUP10 GAS CALL DUP7 SWAP2 DUP2 PUSH2 0x3FAB JUMPI JUMPDEST POP PUSH2 0x3F76 JUMPI POP POP POP RETURNDATASIZE PUSH1 0x0 EQ PUSH2 0x3F6D JUMPI RETURNDATASIZE PUSH2 0x3F2F DUP2 PUSH2 0x36A3 JUMP JUMPDEST SWAP1 PUSH2 0x3F3D PUSH1 0x40 MLOAD SWAP3 DUP4 PUSH2 0x3682 JUMP JUMPDEST DUP2 MSTORE DUP1 SWAP4 DUP3 RETURNDATASIZE SWAP3 ADD RETURNDATACOPY JUMPDEST DUP3 MLOAD SWAP3 DUP4 PUSH2 0x3F68 JUMPI PUSH1 0x40 MLOAD PUSH4 0x32505749 PUSH1 0xE1 SHL DUP2 MSTORE PUSH1 0x4 DUP2 ADD DUP5 SWAP1 MSTORE PUSH1 0x24 SWAP1 REVERT JUMPDEST ADD SWAP1 POP REVERT JUMPDEST PUSH1 0x60 SWAP3 POP PUSH2 0x3F47 JUMP JUMPDEST SWAP2 SWAP5 POP SWAP2 POP PUSH4 0xFFFFFFFF PUSH1 0xE0 SHL AND SUB PUSH2 0x3F93 JUMPI POP CODESIZE DUP1 DUP1 DUP1 PUSH2 0x3EAF JUMP JUMPDEST PUSH1 0x24 SWAP1 PUSH1 0x40 MLOAD SWAP1 PUSH4 0x32505749 PUSH1 0xE1 SHL DUP3 MSTORE PUSH1 0x4 DUP3 ADD MSTORE REVERT JUMPDEST SWAP1 SWAP2 POP DUP5 DUP2 DUP2 RETURNDATASIZE DUP4 GT PUSH2 0x3FE8 JUMPI JUMPDEST PUSH2 0x3FC3 DUP2 DUP4 PUSH2 0x3682 JUMP JUMPDEST DUP2 ADD SUB SLT PUSH2 0x3FE4 JUMPI MLOAD PUSH1 0x1 PUSH1 0x1 PUSH1 0xE0 SHL SUB NOT DUP2 AND DUP2 SUB PUSH2 0x3FE4 JUMPI SWAP1 CODESIZE PUSH2 0x3F15 JUMP JUMPDEST DUP7 DUP1 REVERT JUMPDEST POP RETURNDATASIZE PUSH2 0x3FB9 JUMP JUMPDEST PUSH1 0x0 DUP2 DUP2 MSTORE PUSH1 0x2 PUSH1 0x20 MSTORE PUSH1 0x40 SWAP1 KECCAK256 SLOAD PUSH1 0x1 PUSH1 0x1 PUSH1 0xA0 SHL SUB AND SWAP1 DUP2 ISZERO PUSH2 0x4012 JUMPI POP SWAP1 JUMP JUMPDEST PUSH1 0x24 SWAP1 PUSH1 0x40 MLOAD SWAP1 PUSH4 0x7E273289 PUSH1 0xE0 SHL DUP3 MSTORE PUSH1 0x4 DUP3 ADD MSTORE REVERT JUMPDEST PUSH1 0x0 NOT DUP2 EQ PUSH2 0x4039 JUMPI PUSH1 0x1 ADD SWAP1 JUMP JUMPDEST PUSH4 0x4E487B71 PUSH1 0xE0 SHL PUSH1 0x0 MSTORE PUSH1 0x11 PUSH1 0x4 MSTORE PUSH1 0x24 PUSH1 0x0 REVERT JUMPDEST PUSH1 0x5 DUP3 LT ISZERO PUSH2 0xDB3 JUMPI MSTORE JUMP JUMPDEST SWAP1 PUSH1 0x5 DUP2 LT ISZERO PUSH2 0xDB3 JUMPI PUSH1 0xFF DUP1 NOT DUP4 SLOAD AND SWAP2 AND OR SWAP1 SSTORE JUMP JUMPDEST SWAP5 SWAP4 DUP2 MLOAD ISZERO PUSH2 0x493E JUMPI PUSH1 0x40 MLOAD PUSH1 0x20 DUP2 DUP5 MLOAD PUSH2 0x4091 DUP2 DUP4 DUP6 DUP10 ADD PUSH2 0x3578 JUMP JUMPDEST DUP2 ADD PUSH1 0xE DUP2 MSTORE SUB ADD SWAP1 KECCAK256 SLOAD PUSH2 0x4904 JUMPI PUSH2 0x3E8 DUP6 GT PUSH2 0x48C8 JUMPI PUSH1 0x8 SLOAD SWAP6 PUSH2 0x40B6 DUP8 PUSH2 0x402A JUMP JUMPDEST PUSH1 0x8 SSTORE PUSH2 0x40C2 DUP7 PUSH2 0x5210 JUMP JUMPDEST SWAP6 PUSH2 0x2EE PUSH1 0x40 MLOAD SWAP2 PUSH2 0x40D3 DUP4 PUSH2 0x35F9 JUMP JUMPDEST DUP6 DUP4 MSTORE DUP7 PUSH1 0x20 DUP5 ADD MSTORE DUP8 PUSH1 0x40 DUP5 ADD MSTORE DUP5 PUSH1 0x60 DUP5 ADD MSTORE DUP1 PUSH1 0x80 DUP5 ADD MSTORE PUSH2 0x40FB DUP10 PUSH1 0xA0 DUP6 ADD PUSH2 0x404F JUMP JUMPDEST TIMESTAMP PUSH1 0xC0 DUP5 ADD MSTORE TIMESTAMP PUSH1 0xE0 DUP5 ADD MSTORE PUSH1 0x1 PUSH2 0x100 DUP5 ADD MSTORE LT ISZERO PUSH2 0x120 DUP3 ADD MSTORE PUSH1 0x0 PUSH2 0x140 DUP3 ADD MSTORE PUSH1 0x0 PUSH2 0x160 DUP3 ADD MSTORE DUP8 PUSH1 0x0 MSTORE PUSH1 0xB PUSH1 0x20 MSTORE PUSH1 0x40 PUSH1 0x0 KECCAK256 SWAP1 DUP1 MLOAD DUP1 MLOAD SWAP1 PUSH1 0x1 PUSH1 0x1 PUSH1 0x40 SHL SUB DUP3 GT PUSH2 0xCB9 JUMPI DUP2 SWAP1 PUSH2 0x4155 DUP6 SLOAD PUSH2 0x393F JUMP JUMPDEST PUSH1 0x1F DUP2 GT PUSH2 0x4878 JUMPI JUMPDEST POP PUSH1 0x20 SWAP1 PUSH1 0x1F DUP4 GT PUSH1 0x1 EQ PUSH2 0x480C JUMPI PUSH1 0x0 SWAP3 PUSH2 0x4801 JUMPI JUMPDEST POP POP DUP2 PUSH1 0x1 SHL SWAP2 PUSH1 0x0 NOT SWAP1 PUSH1 0x3 SHL SHR NOT AND OR DUP3 SSTORE JUMPDEST PUSH1 0x20 DUP2 ADD MLOAD DUP1 MLOAD SWAP1 PUSH1 0x1 PUSH1 0x1 PUSH1 0x40 SHL SUB DUP3 GT PUSH2 0xCB9 JUMPI DUP2 SWAP1 PUSH2 0x41AF PUSH1 0x1 DUP7 ADD SLOAD PUSH2 0x393F JUMP JUMPDEST PUSH1 0x1F DUP2 GT PUSH2 0x47AE JUMPI JUMPDEST POP PUSH1 0x20 SWAP1 PUSH1 0x1F DUP4 GT PUSH1 0x1 EQ PUSH2 0x473C JUMPI PUSH1 0x0 SWAP3 PUSH2 0x4731 JUMPI JUMPDEST POP POP DUP2 PUSH1 0x1 SHL SWAP2 PUSH1 0x0 NOT SWAP1 PUSH1 0x3 SHL SHR NOT AND OR PUSH1 0x1 DUP4 ADD SSTORE JUMPDEST PUSH1 0x40 DUP2 ADD MLOAD DUP1 MLOAD SWAP1 PUSH1 0x1 PUSH1 0x1 PUSH1 0x40 SHL SUB DUP3 GT PUSH2 0xCB9 JUMPI DUP2 SWAP1 PUSH2 0x420C PUSH1 0x2 DUP7 ADD SLOAD PUSH2 0x393F JUMP JUMPDEST PUSH1 0x1F DUP2 GT PUSH2 0x46DE JUMPI JUMPDEST POP PUSH1 0x20 SWAP1 PUSH1 0x1F DUP4 GT PUSH1 0x1 EQ PUSH2 0x466C JUMPI PUSH1 0x0 SWAP3 PUSH2 0x4661 JUMPI JUMPDEST POP POP DUP2 PUSH1 0x1 SHL SWAP2 PUSH1 0x0 NOT SWAP1 PUSH1 0x3 SHL SHR NOT AND OR PUSH1 0x2 DUP4 ADD SSTORE JUMPDEST PUSH1 0x60 DUP2 ADD MLOAD DUP1 MLOAD SWAP1 PUSH1 0x1 PUSH1 0x1 PUSH1 0x40 SHL SUB DUP3 GT PUSH2 0xCB9 JUMPI DUP2 SWAP1 PUSH2 0x4269 PUSH1 0x3 DUP7 ADD SLOAD PUSH2 0x393F JUMP JUMPDEST PUSH1 0x1F DUP2 GT PUSH2 0x460E JUMPI JUMPDEST POP PUSH1 0x20 SWAP1 PUSH1 0x1F DUP4 GT PUSH1 0x1 EQ PUSH2 0x459C JUMPI PUSH1 0x0 SWAP3 PUSH2 0x4591 JUMPI JUMPDEST POP POP DUP2 PUSH1 0x1 SHL SWAP2 PUSH1 0x0 NOT SWAP1 PUSH1 0x3 SHL SHR NOT AND OR PUSH1 0x3 DUP4 ADD SSTORE JUMPDEST PUSH1 0x80 DUP2 ADD MLOAD PUSH1 0x4 DUP4 ADD SSTORE PUSH1 0xA0 DUP2 ADD MLOAD PUSH1 0x5 DUP2 LT ISZERO PUSH2 0xDB3 JUMPI PUSH1 0xA SWAP2 PUSH2 0x42CC PUSH2 0x160 SWAP3 PUSH1 0x5 DUP7 ADD PUSH2 0x405B JUMP JUMPDEST PUSH1 0xC0 DUP2 ADD MLOAD PUSH1 0x6 DUP6 ADD SSTORE PUSH1 0xE0 DUP2 ADD MLOAD PUSH1 0x7 DUP6 ADD SSTORE PUSH2 0x4320 PUSH1 0x8 DUP6 ADD PUSH2 0x4304 PUSH2 0x100 DUP5 ADD MLOAD ISZERO ISZERO DUP3 SWAP1 PUSH1 0xFF DUP1 NOT DUP4 SLOAD AND SWAP2 ISZERO ISZERO AND OR SWAP1 SSTORE JUMP JUMPDEST PUSH2 0x120 DUP4 ADD MLOAD DUP2 SLOAD PUSH2 0xFF00 NOT AND SWAP1 ISZERO ISZERO PUSH1 0x8 SHL PUSH2 0xFF00 AND OR SWAP1 SSTORE JUMP JUMPDEST PUSH2 0x140 DUP2 ADD MLOAD PUSH1 0x9 DUP6 ADD SSTORE ADD MLOAD SWAP2 ADD SSTORE DUP7 PUSH1 0x40 MLOAD PUSH1 0x20 DUP2 DUP7 MLOAD PUSH2 0x4346 DUP2 DUP4 DUP6 DUP12 ADD PUSH2 0x3578 JUMP JUMPDEST DUP2 ADD PUSH1 0xE DUP2 MSTORE SUB ADD SWAP1 KECCAK256 SSTORE PUSH2 0x4374 PUSH1 0x1 DUP1 PUSH1 0xA0 SHL SUB DUP1 SWAP3 AND SWAP7 DUP8 PUSH1 0x0 MSTORE PUSH1 0x11 PUSH1 0x20 MSTORE DUP9 PUSH1 0x40 PUSH1 0x0 KECCAK256 SSTORE PUSH2 0x3A83 JUMP JUMPDEST PUSH2 0x437E DUP2 SLOAD PUSH2 0x402A JUMP JUMPDEST SWAP1 SSTORE DUP6 ISZERO PUSH2 0x3E81 JUMPI DUP7 PUSH1 0x0 MSTORE PUSH1 0x2 PUSH1 0x20 MSTORE DUP1 PUSH1 0x40 PUSH1 0x0 KECCAK256 SLOAD AND DUP1 ISZERO ISZERO DUP1 PUSH2 0x4524 JUMPI JUMPDEST DUP1 PUSH2 0x451C JUMPI JUMPDEST PUSH2 0x44FC JUMPI JUMPDEST POP DUP7 PUSH1 0x0 MSTORE PUSH1 0x2 PUSH1 0x20 MSTORE PUSH1 0x40 PUSH1 0x0 KECCAK256 SLOAD AND DUP7 DUP7 DUP3 ISZERO ISZERO SWAP3 DUP4 PUSH2 0x44C5 JUMPI JUMPDEST DUP2 PUSH1 0x0 MSTORE PUSH1 0x3 PUSH1 0x20 MSTORE PUSH1 0x40 PUSH1 0x0 KECCAK256 PUSH1 0x1 DUP2 SLOAD ADD SWAP1 SSTORE DUP3 PUSH1 0x0 MSTORE PUSH1 0x2 PUSH1 0x20 MSTORE PUSH1 0x40 PUSH1 0x0 KECCAK256 DUP3 PUSH12 0xFFFFFFFFFFFFFFFFFFFFFFFF PUSH1 0xA0 SHL DUP3 SLOAD AND OR SWAP1 SSTORE PUSH32 0xDDF252AD1BE2C89B69C2B068FC378DAA952BA7F163C4A11628F55A4DF523B3EF PUSH1 0x0 DUP1 LOG4 PUSH2 0x44AC JUMPI DUP6 SWAP3 PUSH2 0x44A6 PUSH2 0x448A SWAP3 PUSH2 0x4498 PUSH2 0x4470 PUSH32 0x7FCFB895DE6352154D8737CA08605E20CFD918445B75B92F0FB8D93AEF25F94C SWAP7 PUSH1 0x20 PUSH1 0x40 MLOAD SWAP3 DUP3 DUP5 DUP1 SWAP5 MLOAD SWAP4 DUP5 SWAP3 ADD PUSH2 0x3578 JUMP JUMPDEST DUP2 ADD SUB SWAP1 KECCAK256 SWAP8 PUSH1 0x40 MLOAD SWAP6 DUP7 SWAP6 PUSH1 0x60 DUP8 MSTORE PUSH1 0x60 DUP8 ADD SWAP1 PUSH2 0x359B JUMP JUMPDEST SWAP1 DUP6 DUP3 SUB PUSH1 0x20 DUP8 ADD MSTORE PUSH2 0x359B JUMP JUMPDEST SWAP1 DUP4 DUP3 SUB PUSH1 0x40 DUP6 ADD MSTORE PUSH2 0x359B JUMP JUMPDEST SUB SWAP1 LOG4 SWAP1 JUMP JUMPDEST PUSH1 0x40 MLOAD PUSH4 0x39E35637 PUSH1 0xE1 SHL DUP2 MSTORE PUSH1 0x0 PUSH1 0x4 DUP3 ADD MSTORE PUSH1 0x24 SWAP1 REVERT JUMPDEST PUSH1 0x0 DUP4 DUP2 MSTORE PUSH1 0x4 PUSH1 0x20 MSTORE PUSH1 0x40 SWAP1 KECCAK256 DUP1 SLOAD PUSH1 0x1 PUSH1 0x1 PUSH1 0xA0 SHL SUB NOT AND SWAP1 SSTORE DUP1 PUSH1 0x0 MSTORE PUSH1 0x3 PUSH1 0x20 MSTORE PUSH1 0x40 PUSH1 0x0 KECCAK256 PUSH1 0x0 NOT DUP2 SLOAD ADD SWAP1 SSTORE PUSH2 0x43C8 JUMP JUMPDEST PUSH1 0x0 MSTORE PUSH1 0x11 PUSH1 0x20 MSTORE PUSH1 0x0 PUSH1 0x40 DUP2 KECCAK256 SSTORE DUP6 PUSH1 0x0 MSTORE DUP7 PUSH1 0x40 PUSH1 0x0 KECCAK256 SSTORE CODESIZE PUSH2 0x43AB JUMP JUMPDEST POP PUSH1 0x1 PUSH2 0x43A6 JUMP JUMPDEST PUSH1 0xF PUSH1 0x20 MSTORE PUSH1 0xFF PUSH1 0x40 PUSH1 0x0 KECCAK256 SLOAD AND ISZERO PUSH2 0x43A0 JUMPI PUSH1 0x40 MLOAD PUSH3 0x461BCD PUSH1 0xE5 SHL DUP2 MSTORE PUSH1 0x20 PUSH1 0x4 DUP3 ADD MSTORE PUSH1 0x2C PUSH1 0x24 DUP3 ADD MSTORE PUSH32 0x546F6B656E20697320736F756C626F756E6420616E642063616E6E6F74206265 PUSH1 0x44 DUP3 ADD MSTORE PUSH12 0x81D1C985B9CD9995C9C9959 PUSH1 0xA2 SHL PUSH1 0x64 DUP3 ADD MSTORE PUSH1 0x84 SWAP1 REVERT JUMPDEST ADD MLOAD SWAP1 POP CODESIZE DUP1 PUSH2 0x4289 JUMP JUMPDEST SWAP3 POP PUSH1 0x3 DUP6 ADD PUSH1 0x0 MSTORE PUSH1 0x20 PUSH1 0x0 KECCAK256 SWAP1 PUSH1 0x0 SWAP4 JUMPDEST PUSH1 0x1F NOT DUP5 AND DUP6 LT PUSH2 0x45F3 JUMPI PUSH1 0x1 SWAP5 POP DUP4 PUSH1 0x1F NOT DUP2 AND LT PUSH2 0x45DA JUMPI JUMPDEST POP POP POP DUP2 SHL ADD PUSH1 0x3 DUP4 ADD SSTORE PUSH2 0x42A1 JUMP JUMPDEST ADD MLOAD PUSH1 0x0 NOT PUSH1 0xF8 DUP5 PUSH1 0x3 SHL AND SHR NOT AND SWAP1 SSTORE CODESIZE DUP1 DUP1 PUSH2 0x45CA JUMP JUMPDEST DUP2 DUP2 ADD MLOAD DUP4 SSTORE PUSH1 0x20 SWAP5 DUP6 ADD SWAP5 PUSH1 0x1 SWAP1 SWAP4 ADD SWAP3 SWAP1 SWAP2 ADD SWAP1 PUSH2 0x45AF JUMP JUMPDEST SWAP1 SWAP2 POP PUSH1 0x3 DUP6 ADD PUSH1 0x0 MSTORE PUSH1 0x20 PUSH1 0x0 KECCAK256 PUSH1 0x1F DUP5 ADD PUSH1 0x5 SHR DUP2 ADD PUSH1 0x20 DUP6 LT PUSH2 0x465A JUMPI JUMPDEST SWAP1 DUP5 SWAP4 SWAP3 SWAP2 JUMPDEST PUSH1 0x1F DUP4 ADD PUSH1 0x5 SHR DUP3 ADD DUP2 LT PUSH2 0x464B JUMPI POP POP PUSH2 0x4272 JUMP JUMPDEST PUSH1 0x0 DUP2 SSTORE DUP6 SWAP5 POP PUSH1 0x1 ADD PUSH2 0x4635 JUMP JUMPDEST POP DUP1 PUSH2 0x462F JUMP JUMPDEST ADD MLOAD SWAP1 POP CODESIZE DUP1 PUSH2 0x422C JUMP JUMPDEST SWAP3 POP PUSH1 0x2 DUP6 ADD PUSH1 0x0 MSTORE PUSH1 0x20 PUSH1 0x0 KECCAK256 SWAP1 PUSH1 0x0 SWAP4 JUMPDEST PUSH1 0x1F NOT DUP5 AND DUP6 LT PUSH2 0x46C3 JUMPI PUSH1 0x1 SWAP5 POP DUP4 PUSH1 0x1F NOT DUP2 AND LT PUSH2 0x46AA JUMPI JUMPDEST POP POP POP DUP2 SHL ADD PUSH1 0x2 DUP4 ADD SSTORE PUSH2 0x4244 JUMP JUMPDEST ADD MLOAD PUSH1 0x0 NOT PUSH1 0xF8 DUP5 PUSH1 0x3 SHL AND SHR NOT AND SWAP1 SSTORE CODESIZE DUP1 DUP1 PUSH2 0x469A JUMP JUMPDEST DUP2 DUP2 ADD MLOAD DUP4 SSTORE PUSH1 0x20 SWAP5 DUP6 ADD SWAP5 PUSH1 0x1 SWAP1 SWAP4 ADD SWAP3 SWAP1 SWAP2 ADD SWAP1 PUSH2 0x467F JUMP JUMPDEST SWAP1 SWAP2 POP PUSH1 0x2 DUP6 ADD PUSH1 0x0 MSTORE PUSH1 0x20 PUSH1 0x0 KECCAK256 PUSH1 0x1F DUP5 ADD PUSH1 0x5 SHR DUP2 ADD PUSH1 0x20 DUP6 LT PUSH2 0x472A JUMPI JUMPDEST SWAP1 DUP5 SWAP4 SWAP3 SWAP2 JUMPDEST PUSH1 0x1F DUP4 ADD PUSH1 0x5 SHR DUP3 ADD DUP2 LT PUSH2 0x471B JUMPI POP POP PUSH2 0x4215 JUMP JUMPDEST PUSH1 0x0 DUP2 SSTORE DUP6 SWAP5 POP PUSH1 0x1 ADD PUSH2 0x4705 JUMP JUMPDEST POP DUP1 PUSH2 0x46FF JUMP JUMPDEST ADD MLOAD SWAP1 POP CODESIZE DUP1 PUSH2 0x41CF JUMP JUMPDEST SWAP3 POP PUSH1 0x1 DUP6 ADD PUSH1 0x0 MSTORE PUSH1 0x20 PUSH1 0x0 KECCAK256 SWAP1 PUSH1 0x0 SWAP4 JUMPDEST PUSH1 0x1F NOT DUP5 AND DUP6 LT PUSH2 0x4793 JUMPI PUSH1 0x1 SWAP5 POP DUP4 PUSH1 0x1F NOT DUP2 AND LT PUSH2 0x477A JUMPI JUMPDEST POP POP POP DUP2 SHL ADD PUSH1 0x1 DUP4 ADD SSTORE PUSH2 0x41E7 JUMP JUMPDEST ADD MLOAD PUSH1 0x0 NOT PUSH1 0xF8 DUP5 PUSH1 0x3 SHL AND SHR NOT AND SWAP1 SSTORE CODESIZE DUP1 DUP1 PUSH2 0x476A JUMP JUMPDEST DUP2 DUP2 ADD MLOAD DUP4 SSTORE PUSH1 0x20 SWAP5 DUP6 ADD SWAP5 PUSH1 0x1 SWAP1 SWAP4 ADD SWAP3 SWAP1 SWAP2 ADD SWAP1 PUSH2 0x474F JUMP JUMPDEST SWAP1 SWAP2 POP PUSH1 0x1 DUP6 ADD PUSH1 0x0 MSTORE PUSH1 0x20 PUSH1 0x0 KECCAK256 PUSH1 0x1F DUP5 ADD PUSH1 0x5 SHR DUP2 ADD PUSH1 0x20 DUP6 LT PUSH2 0x47FA JUMPI JUMPDEST SWAP1 DUP5 SWAP4 SWAP3 SWAP2 JUMPDEST PUSH1 0x1F DUP4 ADD PUSH1 0x5 SHR DUP3 ADD DUP2 LT PUSH2 0x47EB JUMPI POP POP PUSH2 0x41B8 JUMP JUMPDEST PUSH1 0x0 DUP2 SSTORE DUP6 SWAP5 POP PUSH1 0x1 ADD PUSH2 0x47D5 JUMP JUMPDEST POP DUP1 PUSH2 0x47CF JUMP JUMPDEST ADD MLOAD SWAP1 POP CODESIZE DUP1 PUSH2 0x4175 JUMP JUMPDEST SWAP3 POP DUP5 PUSH1 0x0 MSTORE PUSH1 0x20 PUSH1 0x0 KECCAK256 SWAP1 PUSH1 0x0 SWAP4 JUMPDEST PUSH1 0x1F NOT DUP5 AND DUP6 LT PUSH2 0x485D JUMPI PUSH1 0x1 SWAP5 POP DUP4 PUSH1 0x1F NOT DUP2 AND LT PUSH2 0x4844 JUMPI JUMPDEST POP POP POP DUP2 SHL ADD DUP3 SSTORE PUSH2 0x418A JUMP JUMPDEST ADD MLOAD PUSH1 0x0 NOT PUSH1 0xF8 DUP5 PUSH1 0x3 SHL AND SHR NOT AND SWAP1 SSTORE CODESIZE DUP1 DUP1 PUSH2 0x4837 JUMP JUMPDEST DUP2 DUP2 ADD MLOAD DUP4 SSTORE PUSH1 0x20 SWAP5 DUP6 ADD SWAP5 PUSH1 0x1 SWAP1 SWAP4 ADD SWAP3 SWAP1 SWAP2 ADD SWAP1 PUSH2 0x481C JUMP JUMPDEST SWAP1 SWAP2 POP DUP5 PUSH1 0x0 MSTORE PUSH1 0x20 PUSH1 0x0 KECCAK256 PUSH1 0x1F DUP5 ADD PUSH1 0x5 SHR DUP2 ADD PUSH1 0x20 DUP6 LT PUSH2 0x48C1 JUMPI JUMPDEST SWAP1 DUP5 SWAP4 SWAP3 SWAP2 JUMPDEST PUSH1 0x1F DUP4 ADD PUSH1 0x5 SHR DUP3 ADD DUP2 LT PUSH2 0x48B2 JUMPI POP POP PUSH2 0x415E JUMP JUMPDEST PUSH1 0x0 DUP2 SSTORE DUP6 SWAP5 POP PUSH1 0x1 ADD PUSH2 0x489C JUMP JUMPDEST POP DUP1 PUSH2 0x4896 JUMP JUMPDEST PUSH1 0x40 MLOAD PUSH3 0x461BCD PUSH1 0xE5 SHL DUP2 MSTORE PUSH1 0x20 PUSH1 0x4 DUP3 ADD MSTORE PUSH1 0x14 PUSH1 0x24 DUP3 ADD MSTORE PUSH20 0xA8E4EAE6E840E6C6DEE4CA40E8DEDE40D0D2CED PUSH1 0x63 SHL PUSH1 0x44 DUP3 ADD MSTORE PUSH1 0x64 SWAP1 REVERT JUMPDEST PUSH1 0x40 MLOAD PUSH3 0x461BCD PUSH1 0xE5 SHL DUP2 MSTORE PUSH1 0x20 PUSH1 0x4 DUP3 ADD MSTORE PUSH1 0x12 PUSH1 0x24 DUP3 ADD MSTORE PUSH18 0x44494420616C726561647920657869737473 PUSH1 0x70 SHL PUSH1 0x44 DUP3 ADD MSTORE PUSH1 0x64 SWAP1 REVERT JUMPDEST PUSH1 0x40 MLOAD PUSH3 0x461BCD PUSH1 0xE5 SHL DUP2 MSTORE PUSH1 0x20 PUSH1 0x4 DUP3 ADD MSTORE PUSH1 0x13 PUSH1 0x24 DUP3 ADD MSTORE PUSH19 0x4449442063616E6E6F7420626520656D707479 PUSH1 0x68 SHL PUSH1 0x44 DUP3 ADD MSTORE PUSH1 0x64 SWAP1 REVERT JUMPDEST ISZERO PUSH2 0x4980 JUMPI JUMP JUMPDEST PUSH1 0x40 MLOAD PUSH3 0x461BCD PUSH1 0xE5 SHL DUP2 MSTORE PUSH1 0x20 PUSH1 0x4 DUP3 ADD MSTORE PUSH1 0x19 PUSH1 0x24 DUP3 ADD MSTORE PUSH32 0x526F6C65206167656E7420646F6573206E6F7420657869737400000000000000 PUSH1 0x44 DUP3 ADD MSTORE PUSH1 0x64 SWAP1 REVERT JUMPDEST ISZERO PUSH2 0x49CC JUMPI JUMP JUMPDEST PUSH1 0x40 MLOAD PUSH3 0x461BCD PUSH1 0xE5 SHL DUP2 MSTORE PUSH1 0x20 PUSH1 0x4 DUP3 ADD MSTORE PUSH1 0x19 PUSH1 0x24 DUP3 ADD MSTORE PUSH32 0x53636F726520696D70616374206F7574206F662072616E676500000000000000 PUSH1 0x44 DUP3 ADD MSTORE PUSH1 0x64 SWAP1 REVERT JUMPDEST ISZERO PUSH2 0x4A18 JUMPI JUMP JUMPDEST PUSH1 0x40 MLOAD PUSH3 0x461BCD PUSH1 0xE5 SHL DUP2 MSTORE PUSH1 0x20 PUSH1 0x4 DUP3 ADD MSTORE PUSH1 0x18 PUSH1 0x24 DUP3 ADD MSTORE PUSH32 0x526F6C65206167656E74206973206E6F74206163746976650000000000000000 PUSH1 0x44 DUP3 ADD MSTORE PUSH1 0x64 SWAP1 REVERT JUMPDEST SWAP2 SWAP1 DUP3 ADD DUP1 SWAP3 GT PUSH2 0x4039 JUMPI JUMP JUMPDEST PUSH1 0x1 PUSH1 0xFF SHL DUP2 EQ PUSH2 0x4039 JUMPI PUSH1 0x0 SUB SWAP1 JUMP JUMPDEST SWAP2 SWAP1 DUP3 SUB SWAP2 DUP3 GT PUSH2 0x4039 JUMPI JUMP JUMPDEST DUP1 ISZERO PUSH2 0x4039 JUMPI PUSH1 0x0 NOT ADD SWAP1 JUMP JUMPDEST PUSH1 0x7 DUP3 LT ISZERO PUSH2 0xDB3 JUMPI MSTORE JUMP JUMPDEST MLOAD PUSH1 0x7 DUP2 LT ISZERO PUSH2 0xDB3 JUMPI SWAP1 JUMP JUMPDEST SWAP2 SWAP1 DUP3 SLOAD PUSH1 0x1 PUSH1 0x40 SHL DUP2 LT ISZERO PUSH2 0xCB9 JUMPI PUSH2 0x4ACF SWAP1 PUSH1 0x1 SWAP5 DUP6 DUP3 ADD DUP2 SSTORE PUSH2 0x3A67 JUMP JUMPDEST PUSH2 0x2209 JUMPI DUP2 MLOAD PUSH1 0x7 DUP2 LT ISZERO PUSH2 0xDB3 JUMPI PUSH1 0xFF DUP1 NOT DUP4 SLOAD AND SWAP2 AND OR DUP2 SSTORE PUSH1 0x20 DUP1 DUP4 ADD MLOAD DUP6 DUP4 ADD SSTORE PUSH1 0x2 DUP3 ADD SWAP5 PUSH1 0x40 DUP5 ADD MLOAD DUP1 MLOAD SWAP7 PUSH1 0x1 PUSH1 0x1 PUSH1 0x40 SHL SUB SWAP8 DUP9 DUP2 GT PUSH2 0xCB9 JUMPI DUP1 PUSH2 0x4B1C DUP4 SLOAD PUSH2 0x393F JUMP JUMPDEST SWAP4 PUSH1 0x1F SWAP5 DUP6 DUP2 GT PUSH2 0x4D12 JUMPI JUMPDEST POP DUP7 SWAP1 DUP6 DUP4 GT PUSH1 0x1 EQ PUSH2 0x4CAF JUMPI PUSH1 0x0 SWAP3 PUSH2 0x4CA4 JUMPI JUMPDEST POP POP PUSH1 0x0 NOT PUSH1 0x3 DUP4 SWAP1 SHL SHR NOT AND SWAP1 DUP5 SHL OR SWAP1 SSTORE JUMPDEST PUSH1 0x3 DUP5 ADD SWAP3 PUSH1 0x60 DUP7 ADD MLOAD SWAP1 DUP2 MLOAD SWAP9 DUP10 GT PUSH2 0xCB9 JUMPI PUSH2 0x4B6F DUP6 SLOAD PUSH2 0x393F JUMP JUMPDEST DUP4 DUP2 GT PUSH2 0x4C5E JUMPI JUMPDEST POP DUP1 SWAP3 DUP10 GT PUSH1 0x1 EQ PUSH2 0x4BF6 JUMPI POP SWAP7 DUP1 SWAP3 DUP2 SWAP3 PUSH1 0x5 SWAP8 SWAP9 SWAP10 PUSH1 0x0 SWAP5 PUSH2 0x4BEB JUMPI JUMPDEST POP POP SHL SWAP2 PUSH1 0x0 NOT SWAP1 PUSH1 0x3 SHL SHR NOT AND OR SWAP1 SSTORE JUMPDEST PUSH1 0x80 DUP4 ADD MLOAD PUSH1 0x4 DUP3 ADD SSTORE ADD SWAP1 PUSH1 0x1 DUP1 PUSH1 0xA0 SHL SUB PUSH1 0xA0 DUP3 ADD MLOAD AND DUP3 SLOAD SWAP2 PUSH1 0xC0 PUSH1 0xFF PUSH1 0xA0 SHL SWAP2 ADD MLOAD ISZERO ISZERO PUSH1 0xA0 SHL AND SWAP2 PUSH11 0xFFFFFFFFFFFFFFFFFFFFFF PUSH1 0xA8 SHL AND OR OR SWAP1 SSTORE JUMP JUMPDEST ADD MLOAD SWAP3 POP CODESIZE DUP1 PUSH2 0x4B96 JUMP JUMPDEST SWAP1 SWAP8 SWAP2 PUSH1 0x1F NOT DUP4 AND SWAP9 DUP6 PUSH1 0x0 MSTORE DUP3 PUSH1 0x0 KECCAK256 SWAP3 PUSH1 0x0 SWAP1 JUMPDEST DUP12 DUP3 LT PUSH2 0x4C47 JUMPI POP POP DUP4 PUSH1 0x5 SWAP9 SWAP10 SWAP11 LT PUSH2 0x4C2E JUMPI JUMPDEST POP POP POP DUP2 SHL ADD SWAP1 SSTORE PUSH2 0x4BA8 JUMP JUMPDEST ADD MLOAD PUSH1 0x0 NOT PUSH1 0xF8 DUP5 PUSH1 0x3 SHL AND SHR NOT AND SWAP1 SSTORE CODESIZE DUP1 DUP1 PUSH2 0x4C21 JUMP JUMPDEST DUP1 DUP8 DUP6 SWAP7 DUP3 SWAP5 SWAP7 DUP7 ADD MLOAD DUP2 SSTORE ADD SWAP6 ADD SWAP4 ADD SWAP1 PUSH2 0x4C0C JUMP JUMPDEST DUP6 PUSH1 0x0 MSTORE DUP2 PUSH1 0x0 KECCAK256 DUP5 DUP1 DUP13 ADD PUSH1 0x5 SHR DUP3 ADD SWAP3 DUP5 DUP14 LT PUSH2 0x4C9B JUMPI JUMPDEST ADD PUSH1 0x5 SHR ADD SWAP1 DUP6 SWAP1 JUMPDEST DUP3 DUP2 LT PUSH2 0x4C8F JUMPI POP POP PUSH2 0x4B77 JUMP JUMPDEST PUSH1 0x0 DUP2 SSTORE ADD DUP6 SWAP1 PUSH2 0x4C81 JUMP JUMPDEST SWAP3 POP DUP2 SWAP3 PUSH2 0x4C78 JUMP JUMPDEST ADD MLOAD SWAP1 POP CODESIZE DUP1 PUSH2 0x4B3D JUMP JUMPDEST SWAP1 DUP7 SWAP4 POP PUSH1 0x1F NOT DUP4 AND SWAP2 DUP6 PUSH1 0x0 MSTORE DUP9 PUSH1 0x0 KECCAK256 SWAP3 PUSH1 0x0 JUMPDEST DUP11 DUP3 DUP3 LT PUSH2 0x4CFC JUMPI POP POP DUP5 GT PUSH2 0x4CE3 JUMPI JUMPDEST POP POP POP DUP2 SHL ADD SWAP1 SSTORE PUSH2 0x4B51 JUMP JUMPDEST ADD MLOAD PUSH1 0x0 NOT PUSH1 0xF8 DUP5 PUSH1 0x3 SHL AND SHR NOT AND SWAP1 SSTORE CODESIZE DUP1 DUP1 PUSH2 0x4CD6 JUMP JUMPDEST DUP4 DUP6 ADD MLOAD DUP7 SSTORE DUP11 SWAP8 SWAP1 SWAP6 ADD SWAP5 SWAP4 DUP5 ADD SWAP4 ADD PUSH2 0x4CC5 JUMP JUMPDEST SWAP1 SWAP2 POP PUSH1 0x0 DUP5 DUP2 MSTORE DUP8 DUP2 KECCAK256 DUP7 DUP1 DUP7 ADD PUSH1 0x5 SHR DUP3 ADD SWAP4 DUP11 DUP8 LT PUSH2 0x4D5B JUMPI JUMPDEST SWAP2 DUP10 SWAP2 DUP8 SWAP7 SWAP6 SWAP5 SWAP4 ADD PUSH1 0x5 SHR ADD SWAP3 JUMPDEST DUP4 DUP2 LT PUSH2 0x4D4D JUMPI POP POP POP PUSH2 0x4B28 JUMP JUMPDEST DUP3 DUP2 SSTORE DUP7 SWAP6 POP DUP10 SWAP2 ADD PUSH2 0x4D3E JUMP JUMPDEST SWAP4 POP DUP2 SWAP4 PUSH2 0x4D2F JUMP JUMPDEST SWAP1 SWAP6 SWAP5 SWAP3 PUSH2 0x39B7 SWAP5 PUSH2 0x4D8C PUSH2 0x4D96 SWAP3 PUSH1 0x80 SWAP6 PUSH1 0xA0 DUP7 ADD SWAP11 DUP7 MSTORE PUSH1 0x20 DUP7 ADD MSTORE PUSH1 0x40 DUP6 ADD SWAP1 PUSH2 0x35C0 JUMP JUMPDEST PUSH1 0x60 DUP4 ADD SWAP1 PUSH2 0x35C0 JUMP JUMPDEST ADD SWAP1 PUSH2 0x3713 JUMP JUMPDEST DUP1 MLOAD DUP3 LT ISZERO PUSH2 0x3A51 JUMPI PUSH1 0x20 SWAP2 PUSH1 0x5 SHL ADD ADD SWAP1 JUMP JUMPDEST ISZERO PUSH2 0x4DB8 JUMPI JUMP JUMPDEST PUSH1 0x40 MLOAD PUSH3 0x461BCD PUSH1 0xE5 SHL DUP2 MSTORE PUSH1 0x20 PUSH1 0x4 DUP3 ADD MSTORE PUSH1 0x14 PUSH1 0x24 DUP3 ADD MSTORE PUSH20 0x151BDAD95B88191BD95CC81B9BDD08195E1A5CDD PUSH1 0x62 SHL PUSH1 0x44 DUP3 ADD MSTORE PUSH1 0x64 SWAP1 REVERT JUMPDEST SWAP1 PUSH1 0x40 MLOAD PUSH2 0x4E01 DUP2 PUSH2 0x3631 JUMP JUMPDEST PUSH1 0xC0 PUSH1 0xFF PUSH1 0x5 DUP4 SWAP6 PUSH2 0x4E16 DUP4 DUP3 SLOAD AND DUP7 PUSH2 0x4A95 JUMP JUMPDEST PUSH1 0x1 DUP2 ADD SLOAD PUSH1 0x20 DUP7 ADD MSTORE PUSH2 0x4E2C PUSH1 0x2 DUP3 ADD PUSH2 0x3979 JUMP JUMPDEST PUSH1 0x40 DUP7 ADD MSTORE PUSH2 0x4E3D PUSH1 0x3 DUP3 ADD PUSH2 0x3979 JUMP JUMPDEST PUSH1 0x60 DUP7 ADD MSTORE PUSH1 0x4 DUP2 ADD SLOAD PUSH1 0x80 DUP7 ADD MSTORE ADD SLOAD PUSH1 0x1 PUSH1 0x1 PUSH1 0xA0 SHL SUB DUP2 AND PUSH1 0xA0 DUP1 DUP7 ADD SWAP2 SWAP1 SWAP2 MSTORE SHR AND ISZERO ISZERO SWAP2 ADD MSTORE JUMP JUMPDEST SWAP1 PUSH1 0x0 DUP3 DUP2 MSTORE PUSH1 0x20 PUSH1 0x2 DUP2 MSTORE PUSH1 0x40 SWAP4 PUSH2 0x4E8F PUSH1 0x1 DUP1 PUSH1 0xA0 SHL SUB DUP7 DUP6 KECCAK256 SLOAD AND ISZERO ISZERO PUSH2 0x4DB1 JUMP JUMPDEST DUP3 MSTORE PUSH1 0xC DUP2 MSTORE DUP4 DUP3 KECCAK256 SWAP2 DUP3 SLOAD SWAP4 DUP5 ISZERO DUP1 ISZERO PUSH2 0x4F9B JUMPI JUMPDEST PUSH2 0x4F85 JUMPI DUP5 DUP2 GT ISZERO PUSH2 0x4F7F JUMPI POP DUP4 SWAP2 JUMPDEST PUSH2 0x4EBE DUP4 PUSH2 0x38A8 JUMP JUMPDEST SWAP6 PUSH2 0x4ECB DUP2 MLOAD SWAP8 DUP9 PUSH2 0x3682 JUMP JUMPDEST DUP4 DUP8 MSTORE PUSH1 0x1F NOT PUSH2 0x4EDA DUP6 PUSH2 0x38A8 JUMP JUMPDEST ADD SWAP1 DUP4 JUMPDEST DUP3 DUP2 LT PUSH2 0x4F41 JUMPI POP POP POP POP JUMPDEST DUP2 DUP2 LT PUSH2 0x4EF8 JUMPI POP POP POP POP SWAP1 JUMP JUMPDEST DUP1 PUSH2 0x4F21 PUSH2 0x4F1B PUSH2 0x4F15 PUSH2 0x4F3C SWAP5 PUSH2 0x4F10 DUP8 DUP11 PUSH2 0x4A7B JUMP JUMPDEST PUSH2 0x4A5D JUMP JUMPDEST DUP7 PUSH2 0x3A67 JUMP JUMPDEST POP PUSH2 0x4DF4 JUMP JUMPDEST PUSH2 0x4F2B DUP3 DUP9 PUSH2 0x4D9D JUMP JUMPDEST MSTORE PUSH2 0x4F36 DUP2 DUP8 PUSH2 0x4D9D JUMP JUMPDEST POP PUSH2 0x402A JUMP JUMPDEST PUSH2 0x4EEA JUMP JUMPDEST DUP4 SWAP1 DUP3 MLOAD PUSH2 0x4F4E DUP2 PUSH2 0x3631 JUMP JUMPDEST DUP7 DUP2 MSTORE DUP7 DUP4 DUP3 ADD MSTORE PUSH1 0x60 DUP1 DUP6 DUP4 ADD MSTORE DUP1 DUP3 ADD MSTORE DUP7 PUSH1 0x80 DUP3 ADD MSTORE DUP7 PUSH1 0xA0 DUP3 ADD MSTORE DUP7 PUSH1 0xC0 DUP3 ADD MSTORE DUP3 DUP3 DUP13 ADD ADD MSTORE ADD PUSH2 0x4EDE JUMP JUMPDEST SWAP2 PUSH2 0x4EB5 JUMP JUMPDEST POP SWAP4 SWAP3 POP POP POP MLOAD SWAP1 PUSH2 0x4F96 DUP3 PUSH2 0x364C JUMP JUMPDEST DUP2 MSTORE SWAP1 JUMP JUMPDEST POP DUP1 ISZERO PUSH2 0x4EA5 JUMP JUMPDEST SWAP1 PUSH2 0x4FAD DUP3 PUSH2 0x36A3 JUMP JUMPDEST PUSH2 0x4FBA PUSH1 0x40 MLOAD SWAP2 DUP3 PUSH2 0x3682 JUMP JUMPDEST DUP3 DUP2 MSTORE DUP1 SWAP3 PUSH2 0x4FCB PUSH1 0x1F NOT SWAP2 PUSH2 0x36A3 JUMP JUMPDEST ADD SWAP1 PUSH1 0x20 CALLDATASIZE SWAP2 ADD CALLDATACOPY JUMP JUMPDEST DUP1 MLOAD ISZERO PUSH2 0x50B8 JUMPI DUP1 MLOAD PUSH1 0x2 SWAP2 DUP3 DUP3 ADD DUP1 SWAP3 GT PUSH2 0x4039 JUMPI PUSH1 0x3 SWAP2 DUP3 SWAP1 DIV PUSH1 0x1 PUSH1 0x1 PUSH1 0xFE SHL SUB DUP2 AND DUP2 SUB PUSH2 0x4039 JUMPI PUSH2 0x500E SWAP1 DUP5 SWAP6 SWAP5 SHL PUSH2 0x4FA3 JUMP JUMPDEST SWAP4 PUSH1 0x20 DUP6 ADD SWAP4 DUP3 SWAP2 DUP4 MLOAD DUP5 ADD SWAP1 PUSH1 0x20 DUP3 ADD SWAP3 DUP4 MLOAD SWAP5 PUSH1 0x0 DUP6 MSTORE JUMPDEST DUP4 DUP2 LT PUSH2 0x5067 JUMPI POP POP POP POP MSTORE MLOAD MOD DUP1 PUSH1 0x1 EQ PUSH2 0x5054 JUMPI PUSH1 0x2 EQ PUSH2 0x5049 JUMPI POP SWAP1 JUMP JUMPDEST PUSH1 0x3D SWAP1 PUSH1 0x0 NOT ADD MSTORE8 SWAP1 JUMP JUMPDEST POP PUSH1 0x3D SWAP1 DUP2 PUSH1 0x0 NOT DUP3 ADD MSTORE8 PUSH1 0x1 NOT ADD MSTORE8 SWAP1 JUMP JUMPDEST DUP8 PUSH1 0x4 SWAP2 SWAP10 SWAP3 SWAP4 SWAP5 SWAP10 ADD SWAP2 DUP3 MLOAD PUSH1 0x1 SWAP1 PUSH1 0x3F SWAP1 DUP3 DUP3 DUP3 PUSH1 0x12 SHR AND DUP9 ADD ADD MLOAD DUP5 MSTORE8 DUP3 DUP3 DUP3 PUSH1 0xC SHR AND DUP9 ADD ADD MLOAD DUP4 DUP6 ADD MSTORE8 DUP3 DUP3 DUP3 PUSH1 0x6 SHR AND DUP9 ADD ADD MLOAD DUP9 DUP6 ADD MSTORE8 AND DUP6 ADD ADD MLOAD DUP10 DUP3 ADD MSTORE8 ADD SWAP8 SWAP3 SWAP2 SWAP1 PUSH2 0x5028 JUMP JUMPDEST POP POP PUSH1 0x40 MLOAD PUSH2 0x50C6 DUP2 PUSH2 0x364C JUMP JUMPDEST PUSH1 0x0 DUP2 MSTORE SWAP1 JUMP JUMPDEST DUP1 PUSH1 0x0 SWAP2 PUSH27 0x184F03E93FF9F4DAA797ED6E38ED64BF6A1F010000000000000000 DUP1 DUP3 LT ISZERO PUSH2 0x5202 JUMPI JUMPDEST POP PUSH14 0x4EE2D6D415B85ACEF8100000000 DUP1 DUP4 LT ISZERO PUSH2 0x51F3 JUMPI JUMPDEST POP PUSH7 0x2386F26FC10000 DUP1 DUP4 LT ISZERO PUSH2 0x51E4 JUMPI JUMPDEST POP PUSH4 0x5F5E100 DUP1 DUP4 LT ISZERO PUSH2 0x51D5 JUMPI JUMPDEST POP PUSH2 0x2710 DUP1 DUP4 LT ISZERO PUSH2 0x51C6 JUMPI JUMPDEST POP PUSH1 0x64 DUP3 LT ISZERO PUSH2 0x51B6 JUMPI JUMPDEST PUSH1 0xA DUP1 SWAP3 LT ISZERO PUSH2 0x51AC JUMPI JUMPDEST PUSH1 0x1 SWAP1 DUP2 PUSH1 0x21 PUSH2 0x5164 DUP3 DUP8 ADD PUSH2 0x4FA3 JUMP JUMPDEST SWAP6 DUP7 ADD ADD SWAP1 JUMPDEST PUSH2 0x5176 JUMPI JUMPDEST POP POP POP POP SWAP1 JUMP JUMPDEST PUSH1 0x0 NOT ADD SWAP1 DUP4 SWAP1 PUSH16 0x181899199A1A9B1B9C1CB0B131B232B3 PUSH1 0x81 SHL DUP3 DUP3 MOD BYTE DUP4 MSTORE8 DIV SWAP2 DUP3 ISZERO PUSH2 0x51A7 JUMPI SWAP2 SWAP1 DUP3 PUSH2 0x516A JUMP JUMPDEST PUSH2 0x516F JUMP JUMPDEST SWAP2 PUSH1 0x1 ADD SWAP2 PUSH2 0x5153 JUMP JUMPDEST SWAP2 SWAP1 PUSH1 0x64 PUSH1 0x2 SWAP2 DIV SWAP2 ADD SWAP2 PUSH2 0x5148 JUMP JUMPDEST PUSH1 0x4 SWAP2 SWAP4 SWAP3 DIV SWAP2 ADD SWAP2 CODESIZE PUSH2 0x513D JUMP JUMPDEST PUSH1 0x8 SWAP2 SWAP4 SWAP3 DIV SWAP2 ADD SWAP2 CODESIZE PUSH2 0x5130 JUMP JUMPDEST PUSH1 0x10 SWAP2 SWAP4 SWAP3 DIV SWAP2 ADD SWAP2 CODESIZE PUSH2 0x5121 JUMP JUMPDEST PUSH1 0x20 SWAP2 SWAP4 SWAP3 DIV SWAP2 ADD SWAP2 CODESIZE PUSH2 0x510F JUMP JUMPDEST PUSH1 0x40 SWAP4 POP DUP2 DIV SWAP2 POP CODESIZE PUSH2 0x50F6 JUMP JUMPDEST PUSH2 0x384 DUP2 LT ISZERO PUSH2 0x524C JUMPI PUSH2 0x2EE DUP2 LT ISZERO PUSH2 0x5246 JUMPI PUSH2 0x1F4 DUP2 LT ISZERO PUSH2 0x5240 JUMPI PUSH1 0xFA GT ISZERO PUSH2 0x523B JUMPI PUSH1 0x0 SWAP1 JUMP JUMPDEST PUSH1 0x1 SWAP1 JUMP JUMPDEST POP PUSH1 0x2 SWAP1 JUMP JUMPDEST POP PUSH1 0x3 SWAP1 JUMP JUMPDEST POP PUSH1 0x4 SWAP1 JUMP JUMPDEST PUSH1 0x5 DUP2 LT ISZERO PUSH2 0xDB3 JUMPI PUSH1 0x4 DUP2 EQ PUSH2 0x5310 JUMPI PUSH1 0x3 DUP2 EQ PUSH2 0x52E5 JUMPI PUSH1 0x2 DUP2 EQ PUSH2 0x52C1 JUMPI PUSH1 0x1 EQ PUSH2 0x52A0 JUMPI PUSH1 0x40 MLOAD PUSH2 0x5286 DUP2 PUSH2 0x3667 JUMP JUMPDEST PUSH1 0xA DUP2 MSTORE PUSH10 0x155B9D995C9A599A5959 PUSH1 0xB2 SHL PUSH1 0x20 DUP3 ADD MSTORE SWAP1 JUMP JUMPDEST PUSH1 0x40 MLOAD PUSH2 0x52AC DUP2 PUSH2 0x3667 JUMP JUMPDEST PUSH1 0x5 DUP2 MSTORE PUSH5 0x4261736963 PUSH1 0xD8 SHL PUSH1 0x20 DUP3 ADD MSTORE SWAP1 JUMP JUMPDEST POP PUSH1 0x40 MLOAD PUSH2 0x52CE DUP2 PUSH2 0x3667 JUMP JUMPDEST PUSH1 0x7 DUP2 MSTORE PUSH7 0x151C9D5CDD1959 PUSH1 0xCA SHL PUSH1 0x20 DUP3 ADD MSTORE SWAP1 JUMP JUMPDEST POP PUSH1 0x40 MLOAD PUSH2 0x52F2 DUP2 PUSH2 0x3667 JUMP JUMPDEST PUSH1 0xE DUP2 MSTORE PUSH14 0x121A59DA1B1E48151C9D5CDD1959 PUSH1 0x92 SHL PUSH1 0x20 DUP3 ADD MSTORE SWAP1 JUMP JUMPDEST POP PUSH1 0x40 MLOAD PUSH2 0x531D DUP2 PUSH2 0x3667 JUMP JUMPDEST PUSH1 0x5 DUP2 MSTORE PUSH5 0x456C697465 PUSH1 0xD8 SHL PUSH1 0x20 DUP3 ADD MSTORE SWAP1 JUMP INVALID LOG2 PUSH5 0x6970667358 0x22 SLT KECCAK256 0xF7 NUMBER 0xE2 DUP15 0xA7 SIGNEXTEND PUSH24 0x45520D3CE5360D9ADDA79DA3F58BB8FDC9C607B5B7CD17EF DUP9 PUSH5 0x736F6C6343 STOP ADDMOD EQ STOP CALLER 0x2F DUP8 DUP9 GT PUSH31 0x7EFF1D82E926EC794901D17C78024A50270940304540A733656F0D00000000 "},"methodIdentifiers":{"ACHIEVEMENT_MINTER_ROLE()":"f09aa997","DEFAULT_ADMIN_ROLE()":"a217fddf","MAX_TRUST_SCORE()":"74c8d377","MIN_TRUST_SCORE()":"057e709c","NFT_ELIGIBILITY_THRESHOLD()":"33eaa7a0","SIGNAL_UPDATER_ROLE()":"5f107779","achievements(uint256,uint256)":"59ef88dd","agentsByTrustLevel(uint8)":"c9a3c9b6","approve(address,uint256)":"095ea7b3","balanceOf(address)":"70a08231","batchProcessTrustSignals(uint256[],uint8[],int256[],string[],string[])":"46938654","contractURI()":"e8a3d485","deactivateRoleAgent(uint256)":"c3a5e3c9","didToTokenId(string)":"9691019a","getAchievements(uint256)":"18895a58","getApproved(uint256)":"081812fc","getPlatformStats()":"136d8883","getRecentTrustSignals(uint256,uint256)":"f106a40e","getRoleAdmin(bytes32)":"248a9ca3","getRoleAgentData(uint256)":"0200924c","getTokenIdByDID(string)":"1285a327","getTrustSignals(uint256)":"186c211d","grantRole(bytes32,address)":"2f2ff15d","hasRole(bytes32,address)":"91d14854","isApprovedForAll(address,address)":"e985e9c5","isSoulbound(uint256)":"911ec470","mintAchievement(uint256,string,string,string,string,bool,string)":"59206606","mintRoleAgent(address,string,string,string,string,uint256)":"3f82e5e1","mintRoleAgentPublic(address,string,string,string,string,uint256)":"323602fa","name()":"06fdde03","owner()":"8da5cb5b","ownerOf(uint256)":"6352211e","processTrustSignal(uint256,uint8,int256,string,string)":"89d85503","reactivateRoleAgent(uint256)":"3bcce0ed","renounceOwnership()":"715018a6","renounceRole(bytes32,address)":"36568abe","revokeRole(bytes32,address)":"d547741f","roleAgents(uint256)":"53c2de23","safeTransferFrom(address,address,uint256)":"42842e0e","safeTransferFrom(address,address,uint256,bytes)":"b88d4fde","setApprovalForAll(address,bool)":"a22cb465","setBaseURI(string)":"55f804b3","setContractURI(string)":"938e3d7b","soulboundTokens(uint256)":"64721755","supportsInterface(bytes4)":"01ffc9a7","symbol()":"95d89b41","tokenURI(uint256)":"c87b56dd","totalAchievements()":"a61f9837","totalTrustSignals()":"63eb1de6","transferFrom(address,address,uint256)":"23b872dd","transferOwnership(address)":"f2fde38b","trustScoreHistory(uint256)":"1d817645","trustSignals(uint256,uint256)":"9a5cdf29","userToTokenId(address)":"af24b07b"}}}}}